:100000000C94A1010C94D2010C94D2010C94D20155
:100010000C94D2010C94D2010C94D2010C94D20114
:100020000C94D2010C94D2010C94D2010C94D20104
:100030000C94D2010C94D3080C94D2010C94D201EC
:100040000C94D2010C94A8080C94D2010C94D20107
:100050000C94D2010C94D2010C94D2010C948723FD
:100060000C94D2010C94A1100C9491110C94D20117
:100070000C94D2010C94D2010C94D2010C94D201B4
:100080000C94D2010C94D2010C94D2010C94D201A4
:100090000C94D5100C94D0110C94D2010C94D20174
:1000A0000C94D2010C94D2010C94D2010C94D20184
:1000B0000C94D2010C94D2010C94D2010C94D20174
:1000C0000C94D2010C94D2010C94D2010C9409111D
:1000D0000C940F120C94D2010C943D110C944E12FE
:1000E0000C94D2014B0312034F03160319031C0394
:1000F0002003230327032A032D033003330337038D
:100100003B033F0342034503FE210122F421F82172
:100110003822052209220F22132217221D22212212
:10012000252238222B222F223322F122F622FB22F3
:1001300005237E230F2317231F23292333233D2346
:100140004C2356237E2360236A2374230C94562366
:100150000C941C030C942F220C9433230C9419033D
:100160000C9429230C947E230C943B030C94531081
:100170000C946A230C9425220C940F220C943C14AA
:100180000C9417230C94F8210C9442030C943822FD
:100190000C94B01F0C942D030C9420030C943D235D
:1001A0000C94F1220C9460230C9407100C943303EC
:1001B0000C9416030C9490240C942B220C94FE2186
:1001C0000C943F030C9405220C94F4210C941D22F2
:1001D0000C9427030C942A030C944B030C94F622E2
:1001E0000C9401220C9417100C945E100C94742340
:1001F0000C940F230C9400210C9423030C941F23C4
:100200000C9445030C9433220C9405230C94212266
:100210000C94FB220C9409220C9417220C941322A8
:100220000C9412030C9430030C9433100C94370389
:100230000C944F030C944C230000090A02080B0C89
:100240000D0706030401000000000000000000008C
:10025000000000000000000000000000000000009E
:100260000000000011100F0000000000000000005E
:10027000000000000000000000000000000001027B
:1002800010202008081020401020408002010201A8
:100290000804020101020408102040808040201060
:1002A00008040201800402018040201008040201B9
:1002B0000804020101020408102040800102040821
:1002C00010204080050505050705080808080202FA
:1002D00002020A0A080804040404010101010101E0
:1002E00001010303030303030303040707070C0CC3
:1002F0000C0C0C0C0C0C020202020606060606068A
:1003000006060B0B0B0B0B0B0B0B00002200250042
:1003100028002B002E0031003400020100000501EE
:1003200008010B0100002100240027002A002D00F5
:100330003000330001010000040107010A01B01F71
:10034000002111241FBECFEFD1E2DEBFCDBF00E000
:100350000CBF14E0A0E0B2E0E2E1F5E500E00BBF85
:1003600002C007900D92A634B107D9F727E0A6E4A2
:10037000B4E001C01D92A737B207E1F711E0C1EA6E
:10038000D1E000E006C021970109802FFE010E9404
:10039000E628CF39D10780E00807A9F70E94B51FEA
:1003A0000C94872A0C9400000C942824CF93DF939C
:1003B000EC0160E088890E94752280EC0E94AA1FEF
:1003C00061E088890E9475226AE070E080E090E038
:1003D000DF91CF910C9402241F93CF93DF93EC0114
:1003E000162F60E088890E94752283E00E94AA1F70
:1003F000812F0E94AA1F80E00E94AA1F182F61E08F
:1004000088890E947522812FDF91CF911F910895D5
:10041000CF92DF92EF92FF920F931F93CF93DF93D0
:100420001F921F92CDB7DEB77C01162FC22E60E05F
:10043000FC01808949835A830E94752283E00E94CF
:10044000AA1F812F0E94AA1F4981042F5A81152FAC
:10045000D12CDC1459F0F8E0DF1641F080E00E9466
:10046000AA1FF80181938F01D394F3CF61E0F701C4
:1004700080890F900F90DF91CF911F910F91FF9086
:10048000EF90DF90CF900C947522EF92FF921F9324
:10049000CF93DF931F92CDB7DEB77C01162F60E0BC
:1004A000FC01808949830E94752282E00E94AA1F74
:1004B000812F0E94AA1F4981842F0E94AA1F61E0F8
:1004C000F70180890F90DF91CF911F91FF90EF90FE
:1004D0000C947522CF92DF92EF92FF920F931F93AD
:1004E000CF93DF931F921F92CDB7DEB78C01E62E1C
:1004F000F22E60E0FC01808949835A830E947522B4
:1005000082E00E94AA1F8E2D0E94AA1F4981E42E1C
:10051000C42E5A81D52E8C2D8E198F1530F4F601EC
:1005200081916F010E94AA1FF6CF61E0F8018089D6
:100530000F900F90DF91CF911F910F91FF90EF904F
:10054000DF90CF900C947522EF92FF921F93CF9380
:10055000DF931F921F92CDB7DEB77C01162F60E0AC
:10056000FC0180892A8349830E94752285E00E94CC
:10057000AA1F812F0E94AA1F4981842F0E94AA1FAF
:100580002A81822F0E94AA1F61E0F70180890F90C3
:100590000F90DF91CF911F91FF90EF900C947522F7
:1005A0001F93CF93DF93EC0160E088890E9475224E
:1005B00080EA0E94AA1F80E00E94AA1F182F61E013
:1005C00088890E947522812FDF91CF911F91089514
:1005D0000F931F93CF938C01C62F262F40EE6FE011
:1005E0000E94A4026FE0C8010E94EC01982F907E47
:1005F00081E09C1301C080E0CF911F910F9108957D
:100600000F931F93CF93DF938C01462F50E0FA0195
:100610003197E231F105E8F58827EE58FF4F8F4F0B
:100620000C94E628C7E8DFEF4FE13CC0C7E0DAEB07
:1006300038C0C5E8D1EF35C0C7E0DEEB49E032C0D5
:10064000C7E8DFEF02C0C7E8DAEF47E02BC0C7E832
:10065000DFEF0BC0C7E0DEEB08C0C7E0DDEA05C096
:10066000C7E8DAEF02C0C6E8D0EF43E01BC0C7E836
:10067000DAEF41E017C0C5E8D1EF41E413C0C6E8A6
:10068000D0EF05C0C4E0D0EA02C0C2E8D0ED40E03F
:1006900009C081E016C0C7E8DFEF4FE303C0C7E839
:1006A000DFEF4FE06AE2C8010E9445024D2F69E288
:1006B000C8010E9445024C2F68E2C8010E94450211
:1006C00080E0DF91CF911F910F9108950F931F93B9
:1006D000CF938C01C0E340E06C2FC8010E9445021B
:1006E00060E16C0F40E0C8010E94450260E26C0FBF
:1006F00040E0C8010E944502CF5FCE3361F740E081
:1007000060E6C8010E94450240E060E7C801CF9161
:100710001F910F910C9445020F931F93CF93DF937A
:10072000EC01062F0E94D60160E8CE010E94E8028B
:10073000182F6AE070E080E090E011110CC00E9478
:100740000224602FCE010E940003882339F06AE062
:1007500070E080E090E00E94022428C06AE070E02F
:1007600080E090E00E940224CE010E94660343E0F4
:100770006BE2CE010E94450224E044E660E6CE0131
:100780000E94A40220E040E660E7CE010E94A4029D
:1007900060E0CE010E94E802C82F8823C1F26AE01F
:1007A00070E080E090E00E9402241C2F812FDF91F6
:1007B000CF911F910F9108950F931F93CF93DF93C4
:1007C00000D01F92CDB7DEB74130B1F40C831B834C
:1007D000890122273327502F5C71402F437078E026
:1007E000579F400D112448604A8355E016950795A0
:1007F0005A95E1F709830DC0A80123E05695479566
:100800002A95E1F749830295000F007E0A831C8236
:100810001B8224E0AE014F5F5F4F0E946A020F907F
:100820000F900F900F90DF91CF911F910F9108952E
:10083000EF92FF920F931F93CF93DF9300D01F92FD
:10084000CDB7DEB77A018901FA011082F901108271
:1008500011821282138224E0AE014F5F5F4F0E942B
:1008600008022A813981822F90E065E0959587956D
:100870006A95E1F7F8E03F9F800D911D1124092E44
:10088000000CAA0BBB0BF80180839183A283B38376
:1008900023FF25C032E0880F991FAA1FBB1F3A957E
:1008A000D1F72370820F911DA11DB11DBA2FA92F61
:1008B000982F88272B81820F911DA11DB11DBA2F62
:1008C000A92F982F88272C81820F911DA11DB11D62
:1008D00080839183A283B38381E0F70180830F90AB
:1008E0000F900F900F90DF91CF911F910F91FF907C
:1008F000EF900895FF920F931F93CF93DF93EC0136
:10090000F62E8A01AC014A5F5F4F65E06F0D2D81C5
:100910000E946A020130110519F48D8180648D8373
:1009200064E06F0D4D81CE010E94450209811A815C
:100930002B813C8148816F2DCE010E94DC03DF9129
:10094000CF911F910F91FF9008950F931F93CF9315
:10095000DF93EC01162F9C012F5F3F4FAC010E94EB
:1009600018046FEF610FCE010E94EC01082F64E0C4
:10097000610FCE010E94EC0103FB002700F90E87F6
:10098000282F2F702D83AE014A5F5F4F65E0610F06
:10099000CE01DF91CF911F910F910C94080261500D
:1009A00028E048E00C94A402AF92BF92CF92DF926D
:1009B000EF92FF920F931F93CF93DF9300D0CDB7A9
:1009C000DEB75C016B0180E3898380E48A8380E584
:1009D0008B83FB0110828E010F5F1F4F83E0E82E97
:1009E000E00EF801F1908F016F2DC5010E94EC011E
:1009F000982F987083FD04C0F394F601F08203C031
:100A0000E012EFCF92E0892F0F900F900F90DF91BF
:100A1000CF911F910F91FF90EF90DF90CF90BF90FB
:100A2000AF900895FC01608B08951F93CF93DF93DF
:100A3000EC01162F61E088890E94392261E08889E3
:100A40000E9475220E94D00F612FCE010E948C035C
:100A500091E0811101C090E0892FDF91CF911F912A
:100A600008958F929F92AF92BF92DF92EF92FF9282
:100A70000F931F93CF93DF931F92CDB7DEB77C0107
:100A8000D62E480159016AE070E080E090E0498389
:100A90000E94022460E8C7010E94E802182F4981E1
:100AA000882329F06AE070E080E090E01AC0D1105D
:100AB00004C09501840160E206C081E0D81206C03E
:100AC0009501840164E2C7010E94DC0360E0C70174
:100AD0000E94E802182F6AE070E080E090E01123A5
:100AE00021F00E940224812F03C00E94022480E092
:100AF0000F90DF91CF911F910F91FF90EF90DF90BA
:100B0000BF90AF909F908F9008958F929F92AF92D9
:100B1000BF92EF92FF920F931F93CF93DF931F9299
:100B20001F92CDB7DEB77C01562F480159016AE00C
:100B300070E080E090E04A8359830E94022460E8DC
:100B4000C7010E94E802182F4A815981882329F0A1
:100B50006AE070E080E090E031C05230B1F040F4E3
:100B6000552379F05130F9F49501840164E018C0FF
:100B7000543099F070F05530B1F49501840168E17A
:100B80000FC09501840160E00BC09501840168E00D
:100B900007C09501840160E103C09501840164E10F
:100BA000C7010E94DC0360E0C7010E94E802182F21
:100BB0006AE070E080E090E0112321F00E940224BE
:100BC000812F03C00E94022480E00F900F90DF91DC
:100BD000CF911F910F91FF90EF90BF90AF909F909A
:100BE0008F900895CF92DF920F931F93FC01208383
:100BF0004183528363837483093008F008E00583DE
:100C00003696D60110E0CD018C199D098017910709
:100C10001CF48D918193F7CF80E01F910F91DF90AD
:100C2000CF900895EF92FF920F931F93FC012083C2
:100C30004183528363837483093008F008E005839D
:100C40003696D70110E0CD018E199F0980179107C4
:100C50001CF48D918193F7CF80E01F910F91FF904D
:100C6000EF900895FC011182128213821482158282
:100C700010821686178680E00895CF92DF92EF9259
:100C8000FF920F931F93CF93DF931F92CDB7DEB7E1
:100C90007C016B0100E010E0BE016F5F7F4FC70178
:100CA0000E94D4040F5F1F4F823021F402331105DC
:100CB00099F720C002331105E9F0A6016981C70147
:100CC0000E947A046981C7010E94CF0400E010E00D
:100CD0000F5F1F4F69816150C7010E94EC0183FFC4
:100CE00004C002331105A1F707C00233110521F03A
:100CF00080E003C086E001C087E00F90DF91CF91D4
:100D00001F910F91FF90EF90DF90CF900895AF92D9
:100D1000BF92CF92DF92EF920F93CF935C01C02FDF
:100D20000E2DEC2E0E94F2056C2F70E0C501CF91C4
:100D30000F91EF90DF90CF90BF90AF900C943D0655
:100D4000EF92FF920F93CF93DF93EC010E94120674
:100D500060E070E0CE01DF91CF910F91FF90EF90B6
:100D60000C943D06CF93DF93EC010E94D00280FFEC
:100D700007C061E6CE010E94A50420E041E008C062
:100D800081FF0CC061E7CE010E94A50420E042E093
:100D90006CE2CE010E94A40280E001C084E0DF91F9
:100DA000CF910895EF92FF920F931F93CF93DF930C
:100DB000EC018B017A010E94B206811111C09D8164
:100DC000F8019083DE011696F7012D8130E0BF0116
:100DD0006E197F09621773072CF49D919193F5CFDB
:100DE000F8011082DF91CF911F910F91FF90EF904A
:100DF0000895CF92DF92EF92FF920F931F93CF93BC
:100E0000DF931F921F92CDB7DEB76C017B018A0181
:100E100029833A830E94B20629813A81811123C035
:100E2000F6019581F8019083F60141815281638139
:100E30007481F7014083518362837383D6011696D0
:100E4000B90120E030E0F601458150E02417350774
:100E500064F42830310549F09D91FB019193BF0165
:100E60002F5F3F4FF0CFF80110820F900F90DF916E
:100E7000CF911F910F91FF90EF90DF90CF90089549
:100E80000E94D002837011F484E0089583E00895F5
:100E90006DE20E94EC01887F09F085E00895FC0175
:100EA00061817281838194810895FC018685089512
:100EB000FC0180810895FC01108A118A128A138A2C
:100EC000148A158A168A178A148E158E168E178E16
:100ED000408351836283738308952F923F924F9290
:100EE0005F926F927F928F929F92AF92BF92CF92BA
:100EF000DF92EF92FF920F931F93CF93DF93CDB7C3
:100F0000DEB72C970FB6F894DEBF0FBECDBF1C0125
:100F1000CB01BA0128013901A90198010E9481265B
:100F20006D837E838F83988720E030E0A901C7011D
:100F3000B6010E94EE2618160CF09BC0A701960180
:100F40006D817E818F8198850E945228D1015496AF
:100F50002D913D914D915C9157970E9482264B01B6
:100F60005C01F101648B758B868B978B80914604B5
:100F700090914704019690934704809346048081A2
:100F80009181A281B38189839A83AB83BC83B0585A
:100F900089879A87AB87BC879C01AD01C501B401E5
:100FA0000E94EE2687FF05C089859A85AB85BC85A2
:100FB0000EC029813A814B815C81C501B4010E9438
:100FC0004D2818164CF489819A81AB81BC81F101BE
:100FD000848B958BA68BB78BD10114962D913D9167
:100FE0004D915C9117976D817E818F8198850E94CC
:100FF00052284B015C01F1012489358946895789C2
:1010000060857185828593850E9452289B01AC0181
:10101000C501B4010E9482264B015C01D1015096AA
:101020002D913D914D915C915397C301B2010E9466
:101030008126A70196010E94F326F10124853585BA
:10104000468557850E9452289B01AC01C501B40119
:101050000E948126D10158966D937D938D939C9328
:101060005B97F101408A518A628A738A80E090E03E
:1010700002C081E090E02C960FB6F894DEBF0FBE60
:10108000CDBFDF91CF911F910F91FF90EF90DF9037
:10109000CF90BF90AF909F908F907F906F905F9018
:1010A0004F903F902F90089540E052EC61E070E047
:1010B00087E295E00E94D11267E372E087E295E053
:1010C0000C940715CF93DF93EC0160E1CE010E94F1
:1010D0001505882369F062E370E080E090E00E94EB
:1010E000022469E472E087E295E00E940715EDCFE3
:1010F0006CE572E087E295E0DF91CF910C940715E3
:10110000CF93DF9361157105F1F0EB0121E1FB0154
:1011100011922A95E9F7F8949B01275F3F4FAB01A5
:101120004C5F5F4F0E94F906811109C00E94D123D4
:101130006D837E838F83988780E090E002C081E09A
:1011400090E0789402C082E090E0DF91CF91089522
:101150001F920F920FB60F9211240BB60F922F937E
:101160003F934F935F936F937F938F939F93AF932F
:10117000BF93EF93FF93E0914A04F0914B041995CC
:10118000FF91EF91BF91AF919F918F917F916F915F
:101190005F914F913F912F910F900BBE0F900FBE1B
:1011A0000F901F9018951F920F920FB60F92112457
:1011B0000BB60F922F933F934F935F936F937F9351
:1011C0008F939F93AF93BF93EF93FF93E091480466
:1011D000F09149041995FF91EF91BF91AF919F91C3
:1011E0008F917F916F915F914F913F912F910F90D0
:1011F0000BBE0F900FBE0F901F901895CF92DF92ED
:10120000EF92FF92CF93DF936B017C01EA01F89498
:10121000109280001092810010928500109284003C
:1012200020E030E040E857E40E9452289B01AC01E6
:1012300060E074E284E79BE40E94F3260E946C273E
:10124000613021E072078105910550F080918100A5
:1012500085608093810060E074E080E090E036C0BB
:10126000613471058105910550F0809181008460A1
:101270008093810060E071E080E090E027C06930F9
:1012800071058105910550F0809181008360809304
:10129000810060E470E080E090E018C06230710589
:1012A0008105910550F080918100826080938100DA
:1012B00068E070E080E090E009C08091810081608A
:1012C0008093810061E070E080E090E00E949B27C5
:1012D0009B01AC01C701B6010E9452289B01AC01E1
:1012E00060E074E284E79BE40E94F32620E030E0B3
:1012F00040E85FE30E9481260E946C27611571051A
:1013000021E08207910550F4611571058105910571
:1013100049F461E070E080E090E004C06FEF7FEF9F
:1013200080E090E070938900609388008091810054
:1013300088608093810080916F00826080936F004D
:10134000D0934B04C0934A047894DF91CF91FF90DF
:10135000EF90DF90CF900895CF92DF92EF92FF92BF
:10136000CF93DF936B017C01EA01F8941092B000F7
:101370001092B1001092B20020E030E040E853E457
:101380000E9452289B01AC0160E074E284E79BE478
:101390000E94F3260E946C27613021E072078105CC
:1013A000910550F08091B10087608093B10060E0BA
:1013B00074E080E090E054C06138710581059105CA
:1013C00050F08091B10086608093B10060E071E0E0
:1013D00080E090E045C0613471058105910550F0D1
:1013E0008091B10085608093B10060E870E080E09A
:1013F00090E036C0613271058105910550F0809111
:10140000B10084608093B10060E470E080E090E01F
:1014100027C0693071058105910550F08091B100B8
:1014200083608093B10060E270E080E090E018C0DB
:10143000623071058105910550F08091B1008260A4
:101440008093B10068E070E080E090E009C0809196
:10145000B10081608093B10061E070E080E090E0D5
:101460000E949B279B01AC01C701B6010E94522834
:101470009B01AC0160E074E284E79BE40E94F326E8
:1014800020E030E040E85FE30E9481260E946C2764
:101490006F3F71058105910509F050F461157105E3
:1014A0008105910549F461E070E080E090E004C0BE
:1014B0006FEF70E080E090E06093B3008091B10046
:1014C00082608093B1008091700082608093700090
:1014D000D0934904C09348047894DF91CF91FF9052
:1014E000EF90DF90CF900895CF92DF92EF92FF922E
:1014F0000F931F93CF93DF93E901811106C01882E8
:1015000019821A821B821C821DC06A017B010E9403
:10151000D1232881211106C021E0288369837A83A1
:101520008B839C8309811A812B813C81DC01CB0157
:10153000801B910BA20BB30B21E08C159D05AE0512
:10154000BF0508F420E0822FDF91CF911F910F910A
:10155000FF90EF90DF90CF9008950F931F93FB01C2
:10156000BA01A9019801892B29F081E0EF2B19F02C
:1015700080E001C081E01F910F910C94740AF894EF
:1015800060E081E30E9475227894089561E081E330
:101590000E9439220C94BF0AF89461E081E30E9412
:1015A000752278940895F89489E00E94A522789491
:1015B0000C94520BCF92DF92EF92FF920E94D30ACB
:1015C0006B017C0126E636E642E454E40E94EE26F6
:1015D000181634F0FF90EF90DF90CF900C94CC0A67
:1015E00020E030E84BE554E4C701B6010E944D28E5
:1015F00087FD06C0FF90EF90DF90CF900C94BF0A5C
:10160000FF90EF90DF90CF9008958F929F92AF92CE
:10161000BF92CF92DF92EF92FF92CF93DF9341156B
:10162000510589F1EA0188809980AA80BB80A501D3
:1016300094010E9481266B017C01A50194016C81BB
:101640007D818E819F810E9481269B01AC01C70113
:10165000B6010E94F3264B015C01C884D984EA8458
:10166000FB84A70196016C857D858E859F850E94F0
:1016700081269B01AC01C501B4010E945228A7013B
:1016800096010E9482266B017C01C701B601DF91A1
:10169000CF91FF90EF90DF90CF90BF90AF909F9051
:1016A0008F900895CF92DF92EF92FF92BC01990F35
:1016B000880B990B0E949D272AE939E949E150E4FA
:1016C0000E9452282AE939E14CE753E40E9481261E
:1016D0006B017C0120E030E040E451E40E94EE2602
:1016E00087FD13C023E333E94BE554E4C701B6019A
:1016F0000E944D2818167CF493E3C92E93E9D92E45
:101700009BE5E92E94E4F92E06C0C12CD12C80E48F
:10171000E82E81E4F82EC701B601FF90EF90DF902C
:10172000CF900895F89460E070E082E00E94CA22B1
:1017300078946BE672E087E295E00C94071561E01F
:1017400082E00E9439220C94920BF8946FEF70E0C3
:1017500082E00E94CA22789460E872E087E295E015
:101760000C940715EF92FF920F931F93CF93DF9383
:10177000EC01F8948AE00E94A5227C018BE00E9493
:10178000A5228C017894C7010E94520B688379834B
:101790008A839B83C8010E94520B6C837D838E8356
:1017A0009F83DF91CF911F910F91FF90EF9008954C
:1017B000F89460E080E30E94752278940895CF93B6
:1017C000DF93EC01F894BC0185E00E94CA22BE01BF
:1017D00087E00E94CA227894DF91CF910895CF9339
:1017E000DF93EC01F894BC0186E00E94CA22BE019E
:1017F00088E00E94CA227894DF91CF910895809169
:101800006C0481111BC080916D04811117C08091FF
:101810007304811113C08091740481110FC00E9460
:10182000A50B80E090E00E94EF0B81E080936C04B8
:1018300066E972E087E295E00C94071508958091BF
:101840006C048823F1F080E090E00E94DF0B8FEFC2
:1018500090E00E94EF0B0E94D80B6FE070E080E0F8
:1018600090E00E9402240E94920B80E090E00E948F
:10187000EF0B10926C0466EA72E087E295E00C943C
:10188000071508951F93CF93DF93CDB7DEB7289741
:101890000FB6F894DEBF0FBECDBF80916C048111EE
:1018A00005C080916D04882309F445C0CE010196DE
:1018B0000E94B20B2DEC3CEC4CE252E469817A813F
:1018C0008B819C810E944D2887FF0FC011E02DEC79
:1018D0003CEC4CE252E46D817E818F8198850E94C0
:1018E0004D2887FF03C010E001C011E028E934E073
:1018F00044E650E060E070E0812F0E94740A882383
:1019000099F00E941F0C80916E04826080936E0497
:101910000E94A90E81E080936D0467EB72E087E27C
:1019200095E00E94071507C080916E048D7F80931B
:101930006E0410926D0428960FB6F894DEBF0FBEA9
:10194000CDBFDF91CF911F9108950F931F93CF9338
:10195000DF9380916C04811104C080916E0480FF3C
:1019600084C0F8948AE00E94A522EC018BE00E94DA
:10197000A5227894CD2B11F0892B69F480919604DF
:1019800090919704019690939704809396040497FE
:101990000CF063C004C01092970410929604C0E04B
:1019A000F89489E00E94A5227894892B99F480917B
:1019B00094049091950401969093950480939404D7
:1019C000049764F06DEF72E087E295E00E940715DE
:1019D000D1E005C01092950410929404D0E0F894E0
:1019E0008EE00E94A5228C018DE00E94A5227894B1
:1019F000012B11F0892B99F480919204909193041A
:101A000001969093930480939204049764F06DE29E
:101A100073E087E295E00E94071581E005C010920F
:101A200093041092920480E0C11104C0D11102C04D
:101A3000882369F00E941F0C80916E04816080935E
:101A40006E04DF91CF911F910F910C94A90E80919C
:101A50006E048E7F80936E0408C069EC72E087E2AA
:101A600095E00E940715C1E09BCFDF91CF911F91B8
:101A70000F910895F89460E085E00E94752260E07F
:101A800087E00E94752260E086E00E94752260E097
:101A900088E00E94752260E08DE00E94752260E07F
:101AA0008CE00E947522789461E085E00E943922E2
:101AB00061E087E00E94392261E086E00E943922DD
:101AC00061E088E00E94392261E08DE00E943922C5
:101AD00061E08CE00E94392280E090E00E94EF0BF0
:101AE00080E090E00E94DF0B0E94D80B61E080E371
:101AF0000C9439228F929F92AF92BF92CF92DF9235
:101B0000EF92FF920F931F93CF93DF9380916C041A
:101B1000882309F4DDC0F8940E94DD236B017C0169
:101B200080918E0490918F04A0919004B0919104C3
:101B3000A7019601281B390B4A0B5B0BCA01B9019F
:101B40000E949B27C0928E04D0928F04E092900452
:101B5000F092910420E030E04AE754E40E94F3263A
:101B60006B017C0160916F0470917004809171042D
:101B70009091720440E252E00E94050B60938A0447
:101B800070938B0480938C0490938D04F8948EE072
:101B90000E94A5225C018DE00E94A522EC017894B0
:101BA000C5010E94520B4B015C01CE010E94520BF9
:101BB0009B01AC01C501B4010E94822620E030E007
:101BC00040E05FE30E9452284B015C016093860471
:101BD00070938704809388049093890420E030E018
:101BE0004AE754E4C701B6010E94F3266B017C0169
:101BF00040918A0450918B0460918C0470918D0403
:101C0000950184018CE494E00E946D07892B09F012
:101C10005EC0C0906404D0906504E0906604F090CB
:101C2000670420E030E040E251ECC701B6010E94B9
:101C3000EE2687FF28C080E090E00E94DF0BC701FE
:101C4000B601905840E152E00E94050B0E946C27BB
:101C5000CB016536710510F084E690E00E94EF0B31
:101C600020E030E040EA51E460918A0470918B04F6
:101C700080918C0490918D040E94EE2687FF27C0EE
:101C80000E94D80B24C020E030E040E251E4C701BC
:101C9000B6010E944D281816D4F4F89461E080E350
:101CA0000E947522789480E090E00E94EF0B40E063
:101CB00052E0C701B6010E94050B0E946C27CB01C0
:101CC0006A36710510F089E690E00E94DF0B789487
:101CD000DF91CF911F910F91FF90EF90DF90CF9008
:101CE000BF90AF909F908F900895EF92FF920F93C7
:101CF000CF93DF93CDB7DEB728970FB6F894DEBF4A
:101D00000FBECDBF85E089838CEC8A83ECE6F4E0DE
:101D100080818B8381818C8382818D83F894CE0135
:101D200001967C0108E020E043E750E060E070E0CD
:101D300085E794E00E94A006789428960FB6F89460
:101D4000DEBF0FBECDBFDF91CF910F91FF90EF901F
:101D50000895EF92FF920F93CF93DF93CDB7DEB745
:101D600028970FB6F894DEBF0FBECDBF85E08983FC
:101D70008CEC8A831B821C821D821E8280916E04E1
:101D80008F83F894CE0101967C0108E020E04FEAB1
:101D900050E060E070E085E794E00E94A00678944F
:101DA00028960FB6F894DEBF0FBECDBFDF91CF915E
:101DB0000F91FF90EF900895CF93DF93CDB7DEB7EB
:101DC00061970FB6F894DEBF0FBECDBFBE016F5F47
:101DD0007F4F85E794E00E948008892B09F052C06C
:101DE0008A85853009F04EC08B858C3C09F04AC04D
:101DF00089819A81AB81BC8180379105A105B105AC
:101E000019F40E94FF0B3EC081379105A105B10571
:101E100019F40E941F0C36C082379105A105B10547
:101E200069F48C859D85AE85BF8580936F04909302
:101E30007004A0937104B093720424C08F3A91058A
:101E4000A105B105F9F40E941F0C67E573E087E274
:101E500095E00E94BC144C855D856E857F852AE0E7
:101E600030E087E295E00E940D1664E773E087E2B8
:101E700095E00E94BC144AE050E0688987E295E052
:101E80000E94211661960FB6F894DEBF0FBECDBF3B
:101E9000DF91CF910895ECE6F4E010821182128276
:101EA00040E050E060EF71E48CE494E00E945B0756
:101EB000ECE4F4E086E696E6A6E2BFE3848395834D
:101EC000A683B78380E090E0A0EEBFE38087918790
:101ED000A287B38714861586168617860895E1E9CA
:101EE000F0E08081887F82608083E1EAF0E0808199
:101EF000887F826080830E94C60A0E949F0B0E9496
:101F00003A0D0E94BF0A0E94920B80E090E00E946E
:101F1000EF0B80E090E00C94DF0B0F931F930E9477
:101F200054086DE773E087E295E00E94BC1485E7F2
:101F300094E00E94620800EF17E020E030E040E00B
:101F400060E085E794E00E94310500E710E020E0C2
:101F500030E040E060E085E794E00E94850500EA1B
:101F600010E020E030E040E061E085E794E00E948E
:101F700085050FEF17E020E030E040E061E085E705
:101F800094E00E94310501E710E020E030E041E0FC
:101F900062E085E794E00E9485051F910F91089506
:101FA00061E085E30E94752261E085E30E943922A9
:101FB0008CB580618CBD8CB580648CBD61E084E3A0
:101FC0000E94392261E083E30C9439228CB58F7B27
:101FD0008CBD0895811103C08CB5806202C08CB5A0
:101FE0008F7D8CBD08959CB5937F892B8CBD089502
:101FF0009CB5282F23709C7F922B9CBD2DB582FB16
:10200000992790F9822F8E7F892B8DBD0895FC0131
:1020100024853585F901E05CFF4F808191813296FE
:1020200020813181821B930B8F7399270895DC01E6
:102030001C96ED91FC911D97DF01A05CBF4F2D9187
:102040003C91119712968D919C9111972817390701
:1020500039F08D919C91E80FF91F808190E00895EF
:102060008FEF9FEF0895FC01A485B585FD01E05C2D
:10207000FF4F208131813296808191812817390765
:1020800079F080819181A80FB91F8C9120813181D5
:102090002F5F3F4F2F7333273183208390E00895C4
:1020A0008FEF9FEF0895FC0181A1882329F0A48977
:1020B000B5898C9186FFFBCF11A208950F931F93D2
:1020C000CF93DF93FC01A685B7858D01005C1F4F80
:1020D000E8018881998101968F739927AD014E5B44
:1020E0005F4FEA012881398182179307D1F3E80114
:1020F00028813981A20FB31F6C93A685B785A05C98
:10210000BF4F11969C938E93A689B7892C9181E03D
:1021100090E0078C02C0880F991F0A94E2F7822B87
:102120008C9381E081A30488F589E02D808180640F
:10213000808381E090E0DF91CF911F910F9108950E
:1021400008951F920F920FB60F9211240BB60F92A3
:102150002F933F934F935F936F937F938F939F93AF
:10216000AF93BF93EF93FF938091C00082FD07C0B0
:102170008091C60065E277E00E94E62002C080916F
:10218000C600FF91EF91BF91AF919F918F917F9189
:102190006F915F914F913F912F910F900BBE0F90D8
:1021A0000FBE0F901F90189508951F920F920FB6B3
:1021B0000F9211240BB60F922F933F934F935F937F
:1021C0006F937F938F939F93AF93BF93EF93FF93FF
:1021D0008091C80082FD07C08091CE006DE976E055
:1021E0000E94E62002C08091CE00FF91EF91BF9146
:1021F000AF919F918F917F916F915F914F913F919F
:102200002F910F900BBE0F900FBE0F901F9018953F
:1022100008951F920F920FB60F9211240BB60F92D2
:102220002F933F934F935F936F937F938F939F93DE
:10223000AF93BF93EF93FF938091D00082FD07C0CF
:102240008091D60065E176E00E94E62002C0809190
:10225000D600FF91EF91BF91AF919F918F917F91A8
:102260006F915F914F913F912F910F900BBE0F9007
:102270000FBE0F901F90189508951F920F920FB6E2
:102280000F9211240BB60F922F933F934F935F93AE
:102290006F937F938F939F93AF93BF93EF93FF932E
:1022A0008091300182FD07C0809136016DE875E0B4
:1022B0000E94E62002C080913601FF91EF91BF910C
:1022C000AF919F918F917F916F915F914F913F91CE
:1022D0002F910F900BBE0F900FBE0F901F9018956F
:1022E00087E295E00E940710892B11F00E94A01050
:1022F00085E095E00E940710892B11F00E94D41010
:1023000083EE94E00E940710892B11F00E940811BF
:1023100081EC94E00E940710892B11F00C943C1181
:1023200008951F920F920FB60F9211240BB60F92C1
:102330002F933F938F939F93EF93FF9320912107C8
:10234000309122078091230790912407281739079D
:1023500031F48091C1008F7D8093C10014C0E09161
:102360002307F0912407EF51F94F20818091230733
:102370009091240701968F73992790932407809357
:1023800023072093C600FF91EF919F918F913F917A
:102390002F910F900BBE0F900FBE0F901F901895AE
:1023A0001F920F920FB60F9211240BB60F922F931C
:1023B0003F938F939F93EF93FF93209199063091D2
:1023C0009A0680919B0690919C062817390731F454
:1023D0008091C9008F7D8093C90014C0E0919B0655
:1023E000F0919C06E75AF94F208180919B069091CD
:1023F0009C0601968F73992790939C0680939B0669
:102400002093CE00FF91EF919F918F913F912F915B
:102410000F900BBE0F900FBE0F901F9018951F923C
:102420000F920FB60F9211240BB60F922F933F937A
:102430008F939F93EF93FF93209111063091120693
:1024400080911306909114062817390731F4809172
:10245000D1008F7D8093D10014C0E0911306F091DC
:102460001406EF52FA4F20818091130690911406C2
:1024700001968F73992790931406809313062093E7
:10248000D600FF91EF919F918F913F912F910F90E7
:102490000BBE0F900FBE0F901F9018951F920F92BA
:1024A0000FB60F9211240BB60F922F933F938F9379
:1024B0009F93EF93FF932091890530918A05809136
:1024C0008B0590918C052817390731F480913101E3
:1024D0008F7D8093310114C0E0918B05F0918C05C4
:1024E000E75BFA4F208180918B0590918C050196D6
:1024F0008F73992790938C0580938B0520933601D9
:10250000FF91EF919F918F913F912F910F900BBE73
:102510000F900FBE0F901F9018958F929F92AF92C1
:10252000BF92CF92DF92EF92FF920F931F93CF93C0
:10253000DF93CDB7DEB7FC011382128288EE93E001
:10254000A0E0B0E084839583A683B7838CE294E017
:10255000918380837587648757874687318B208B6B
:10256000138B028BF58AE48AD78AC68AB18EA08E35
:10257000938E828E8889848F8989858F8A89868FB8
:102580008B89878F8C8980A3DF91CF911F910F91C9
:10259000FF90EF90DF90CF90BF90AF909F908F9083
:1025A0000895CF92DF92EF92FF920F931F93CF93F4
:1025B000DF93EC016A017B014115514E6105710504
:1025C00009F1EC89FD8981E090E008A002C0880F44
:1025D000991F0A94E2F7808360E079E08DE390E050
:1025E000A70196010E94C42889019A01015011098E
:1025F00021093109369527951795079598010115F9
:102600001041A8F0EC89FD89108260E874E88EE141
:1026100090E0A70196010E94C428DA01C901019740
:10262000A109B109B695A795979587959C01E88969
:10263000F9893083EA89FB89208319A2EE89FF8911
:10264000408181E090E09C010C8C02C0220F331F7E
:102650000A94E2F7242B2083EE89FF8940819C01B4
:102660000D8C02C0220F331F0A94E2F7242B208323
:10267000EE89FF8940819C010E8C02C0220F331F1E
:102680000A94E2F7242B2083EE89FF8920810F8CA6
:1026900002C0880F991F0A94E2F7809582238083F5
:1026A000DF91CF911F910F91FF90EF90DF90CF902E
:1026B0000895CF92DF92EF92FF921F93CF93DF9313
:1026C000EC016A017B01122F4115514E6105710524
:1026D00009F1EC89FD8981E090E008A002C0880F33
:1026E000991F0A94E2F7808360E079E08DE390E03F
:1026F000A70196010E94C428DA01C9010197A10926
:10270000B109B695A79597958795AC01411580E1DC
:102710005807A8F0EC89FD89108260E874E88EE122
:1027200090E0A70196010E94C428BA01A901415076
:102730005109610971097695679557954795E8891B
:10274000F9895083EA89FB894083E88DF98D1083EC
:10275000EE89FF89408181E090E09C010C8C02C0F1
:10276000220F331F0A94E2F7242B2083EE89FF897E
:1027700040819C010D8C02C0220F331F0A94E2F7A6
:10278000242B2083EE89FF8940819C010E8C02C09E
:10279000220F331F0A94E2F7242B2083EE89FF894E
:1027A00020810F8C02C0880F991F0A94E2F7809550
:1027B00082238083DF91CF911F91FF90EF90DF9074
:1027C000CF900895CF93DF93FC0186859785EC0128
:1027D000C05CDF4FDC01AE5BBF4F288139818D913A
:1027E0009C91119728173907C1F7A689B7893C91A1
:1027F00081E090E0AC01048C02C0440F551F0A94A4
:10280000E2F7242F209523232C93A689B7893C91A6
:10281000AC01058C02C0440F551F0A94E2F7242F27
:10282000209523232C93A689B7893C91AC01068C73
:1028300002C0440F551F0A94E2F7242F209523234A
:102840002C93A689B7892C91078C02C0880F991FF9
:102850000A94E2F7809582238C9384859585FC0108
:10286000EE5BFF4F20813181329731832083DF91EE
:10287000CF91089581E00895CF92DF92EF92FF9279
:102880000F931F93CF93DF936C01EB017B01E40E59
:10289000F51E00E010E0CE15DF0561F06991D6016C
:1028A000ED91FC910190F081E02DC6011995080F82
:1028B000191FF1CFC801DF91CF911F910F91FF90A8
:1028C000EF90DF90CF900895EF92FF920F931F93B8
:1028D000CF93DF937C01FB0100E010E06491EF01F6
:1028E0002196662361F0D701ED91FC910190F08172
:1028F000E02DC7011995080F191FFE01EFCFC80180
:10290000DF91CF911F910F91FF90EF900895AF92BB
:10291000BF92CF92DF92EF92FF920F931F93CF93CC
:10292000DF936C017B01C0E0D0E000E010E0D70154
:1029300014968D919C911597C817D90788F4D601E4
:10294000ED91FC91A080B180BE01C7010E94A11C45
:10295000682FC601F5011995080F191F2196E7CFB9
:10296000C801DF91CF911F910F91FF90EF90DF9001
:10297000CF90BF90AF9008950C94D221DC01ED91DF
:10298000FC910190F081E02D1994DB01ED91FC9117
:1029900011970190F081E02DBC01CD0119940F93A6
:1029A0001F93CF93DF93EC016DE00E94BE148C0166
:1029B0006AE0CE010E94BE14800F911FDF91CF917B
:1029C0001F910F9108950F931F93CF93DF93EC0105
:1029D0000E9464148C01CE010E94CF14800F911FBD
:1029E000DF91CF911F910F9108950F931F93CF9374
:1029F000DF93EC010E9487148C01CE010E94CF145A
:102A0000800F911FDF91CF911F910F9108950F9328
:102A10001F93CF93DF93EC010E94D2218C01CE0152
:102A20000E94CF14800F911FDF91CF911F910F91C2
:102A300008950F931F93CF93DF93EC010E94BE1470
:102A40008C01CE010E94CF14800F911FDF91CF9196
:102A50001F910F9108950F931F93CF93DF93EC0174
:102A60000E94C5148C01CE010E94CF14800F911FCB
:102A7000DF91CF911F910F9108958F929F92AF9206
:102A8000BF92CF92DF92EF92FF920F931F93CF935B
:102A9000DF93CDB7DEB7A1970FB6F894DEBF0FBEB8
:102AA000CDBF6C01142FE52FCB01022F19A22230CC
:102AB00008F40AE07E0121E2E20EF11C802E912C46
:102AC000A12CB12C612F7E2FA50194010E94C42856
:102AD000029F1019112481E0E81AF1081A3014F449
:102AE000105D01C0195CF7011083122FE32FCA019A
:102AF000232B242B252B31F7B701C6010E94D221AD
:102B0000A1960FB6F894DEBF0FBECDBFDF91CF9177
:102B10001F910F91FF90EF90DF90CF90BF90AF90FB
:102B20009F908F900895CF92DF92EF92FF920F9334
:102B30001F93CF93DF93EC016A017B0121153105CF
:102B400079F4E881F9810190F081E02D642FDF9123
:102B5000CF911F910F91FF90EF90DF90CF9019943C
:102B60002A303105E9F477FF1AC06DE20E94BE14E5
:102B70008C0144275527BA014C195D096E097F095C
:102B80002AE0CE010E943D15800F911FDF91CF9169
:102B90001F910F91FF90EF90DF90CF9008952AE062
:102BA000B701A601CE01DF91CF911F910F91FF9048
:102BB000EF90DF90CF900C943D159A01AB01770F09
:102BC000660B770B0C9493150F931F93CF93DF93A2
:102BD000EC019A01AB01770F660B770B0E949315FE
:102BE0008C01CE010E94CF14800F911FDF91CF91F5
:102BF0001F910F9108950F931F93CF93DF93EC01D3
:102C00000E9493158C01CE010E94CF14800F911F5A
:102C1000DF91CF911F910F9108952115310541F456
:102C2000DC01ED91FC910190F081E02D642F19946D
:102C30000C943D159A01462F50E060E070E00C9432
:102C40000D160F931F93CF93DF93EC019A01462F3C
:102C500050E060E070E00E940D168C01CE010E94F1
:102C6000CF14800F911FDF91CF911F910F91089585
:102C70009A01AB0160E070E00C940D160F931F9366
:102C8000CF93DF93EC019A01AB0160E070E00E940A
:102C90000D168C01CE010E94CF14800F911FDF9181
:102CA000CF911F910F9108950F931F93CF93DF93AF
:102CB000EC010E940D168C01CE010E94CF14800FF2
:102CC000911FDF91CF911F910F9108954F925F92C5
:102CD0006F927F928F929F92AF92BF92CF92DF922C
:102CE000EF92FF92CF93DF93EC016A017B01B22E4A
:102CF0009A01AB01C701B6010E94BF28882319F0D1
:102D000068E374E027C026013701E89477F82FEFD5
:102D10003FEF4FE75FE7C301B2010E94BF28811177
:102D20000DC02FEF3FEF4FE75FE7C301B2010E94F5
:102D3000EE2618161CF46CE374E00CC02FEF3FEF86
:102D40004FE75FE4C701B6010E944D2818169CF4B6
:102D500060E474E0CE01DF91CF91FF90EF90DF90BF
:102D6000CF90BF90AF909F908F907F906F905F902B
:102D70004F900C94D2212FEF3FEF4FE75FECC7014C
:102D8000B6010E94EE2687FDE3CF20E030E0A901E6
:102D9000C701B6010E94EE2687FF0AC06DE2CE0190
:102DA0000E94BE144C01F7FAF094F7F8F09402C0B8
:102DB000812C912CA12C60E070E080E09FE3AB14AB
:102DC00041F020E030E040E251E40E94F326A39479
:102DD000F6CF9B01AC01C701B6010E9482262B01F0
:102DE0003C010E946C276B017C010E949B279B0188
:102DF000AC01C301B2010E9481262B013C012AE0F3
:102E0000B701A601CE010E943D157C01E80CF91C1A
:102E1000BB2039F064E474E0CE010E94D221E80EB8
:102E2000F91EDB2CDD2039F120E030E040E251E4F6
:102E3000C301B2010E9452282B013C010E94652768
:102E40004B01770FAA08BB082AE030E0B501A401C6
:102E5000CE010E949315E80EF91EC501B4010E942F
:102E60009D279B01AC01C301B2010E9481262B0169
:102E70003C01DA94D7CFC701DF91CF91FF90EF905B
:102E8000DF90CF90BF90AF909F908F907F906F908A
:102E90005F904F9008950C9466160F931F93CF93F5
:102EA000DF93EC010E9466168C01CE010E94CF14C4
:102EB000800F911FDF91CF911F910F910895FC0119
:102EC000DB01118210821382128215821482168213
:102ED0008D919C9111979183808312968D919C91F5
:102EE00013979383828314968D919C911597958364
:102EF000848311961C921E9213961C921E92129716
:102F000015961C921E9214970895FC01DB01118204
:102F10001082138212821582148216828D919C91E6
:102F200011979183808312968D919C91139793832F
:102F3000828314968D919C91159795838483119625
:102F40001C921E9213961C921E92129715961C921A
:102F50001E9214970895FC01808191810C94E925BB
:102F6000CF93DF93EC0188819981009711F00E9443
:102F7000E925198218821D821C821B821A82DF9128
:102F8000CF9108950F931F93CF93DF93EC018B01A3
:102F90006F5F7F4F888199810E948A24009731F06A
:102FA000998388831B830A8381E001C080E0DF91DD
:102FB000CF911F910F910895CF93DF93EC018881FA
:102FC0009981892B29F08A819B818617970760F464
:102FD000CE010E94C217882341F08C819D81892BEC
:102FE00019F4E881F981108281E0DF91CF91089591
:102FF000EF92FF920F931F93CF93DF93EC017B012E
:103000008A01BA010E94DC17811104C0CE010E941E
:10301000B01707C01D830C83B701888199810E9476
:103020009429CE01DF91CF911F910F91FF90EF90E6
:103030000895FC011182108213821282158214827B
:1030400016826115710551F0FB0101900020E9F72E
:103050003197AF01461B570B0C94F81708950F9347
:103060001F93CF93DF938C01EB01FC018081918151
:10307000009799F0428153812C813D81421753077B
:1030800050F0688179810E9494298C819D81F8019A
:103090009583848313C00E94E92588819981F80172
:1030A000918380838A819B81938382838C819D819C
:1030B00095838483198218821B821A821D821C8246
:1030C000DF91CF911F910F910895CF93DF93EC0182
:1030D000FB018617970761F06081718161157105A9
:1030E00029F0448155810E94F81702C00E94B01750
:1030F000CE01DF91CF910895FC01118210821382DD
:1031000012821582148216820C946518CF93DF9375
:10311000EC018617970711F00E942F18CE01DF915E
:10312000CF910895CF93DF93EC018617970711F0A5
:103130000E942F18CE01DF91CF910895CF93DF9396
:10314000EC016115710559F0FB0101900020E9F7D0
:103150003197AF01461B570B0E94F81702C00E941F
:10316000B017CE01DF91CF910895CF93DF931F92D7
:103170001F92CDB7DEB7FC0111821082138212823A
:1031800015821482168269831A82BE016F5F7F4F97
:103190000E949E180F900F90DF91CF9108950F938A
:1031A0001F93CF93DF93CDB7DEB729970FB6F8946F
:1031B000DEBF0FBECDBF8C01862FF80111821082B9
:1031C0001382128215821482168250E0BE016F5F54
:1031D0007F4F90E00E944F2ABE016F5F7F4FC80172
:1031E0000E949E1829960FB6F894DEBF0FBECDBF81
:1031F000DF91CF911F910F9108950F931F93CF935C
:10320000DF93CDB7DEB762970FB6F894DEBF0FBE7F
:10321000CDBF8C01CB01F801118210821382128282
:1032200015821482168250E0BE016F5F7F4F0E94AC
:10323000DD29BE016F5F7F4FC8010E949E18629614
:103240000FB6F894DEBF0FBECDBFDF91CF911F91B7
:103250000F9108950F931F93CF93DF93CDB7DEB7F0
:1032600061970FB6F894DEBF0FBECDBF8C01CB01C6
:10327000F801118210821382128215821482168242
:1032800050E0BE016F5F7F4F0E944F2ABE016F5F0B
:103290007F4FC8010E949E1861960FB6F894DEBF5A
:1032A0000FBECDBFDF91CF911F910F9108950F9366
:1032B0001F93CF93DF93CDB7DEB7A2970FB6F894E5
:1032C000DEBF0FBECDBF8C01CB01BA01F801118268
:1032D00010821382128215821482168230E0AE01AF
:1032E0004F5F5F4F0E94F329BE016F5F7F4FC801A0
:1032F0000E949E18A2960FB6F894DEBF0FBECDBFF7
:10330000DF91CF911F910F9108950F931F93CF934A
:10331000DF93CDB7DEB7A1970FB6F894DEBF0FBE2F
:10332000CDBF8C01CB01BA01F8011182108213824A
:10333000128215821482168230E0AE014F5F5F4F19
:103340000E94222ABE016F5F7F4FC8010E949E1813
:10335000A1960FB6F894DEBF0FBECDBFDF91CF911F
:103360001F910F910895EF92FF920F931F93CF93A8
:10337000DF93FC01248135816115710511F480E032
:1033800019C041155105A9F07B01EC018A01020F1A
:10339000131FB8010E94DC17882389F32881398123
:1033A0008C819D81B701820F931F0E9494291D83F8
:1033B0000C8381E0DF91CF911F910F91FF90EF90EF
:1033C0000895FB0144815581608171810C94B3198A
:1033D0006115710551F0FB0101900020E9F731976B
:1033E000AF01461B570B0C94B31980E00895CF939F
:1033F000DF931F921F92CDB7DEB769831A8241E037
:1034000050E0BE016F5F7F4F0E94B3190F900F9085
:10341000DF91CF910895EF92FF920F931F93CF9377
:10342000DF9300D01F92CDB7DEB77C01862F4AE034
:103430008E010F5F1F4FB80190E00E94E829F8014C
:1034400001900020E9F73197AF01401B510BB80103
:10345000C7010E94B3190F900F900F900F90DF914A
:10346000CF911F910F91FF90EF900895EF92FF92EF
:103470000F931F93CF93DF93CDB7DEB727970FB688
:10348000F894DEBF0FBECDBF7C01CB014AE08E01B8
:103490000F5F1F4FB8010E94E829F801019000203A
:1034A000E9F73197AF01401B510BB801C7010E94EA
:1034B000B31927960FB6F894DEBF0FBECDBFDF91CC
:1034C000CF911F910F91FF90EF900895EF92FF928F
:1034D0000F931F93CF93DF9300D000D0CDB7DEB70B
:1034E0007C01CB014AE08E010F5F1F4FB8010E94A3
:1034F0005A2AF80101900020E9F73197AF01401BEB
:10350000510BB801C7010E94B31926960FB6F89463
:10351000DEBF0FBECDBFDF91CF911F910F91FF9006
:10352000EF900895EF92FF920F931F93CF93DF9345
:10353000CDB7DEB72C970FB6F894DEBF0FBECDBF68
:103540007C01CB01BA012AE08E010F5F1F4FA80159
:103550000E94FE29F80101900020E9F73197AF01A0
:10356000401B510BB801C7010E94B3192C960FB62E
:10357000F894DEBF0FBECDBFDF91CF911F910F91A9
:10358000FF90EF900895EF92FF920F931F93CF93C8
:10359000DF93CDB7DEB72B970FB6F894DEBF0FBE23
:1035A000CDBF7C01CB01BA012AE08E010F5F1F4F16
:1035B000A8010E942D2AF80101900020E9F7319717
:1035C000AF01401B510BB801C7010E94B3192B96E4
:1035D0000FB6F894DEBF0FBECDBFDF91CF911F9124
:1035E0000F91FF90EF900895CF93DF93EC01FB01D3
:1035F00044815581608171810E94B319811103C09A
:10360000CE010E94B017CE01DF91CF910895CF93E4
:10361000DF93EC016115710561F0FB010190002061
:10362000E9F73197AF01461B570B0E94B31981117F
:1036300003C0CE010E94B017CE01DF91CF91089553
:10364000CF93DF93EC010E94F719811103C0CE01E3
:103650000E94B017CE01DF91CF910895CF93DF93F1
:10366000EC010E940B1A811103C0CE010E94B01719
:10367000CE01DF91CF910895CF93DF93EC010E94AB
:10368000361A811103C0CE010E94B017CE01DF911E
:10369000CF910895CF93DF93EC010E94661A8111B8
:1036A00003C0CE010E94B017CE01DF91CF910895E3
:1036B000CF93DF93EC010E94921A811103C0CE01D7
:1036C0000E94B017CE01DF91CF910895CF93DF9381
:1036D000EC010E94C31A811103C0CE010E94B017F1
:1036E000CE01DF91CF910895CF93DF93DC01ED916F
:1036F000FC91EB01A881B981309711F01097C9F4C2
:10370000109759F0EB012C813D81232B31F08C91E6
:1037100090E091958195910914C0309781F0DC017A
:1037200014968D919C911597892B49F0808190E09A
:1037300008C0BD01CF01DF91CF910C948B2980E0AF
:1037400090E0DF91CF910895FC0144815581FB0108
:10375000248135814217530729F40E94741B21E00C
:10376000892B09F020E0822F0895FC012481358106
:10377000232B31F421E061157105A1F0FB0108C094
:10378000FC01808191816115710531F421E0FC011A
:103790008081882339F005C00E948B2921E0892B84
:1037A00009F020E0822F08950E94741B892F881F42
:1037B0008827881F08950E94741B21E01816190697
:1037C0000CF020E0822F08950E94741B21E018164F
:1037D00019060CF420E0822F08950E94741B892F93
:1037E0008095881F8827881F0895EF92FF920F9376
:1037F0001F93CF93DF938617970729F1FC0124814C
:103800003581FB014481558124173507F1F4232BC1
:10381000D1F0DC01CD91DC91008111818991882367
:1038200091F0082E000C990B0E9455297C01F8019B
:1038300081918F01082E000C990B0E945529E816E2
:10384000F90661F302C081E001C080E0DF91CF9111
:103850001F910F91FF90EF900895DB011496ED9169
:10386000FC911597DC0114962D913C9115972E1B18
:103870003F0B24173507A0F02D913C912115310500
:1038800079F0DB016D917C916115710549F0CA01F8
:10389000AF01820F931F0E949B2921E0892B09F021
:1038A00020E0822F0895FC0144815581FB01248191
:1038B00035814217530720F040E050E00C942D1C56
:1038C00080E00895FC0124813581FB01448155810C
:1038D00024173507A0F0FC0180819181009779F0D1
:1038E000FB01608171816115710549F0241B350B65
:1038F000820F931F0E948B2921E0892B09F020E081
:10390000822F0895FC01248135816217730730F4FA
:1039100080819181FC01E60FF71F40830895FC012F
:10392000248135816217730720F48081918100978B
:1039300029F41092690789E697E00895860F971F8A
:103940000895FC01248135816217730748F4808152
:103950009181009729F0FC01E60FF71F80810895FF
:1039600080E008950C94A11C0F931F93CF93DF93D5
:103970004115510519F16115710501F1DC0114962C
:10398000ED91FC9115972E173F0718F0FB0110825F
:1039900015C0E21BF30BEA012197EC17FD0708F4B1
:1039A000EF018B01FC0160817181620F731FAE0119
:1039B000C8010E94A929C00FD11F1882DF91CF91A1
:1039C0001F910F910895CF93DF93FC0124813581DE
:1039D0004217530778F4C081D181062E000C770B73
:1039E000CE01840F951F0E948029009719F08C1B2F
:1039F0009D0B02C08FEF9FEFDF91CF91089540E0C4
:103A000050E00C94E31CCF93DF93FC0124813581BB
:103A10004217530780F4FB01DC01CD91DC916081FA
:103A20007181CE01840F951F0E94C329009719F060
:103A30008C1B9D0B02C08FEF9FEFDF91CF910895FC
:103A400040E050E00C94031DDF92EF92FF920F9341
:103A50001F93CF93DF93DC0114962D913C91159722
:103A60004217530718F08FEF9FEF1DC08C01EA013A
:103A70002196DC01ED91FC911197EC0FFD1FD08098
:103A80001082ED90FC90062E000C770BC7010E946F
:103A9000B829CE0DDF1DD882009729F3F8012081C7
:103AA0003181821B930BDF91CF911F910F91FF907A
:103AB000EF90DF900895FC014481558141505109F8
:103AC0000C94241DAF92BF92CF92DF92EF92FF929F
:103AD0000F931F93CF93DF937B018A01FB014481F6
:103AE00055814115510561F1FC0124813581211574
:103AF000310531F12417350718F10217130718F0B3
:103B0000890101501109FC01A080B180C501DFEFDE
:103B1000CFEF6501C00ED11EC816D906A0F0F7017F
:103B2000608171810E94C329009769F09C012A1964
:103B30003B090217130710F0D22FC32F0196ECCFC9
:103B40008FEF9FEF02C08D2F9C2FDF91CF911F91A0
:103B50000F91FF90EF90DF90CF90BF90AF900895BE
:103B6000FC0144815581FB0124813581421B530BAB
:103B70000C94621DBF92CF92DF92EF92FF920F934F
:103B80001F93CF93DF937C016B018A01E901241716
:103B9000350720F4812F8901C42FD82F60E973E005
:103BA000C7010E941918D60114968D919C91159702
:103BB00080179107D0F08C179D0708F4EC01D6010F
:103BC000ED91FC911197EC0FFD1FB08010824D918B
:103BD0005C91BA01600F711FC7010E949E18D60147
:103BE000ED91FC91EC0FFD1FB082C701DF91CF91E9
:103BF0001F910F91FF90EF90DF90CF90BF900895AD
:103C0000CF93DF93EC01FB01248135810E94BA1D23
:103C1000CE01DF91CF910895DC01ED91FC913097B9
:103C200029F40895861301C0408331968081811163
:103C3000F9CF08952F923F924F925F926F927F92A9
:103C40008F929F92AF92BF92CF92DF92EF92FF92AC
:103C50000F931F93CF93DF93FC0144805580411451
:103C6000510409F4D2C0FB016480758061147104B1
:103C700009F4CBC07A016B018C01FA01A480B580F4
:103C8000A618B708FC01C081D181A114B104C1F408
:103C9000F60160817181CE010E94C329EC01892B5C
:103CA00009F4B3C0F7016081718144815581CE016F
:103CB0000E946529F70184819581C80FD91FE8CF3B
:103CC000B7FE02C04E0105C0FB01208031804201D9
:103CD00043C0F60160817181C4010E94C3292C0197
:103CE000892B21F1320168187908A301B401CE01B2
:103CF0000E946529C60DD71DF7016081718144813D
:103D00005581CE010E946529F70184819581C80FF4
:103D1000D91FF60184809580840C951CF80184815C
:103D200095818A0D9B1D95838483D3CFB401CE01E9
:103D3000DF91CF911F910F91FF90EF90DF90CF9087
:103D4000BF90AF909F908F907F906F905F904F90BB
:103D50003F902F900C949429B101CE010E94C32969
:103D6000009731F0EC01C60DD71D8A0C9B1CF4CFD7
:103D70008414950409F449C0F8018281938188155F
:103D8000990530F4B401C8010E94C2178823E9F1F3
:103D9000F801448155814150510957FD36C0B601A3
:103DA000C8010E94621DEC0197FD2FC0F8018081BF
:103DB0009181F601248135812C0F3D1F820F931FC5
:103DC000F80144815581421B530BBC018A0D9B1D98
:103DD0000E946E29F801848195818A0D9B1D95832F
:103DE000848320813181F901E80FF91F1082F801E5
:103DF00080819181F70160817181448155818C0FAF
:103E00009D1F0E946529AE01C6CFDF91CF911F9102
:103E10000F91FF90EF90DF90CF90BF90AF909F9069
:103E20008F907F906F905F904F903F902F9008956C
:103E3000CF93DF93FC01C081D181209751F088811D
:103E4000882339F0082E000C990B0E94552989937C
:103E5000F6CFDF91CF910895CF93DF93FC01C0811E
:103E6000D181209751F08881882339F0082E000CE9
:103E7000990B0E945D298993F6CFDF91CF91089528
:103E8000AF92BF92CF92DF92EF92FF920F931F9368
:103E9000CF93DF93DC01CD90DC901197C114D10456
:103EA00009F442C01496CD91DC9115972097E1F169
:103EB0008C0156017501BFEFAB1ABB0AF701808177
:103EC000082E000C990B0E944C29892B99F72197F9
:103ED000CC0DDD1D8881082E000C990B0E944C2909
:103EE000892B91F4AE014F5F5F4F4E195F09D801E6
:103EF00015965C934E931497CE14DF0450F4B701DB
:103F0000C6010E94652905C0CE15DF0558F321972B
:103F1000E1CFD801ED91FC91119714968D919C9170
:103F20001597E80FF91F1082DF91CF911F910F9124
:103F3000FF90EF90DF90CF90BF90AF900895FC017D
:103F400080819181009711F00C94252960E070E048
:103F5000CB0108958EBD0DB407FEFDCF8EB508953B
:103F600065E385E794E00C9412050E94D4010E9459
:103F70004B0F0E946F0F0E948D0F60E08DE00E943A
:103F8000752260E08DE00E94752261E08DE00E9464
:103F9000392261E08DE00E94392261E973E087E215
:103FA00095E00E9407150E94DC0E0E94750E87E2C4
:103FB00095E00E940710181619060CF049C087E218
:103FC00095E00E9433108A3641F168F48B35C1F1D7
:103FD0008936F1F08C32E1F580E090E00E94EF0B41
:103FE00065EE73E031C08D36F9F048F48B3681F51B
:103FF00080E090E00E94DF0B6DEC73E025C080371D
:10400000D1F0853729F50E94920B69EA73E01CC054
:104010000E94A50B65EB73E017C08FEF90E00E9444
:10402000DF0B61EC73E010C08FEF90E00E94EF0BAC
:1040300069ED73E009C00E94CC0A61EF73E004C02F
:104040000E94BF0A69EF73E087E295E00E940715BE
:104050008EE00E94A5228C018DE00E94A522EC0139
:10406000C8010E94520B6093AD047093AE0480931C
:10407000AF049093B004CE010E94520B6093B10440
:104080007093B2048093B3049093B40489E00E94C7
:10409000A5220E94520B6093BD047093BE048093CE
:1040A000BF049093C0048AE00E94A5228C018BE09B
:1040B0000E94A522EC01C8010E94520B6093B50436
:1040C0007093B6048093B7049093B804CE010E9415
:1040D000520B6093B9047093BA048093BB0490931D
:1040E000BC0462E074E087E295E00E94BC14609139
:1040F000A9047091AA044AE050E087E295E00E948A
:10410000DD1567E074E087E295E00E94BC14409101
:10411000BD045091BE046091BF047091C00422E0C0
:1041200030E087E295E00E944B176EE074E087E292
:1041300095E00E94BC144091AD045091AE04609192
:10414000AF047091B00422E030E087E295E00E9475
:104150004B1764E174E087E295E00E94BC14409143
:10416000B1045091B2046091B3047091B40422E0A0
:1041700030E087E295E00E944B176AE174E087E245
:1041800095E00E94BC144091B5045091B604609132
:10419000B7047091B80422E030E087E295E00E9415
:1041A0004B1761E274E087E295E00E94BC144091F5
:1041B000B9045091BA046091BB047091BC0422E030
:1041C00030E087E295E00E944D17EDCEFB01E05C08
:1041D000FF4F208131812F5F3F4F2F733327DB014A
:1041E000AE5BBF4F4D915C912417350741F0408184
:1041F0005181DB01A40FB51F8C9331832083089577
:10420000CF92DF92EF92FF92E7E2F5E01382128203
:1042100088EEC82E83E0D82EE12CF12CC482D58202
:10422000E682F7826CE274E07183608385E297E056
:104230009587848781EE96E09787868785EC90E066
:10424000918B808B84EC90E0938B828B80EC90E060
:10425000958B848B81EC90E0978B868B82EC90E041
:10426000918F808F86EC90E0938F828F44E0448F13
:1042700033E0358F27E0268F95E0978F81E080A38C
:10428000E5E0F5E013821282C482D582E682F782ED
:1042900071836083ADE9B6E0B587A487A9E5B6E090
:1042A000B787A687ADECB0E0B18BA08BACECB0E0EB
:1042B000B38BA28BA8ECB0E0B58BA48BA9ECB0E0DB
:1042C000B78BA68BAAECB0E0B18FA08FAEECB0E0BC
:1042D000B38FA28F448F358F268F978F80A3E3EE05
:1042E000F4E013821282C482D582E682F78271835F
:1042F0006083A5E1B6E0B587A487A1EDB5E0B787F7
:10430000A687A5EDB0E0B18BA08BA4EDB0E0B38B98
:10431000A28BA0EDB0E0B58BA48BA1EDB0E0B78B84
:10432000A68BA2EDB0E0B18FA08FA6EDB0E0B38F69
:10433000A28F448F358F268F978F80A3E1ECF4E016
:1043400013821282C482D582E682F78271836083EF
:104350006DE875E07587648769E475E0778766873F
:1043600065E371E0718B608B64E371E0738B628B4A
:1043700060E371E0758B648B61E371E0778B668B32
:1043800062E371E0718F608F66E371E0738F628F1B
:10439000448F358F268F978F80A3FF90EF90DF900B
:1043A000CF9008956115710579F0FB01019000200F
:1043B000E9F73197AF01461B570BDC01ED91FC91FA
:1043C0000280F381E02D199480E090E0089590E060
:1043D000FC013197E131F10508F04AC08827EC571C
:1043E000FF4F8F4F0C94E628809180008F7703C099
:1043F000809180008F7D80938000089584B58F77B1
:1044000002C084B58F7D84BD08958091B0008F7700
:1044100003C08091B0008F7D8093B000089580919B
:1044200090008F7707C0809190008F7D03C08091AE
:104430009000877F8093900008958091A0008F77EF
:1044400007C08091A0008F7D03C08091A000877F6E
:104450008093A0000895809120018F7707C08091FC
:1044600020018F7D03C080912001877F80932001F0
:104470000895CF93DF9390E0FC01E258FD4F249123
:10448000FC01EC53FD4F8491882361F190E0880F8B
:10449000991FFC01EC5DFC4FC591D491FC01E65FD6
:1044A000FC4FA591B491611109C09FB7F894888120
:1044B000209582238883EC912E230BC0623061F417
:1044C0009FB7F8943881822F809583238883EC915D
:1044D0002E2B2C939FBF06C08FB7F894E8812E2B0C
:1044E00028838FBFDF91CF9108951F93CF93DF93E0
:1044F000282F30E0F901E85CFD4F8491F901E25882
:10450000FD4FD491F901EC53FD4FC491CC23C9F078
:10451000162F81110E94E721EC2FF0E0EE0FFF1F14
:10452000E65FFC4FA591B4918FB7F894111105C0C7
:104530009C91ED2FE095E92302C0EC91ED2BEC93DB
:104540008FBFDF91CF911F910895863308F0865376
:1045500090917B00282F2870977F922B90937B005F
:1045600087702091300290E4299F90011124822BC2
:1045700080937C0080917A00806480937A0080919F
:104580007A0086FDFCCF809178002091790090E040
:10459000922B08951F93CF93DF93182FEB0161E0C7
:1045A0000E943922209711F460E004C0CF3FD1056A
:1045B00029F461E0812F0E947522A5C0E12FF0E06F
:1045C000E85CFD4FE4914E2F50E0FA013197E13164
:1045D000F10508F093C08827EB56FF4F8F4F0C94DE
:1045E000E62884B5806884BDC7BD8DC084B580626F
:1045F00084BDC8BD88C080918000806880938000A1
:10460000D0938900C09388007EC080918000806232
:1046100080938000D0938B00C0938A0074C08091F7
:10462000B00080688093B000C093B3006CC08091EC
:10463000B00080628093B000C093B40064C08091E9
:104640009000806880939000D0939900C093980068
:104650005AC080919000806280939000D0939B001C
:10466000C0939A0050C08091900088608093900021
:10467000D0939D00C0939C0046C08091A0008068AC
:104680008093A0008091A0008F7B8093A000D093A6
:10469000A900C093A80037C08091A00080628093D9
:1046A000A000D093AB00C093AA002DC08091A000C1
:1046B00088608093A000D093AD00C093AC0023C06D
:1046C00080912001806880932001D0932901C093BC
:1046D000280119C080912001806280932001D0932D
:1046E0002B01C0932A010FC0809120018860809324
:1046F0002001D0932D01C0932C0105C0C038D105F5
:104700000CF057CF51CFDF91CF911F9108951F9299
:104710000F920FB60F9211242F933F938F939F9375
:10472000AF93BF9380916B0790916C07A0916D0739
:10473000B0916E0730916A0723E0230F2D3720F4E4
:104740000196A11DB11D05C026E8230F0296A11DEB
:10475000B11D20936A0780936B0790936C07A09319
:104760006D07B0936E0780916F0790917007A091CD
:104770007107B09172070196A11DB11D80936F075B
:1047800090937007A0937107B0937207BF91AF9198
:104790009F918F913F912F910F900FBE0F901F907F
:1047A00018952FB7F89460916B0770916C07809102
:1047B0006D0790916E072FBF08953FB7F8948091D1
:1047C0006F0790917007A0917107B091720726B59D
:1047D000A89B05C02F3F19F00196A11DB11D3FBF39
:1047E000BA2FA92F982F8827820F911DA11DB11DC7
:1047F000BC01CD0142E0660F771F881F991F4A95C3
:10480000D1F70895CF92DF92EF92FF92CF93DF938B
:104810006B017C010E94DD23EB01C114D104E10492
:10482000F10479F00E94DD236C1B7D0B683E734020
:10483000A0F381E0C81AD108E108F108C851DC4FA3
:10484000ECCFDF91CF91FF90EF90DF90CF90089564
:10485000789484B5826084BD84B5816084BD85B55B
:10486000826085BD85B5816085BDEEE6F0E0808122
:1048700081608083E1E8F0E0108280818260808343
:10488000808181608083E0E8F0E0808181608083C6
:10489000E1EBF0E0808184608083E0EBF0E08081F8
:1048A00081608083E1E9F0E08081826080838081A3
:1048B00081608083E0E9F0E0808181608083E1EACB
:1048C000F0E0808182608083808181608083E0EA83
:1048D000F0E0808181608083E1E2F1E080818260AC
:1048E0008083808181608083E0E2F1E0808181606B
:1048F0008083EAE7F0E08081846080838081826049
:104900008083808181608083808180688083109231
:10491000C1000895A0E0B0E0E0E9F4E20C94F228D0
:10492000EC01009721F4CB010E945425B8C0FC0192
:10493000E60FF71F9C0122503109E217F30708F434
:10494000ACC0D9010D911C91119706171707B0F053
:104950000530110508F49FC0C80104978617970712
:1049600008F499C002501109061B170B019311930B
:104970006D937C93CF010E94E9258DC05B01A01A45
:10498000B10A4C01800E911EA0917507B091760777
:1049900040E050E0E12CF12C109709F44AC0A81532
:1049A000B905D1F56D907C901197630182E0C80E36
:1049B000D11CCA14DB0480F1A3014A195B096A0106
:1049C00082E0C80ED11C1296BC9012971396AC913F
:1049D000B5E0CB16D10440F0B282A383518340836B
:1049E000D9016D937C930AC00E5F1F4FC301800FE6
:1049F000911FF90191838083EB2DFA2FE114F104CB
:104A000031F0D7011396FC93EE93129744C0F093C4
:104A10007607E09375073FC08D919C9111974817D9
:104A2000590708F4AC017D0112960D90BC91A02DA0
:104A3000B3CF809173079091740788159905E1F4BD
:104A400046175707C8F480913102909132020097BF
:104A500041F48DB79EB74091350250913602841BC8
:104A6000950BE817F907C8F4F0937407E093730700
:104A7000F901718360830FC0CB010E9454257C0132
:104A8000009759F0A801BE010E946529CE010E943D
:104A9000E925C70104C0CE0102C080E090E0CDB797
:104AA000DEB7EEE00C940E29CF93DF9382309105B0
:104AB00010F482E090E0E0917507F091760720E035
:104AC00030E0C0E0D0E0309711F1408151814817CB
:104AD0005907C0F04817590761F4828193812097E4
:104AE00019F09B838A832BC0909376078093750778
:104AF00026C02115310519F04217530718F49A0101
:104B0000BE01DF01EF010280F381E02DDCCF211532
:104B1000310509F1281B390B2430310590F4129628
:104B20008D919C9113976115710521F0FB01938381
:104B3000828304C09093760780937507FD013296B7
:104B400044C0FD01E20FF31F81939193225031097C
:104B50002D933C933AC02091730730917407232B17
:104B600041F4209133023091340230937407209342
:104B7000730720913102309132022115310541F441
:104B80002DB73EB74091350250913602241B350BAC
:104B9000E0917307F0917407E217F307A0F42E1B5E
:104BA0003F0B2817390778F0AC014E5F5F4F241791
:104BB000350748F04E0F5F1F5093740740937307FB
:104BC0008193919302C0E0E0F0E0CF01DF91CF91BB
:104BD00008950F931F93CF93DF93009709F48CC030
:104BE000FC013297138212820091750710917607AB
:104BF0000115110581F420813181820F931F2091CD
:104C00007307309174072817390779F5F093740703
:104C1000E093730771C0D80140E050E0AE17BF07C2
:104C200050F412962D913C911397AD012115310549
:104C300009F1D901F3CF9D01DA0133832283608129
:104C40007181860F971F8217930769F4EC01288101
:104C50003981260F371F2E5F3F4F318320838A8192
:104C60009B8193838283452B29F4F0937607E0930D
:104C7000750742C01396FC93EE931297ED0149918C
:104C800059919E01240F351FE217F30771F48081BB
:104C90009181840F951F029611969C938E93828129
:104CA000938113969C938E931297E0E0F0E0D801E5
:104CB00012968D919C911397009719F0F8018C0131
:104CC000F6CF8D919C9198012E5F3F4F820F931FDD
:104CD00020917307309174072817390769F43097CA
:104CE00029F4109276071092750702C0138212827F
:104CF0001093740700937307DF91CF911F910F9169
:104D000008955058BB27AA270E9499260C9413286F
:104D10000E94052838F00E940C2820F039F49F3FAB
:104D200019F426F40C9402280EF4E095E7FB0C9499
:104D3000FC27E92F0E94242858F3BA17620773074B
:104D40008407950720F079F4A6F50C9446280EF414
:104D5000E0950B2EBA2FA02D0B01B90190010C018B
:104D6000CA01A0011124FF27591B99F0593F50F4A3
:104D7000503E68F11A16F040A22F232F342F4427FB
:104D8000585FF3CF469537952795A795F0405395F3
:104D9000C9F77EF41F16BA0B620B730B840BBAF0C3
:104DA0009150A1F0FF0FBB1F661F771F881FC2F72E
:104DB0000EC0BA0F621F731F841F48F48795779542
:104DC0006795B795F7959E3F08F0B0CF9395880FFC
:104DD00008F09927EE0F9795879508950E94D82798
:104DE00008F481E008950E9407270C9413280E947C
:104DF0000C2858F00E94052840F029F45F3F29F064
:104E00000C94FC2751110C9447280C9402280E9402
:104E1000242868F39923B1F3552391F3951B550B7F
:104E2000BB27AA2762177307840738F09F5F5F4F7D
:104E3000220F331F441FAA1FA9F335D00E2E3AF0BC
:104E4000E0E832D091505040E695001CCAF72BD0D4
:104E5000FE2F29D0660F771F881FBB1F2617370725
:104E60004807AB07B0E809F0BB0B802DBF01FF2757
:104E700093585F4F3AF09E3F510578F00C94FC2711
:104E80000C9447285F3FE4F3983ED4F386957795DA
:104E90006795B795F7959F5FC9F7880F911D969510
:104EA000879597F90895E1E0660F771F881FBB1F6C
:104EB000621773078407BA0720F0621B730B840B19
:104EC000BA0BEE1F88F7E09508950E946C2768944E
:104ED000B1110C94472808950E942C2888F09F5700
:104EE00098F0B92F9927B751B0F0E1F0660F771F0E
:104EF000881F991F1AF0BA95C9F714C0B13091F004
:104F00000E944628B1E008950C944628672F782F18
:104F10008827B85F39F0B93FCCF3869577956795C8
:104F2000B395D9F73EF490958095709561957F4F34
:104F30008F4F9F4F0895E89409C097FB3EF49095DA
:104F40008095709561957F4F8F4F9F4F9923A9F062
:104F5000F92F96E9BB279395F695879577956795F1
:104F6000B795F111F8CFFAF4BB0F11F460FF1BC035
:104F70006F5F7F4F8F4F9F4F16C0882311F096E9C8
:104F800011C0772321F09EE8872F762F05C0662376
:104F900071F096E8862F70E060E02AF09A95660F2F
:104FA000771F881FDAF7880F9695879597F90895E8
:104FB000990F0008550FAA0BE0E8FEEF161617062A
:104FC000E807F907C0F012161306E407F50798F092
:104FD000621B730B840B950B39F40A2661F0232BAB
:104FE000242B252B21F408950A2609F4A140A69527
:104FF0008FEF811D811D089597F99F6780E870E00C
:1050000060E008959FEF80EC089500240A9416163E
:10501000170618060906089500240A9412161306A6
:10502000140605060895092E0394000C11F4882334
:1050300052F0BB0F40F4BF2B11F460FF04C06F5F50
:105040007F4F8F4F9F4F089557FD9058440F551F26
:1050500059F05F3F71F04795880F97FB991F61F0FA
:105060009F3F79F087950895121613061406551F71
:10507000F2CF4695F1DF08C0161617061806991FDD
:10508000F1CF86957105610508940895E894BB27D2
:1050900066277727CB0197F908950E94D82708F44F
:1050A0008FEF08950E9465280C9413280E9405280C
:1050B00038F00E940C2820F0952311F00C94FC2766
:1050C0000C94022811240C9447280E94242870F381
:1050D000959FC1F3950F50E0551F629FF001729F9D
:1050E000BB27F00DB11D639FAA27F00DB11DAA1FAC
:1050F000649F6627B00DA11D661F829F2227B00DF9
:10510000A11D621F739FB00DA11D621F839FA00D83
:10511000611D221F749F3327A00D611D231F849FD3
:10512000600D211D822F762F6A2F11249F5750402A
:105130009AF0F1F088234AF0EE0FFF1FBB1F661FA5
:10514000771F881F91505040A9F79E3F510580F06E
:105150000C94FC270C9447285F3FE4F3983ED4F36B
:10516000869577956795B795F795E7959F5FC1F712
:10517000FE2B880F911D9695879597F908950E94AB
:10518000D827880B990B0895A1E21A2EAA1BBB1BE6
:10519000FD010DC0AA1FBB1FEE1FFF1FA217B30703
:1051A000E407F50720F0A21BB30BE40BF50B661F19
:1051B000771F881F991F1A9469F7609570958095DD
:1051C00090959B01AC01BD01CF010895EE0FFF1F2B
:1051D000881F8BBF0790F691E02D19942F923F9274
:1051E0004F925F926F927F928F929F92AF92BF92F7
:1051F000CF92DF92EF92FF920F931F93CF93DF93A3
:10520000CDB7DEB7CA1BDB0B0FB6F894DEBF0FBEFF
:10521000CDBF19942A88398848885F846E847D843C
:105220008C849B84AA84B984C884DF80EE80FD804E
:105230000C811B81AA81B981CE0FD11D0FB6F894C4
:10524000DEBF0FBECDBFED0108951F93FC0199276E
:105250008827BC01E89411911032E9F3193010F05D
:105260001E30C8F31B3251F01D3249F4689406C059
:105270000E940D2A610F711D811D911D1191105306
:105280001A30B0F33EF490958095709561957F4FFC
:105290008F4F9F4F1F91089591110C94742A803263
:1052A00019F089508550C8F70895911108958154D7
:1052B0008A5108F4805E855A0895911108958156A7
:1052C0008A5108F4805285580895FB01DC0102C020
:1052D00001900D9241505040D8F708956817790712
:1052E00068F4FB01DC01E40FF51FA40FB51F02C039
:1052F00002900E9241505040D8F708950C946529C1
:10530000FC018191861721F08823D9F79927089508
:105310003197CF010895FB01DC018D910190801937
:105320000110D9F3990B0895FB01DC0101900D9256
:105330000020E1F70895FB01DC014150504030F0BE
:105340008D910190801919F40020B9F7881B990BF1
:105350000895FB01DC014150504048F001900D924E
:105360000020C9F701C01D9241505040E0F7089558
:10537000FC0181E090E00190061609F4CF010020C5
:10538000D1F701970895FB0151915523A9F0BF0171
:10539000DC014D9145174111E1F759F4CD01019020
:1053A000002049F04D9140154111C9F3FB01411115
:1053B000EFCF81E090E0019708954532510520F448
:1053C000423010F00C94E829FB011082CB010895C3
:1053D000BB274A3031F4992322F4BDE290958195A0
:1053E0009F4F0C945B2A2532310520F4223010F0B7
:1053F0000C94FE29FA011082CA010895BB272A30B5
:1054000051F4992342F4BDE2909580957095619591
:105410007F4F8F4F9F4F0C942E2A592F482F372F95
:10542000262F660F771F881F991F660F771F881F0B
:10543000991F620F731F841F951F660F771F881FA8
:10544000991F08952532310520F4223010F00C9474
:105450002D2AFA011082CA010895BB27FA01A62F4E
:105460006217710581059105330B30FB66F0AA27A1
:10547000660F771F881F991FAA1FA21710F0A21B83
:1054800063953850A9F7A05DAA3308F0A95DA193F0
:1054900036F7B111B1931082CA010C94772A4532C4
:1054A000510520F4423010F00C945A2AFB0110826E
:1054B000CB010895BB27FB015527AA27880F991F09
:1054C000AA1FA41710F0A41B83955051B9F7A05D33
:1054D000AA3308F0A95DA193009779F7B111B193B0
:1054E0001192CB010C94772A992788270895DC0123
:1054F000FC01672F71917723E1F7329704C07C910B
:105500006D9370836291AE17BF07C8F30895F89446
:02551000FFCFCB
:10551200000020410000DC420000A0420000D24214
:105522000000000000007042000082420000C842F9
:10553200000000000000803F0000404133935B44C4
:1055420001000077078000696E69745F7365726994
:10555200616C3A207061737300696E69745F636194
:105562006E3A207265747279696E6700696E697449
:105572005F63616E3A2070617373004D617374658D
:10558200722043796C696E646572204F70656E009B
:105592004D61737465722043796C696E6465722023
:1055A200436C6F736500436F6E74726F6C20656E2F
:1055B20061626C656400436F6E74726F6C20646923
:1055C2007361626C6564004F70657261746F722002
:1055D2006F76657272696465004261642076616CFF
:1055E200756520726561642066726F6D206D6173EE
:1055F2007465722063796C696E646572207072657D
:1056020073737572652073656E736F7200426164A5
:105612002076616C756520726561642066726F6DBB
:1056220020616363756D756C61746F722070726551
:1056320073737572652073656E736F720042616475
:105642002076616C756520726561642066726F6D8B
:1056520020776865656C207072657373757265205A
:1056620073656E736F72004661756C74207265703B
:105672006F72742072656365697665642066726F05
:105682006D3A20002020445443733A2000696E6929
:105692007420436F6E74726F6C2043414E202D2034
:1056A20000696E697469616C697A6174696F6E20F0
:1056B200636F6D706C657465006F70656E656420F4
:1056C200534D437300636C6F73656420534D437392
:1056D200006F70656E656420534C417300636C6F9C
:1056E20073656420534C4173006F70656E6564206E
:1056F200534C527300636C6F73656420534C527346
:105702000070756D70206F6E0070756D70206F6621
:10571200660043414E2C002C504143432C002C5038
:10572200464C2C002C5046522C002C504D43312C10
:10573200002C504D43322C00000000005E103C143F
:1057420007103310171053106E616E00696E6600F9
:065752006F7666002E00D8
:00000001FF
