:100000000C94F0020C9418030C9418030C9418032D
:100010000C9418030C9418030C9418030C941509F1
:100020000C9418030C9418030C9418030C94EE0809
:100030000C9418030C9418030C9418030C941803D4
:100040000C942F240C9418030C9444140C948714CF
:100050000C9418030C9418030C9418030C941803B4
:100060000C9418030C9418038B0452048F04560448
:1000700059045C046004630467046A046D0470043A
:10008000730477047B047F0482048504000000006D
:10009000003E5B4F5B3E3E6B4F6B3E1C3E7C3E1C0E
:1000A000183C7E3C181C577D571C1C5E7F5E1C0054
:1000B000183C1800FFE7C3E7FF0018241800FFE70B
:1000C000DBE7FF30483A060E2629792926407F05CE
:1000D0000507407F05253F5A3CE73C5A7F3E1C1CE4
:1000E00008081C1C3E7F14227F22145F5F005F5FA4
:1000F00006097F017F006689956A60606060609490
:10010000A2FFA29408047E040810207E2010080894
:100110002A1C08081C2A08081E101010100C1E0C9F
:100120001E0C30383E3830060E3E0E060000000031
:100130000000005F00000007000700147F147F1418
:10014000242A7F2A1223130864623649562050005D
:1001500008070300001C2241000041221C002A1C49
:100160007F1C2A08083E0808008070300008080834
:100170000808000060600020100804023E51494554
:100180003E00427F400072494949462141494D3372
:100190001814127F1027454545393C4A49493141D9
:1001A000211109073649494936464949291E0000A7
:1001B00014000000403400000008142241141414FC
:1001C0001414004122140802015909063E415D59E8
:1001D0004E7C1211127C7F494949363E41414122F1
:1001E0007F4141413E7F494949417F090909013E1B
:1001F000414151737F0808087F00417F4100204042
:10020000413F017F081422417F404040407F021C53
:10021000027F7F0408107F3E4141413E7F0909096A
:10022000063E4151215E7F09192946264949493236
:1002300003017F01033F4040403F1F2040201F3FFC
:100240004038403F63140814630304780403615981
:10025000494D43007F4141410204081020004141C3
:10026000417F04020102044040404040000307086F
:100270000020545478407F2844443838444444286B
:10028000384444287F385454541800087E09021812
:10029000A4A49C787F0804047800447D400020409A
:1002A000403D007F1028440000417F40007C0478DE
:1002B00004787C080404783844444438FC18242426
:1002C0001818242418FC7C080404084854545424A6
:1002D00004043F44243C4040207C1C2040201C3C23
:1002E0004030403C44281028444C9090907C44641A
:1002F000544C4400083641000000770000004136AD
:10030000080002010204023C2623263C1EA1A16132
:10031000123A4040207A3854545559215555794164
:100320002254547842215554784020545579400C39
:100330001E5272123955555559395454545939551C
:100340005454580000457C410002457D420001455F
:100350007C407D1211127DF0282528F07C545545F3
:10036000002054547C547C0A097F4932494949325F
:100370003A4444443A324A4848303A4141217A3A70
:1003800042402078009DA0A07D3D4242423D3D403C
:1003900040403D3C24FF2424487E4943662B2FFCEB
:1003A0002F2BFF0929F620C0887E09032054547999
:1003B000410000447D413048484A32384040227A6A
:1003C000007A0A0A727D0D19317D2629292F2826E7
:1003D0002929292630484D402038080808080808EF
:1003E0000808382F10C8ACBA2F102834FA00007B48
:1003F000000008142A142222142A1408550055005B
:1004000055AA55AA55AAFF55FF55FF000000FF0049
:10041000101010FF00141414FF001010FF00FF1044
:1004200010F010F0141414FC001414F700FF000076
:10043000FF00FF1414F404FC141417101F10101FF5
:10044000101F1414141F00101010F0000000001FE3
:10045000101010101F10101010F010000000FF10EE
:100460001010101010101010FF10000000FF1400EA
:1004700000FF00FF00001F10170000FC04F414141C
:100480001710171414F404F40000FF00F7141414E8
:1004900014141414F700F7141414171410101F1068
:1004A0001F141414F4141010F010F000001F101F8B
:1004B0000000001F14000000FC140000F010F010F9
:1004C00010FF10FF141414FF141010101F00000070
:1004D00000F010FFFFFFFFFFF0F0F0F0F0FFFFFF74
:1004E0000000000000FFFF0F0F0F0F0F38444438CB
:1004F00044FC4A4A4A347E02020606027E027E021A
:1005000063554941633844443C04407E201E200624
:10051000027E020299A5E7A5991C2A492A1C4C7261
:1005200001724C304A4D4D303048784830BC625AE8
:10053000463D3E494949007E0101017E2A2A2A2A78
:100540002A44445F444440514A444040444A514054
:100550000000FF0103E080FF000008086B6B083615
:1005600012362436060F090F060000181800000086
:100570001010003040FF0101001F01011E00191D75
:100580001712003C3C3C3C0000000000000000074B
:10059000000201000003040600000000000000004B
:1005A000010204081020408001020408102001020A
:1005B00004081020040404040404040402020202D7
:1005C00002020303030303030000000025002800C8
:1005D0002B0000000000240027002A0002221D2218
:1005E00011241FBECFEFD8E0DEBFCDBF16E0A0E0E4
:1005F000B1E0E6E0F4E502C005900D92A032B1074B
:10060000D9F727E0A0E2B6E001C01D92AB32B207F5
:10061000E1F712E0C0EFD2E004C02197FE010E9492
:100620004E28CE3ED107C9F70E94E4210C94012A3E
:100630000C9400000C94D024CF93DF93EC0160E085
:1006400088890E94D22280EC0E94DE2161E08889A4
:100650000E94D2226AE070E080E090E0DF91CF91CA
:100660000C94AA241F93CF93DF93EC01162F60E024
:1006700088890E94D22283E00E94DE21812F0E947D
:10068000DE2180E00E94DE21182F61E088890E942F
:10069000D222812FDF91CF911F910895CF92DF92C7
:1006A000EF92FF920F931F93CF93DF9300D0CDB7BC
:1006B000DEB77C01162FC22E60E0FC0180894983E1
:1006C0005A830E94D22283E00E94DE21812F0E9461
:1006D000DE214981042F5A81152FD12CDC1459F0C9
:1006E000F8E0DF1641F080E00E94DE21F8018193FE
:1006F0008F01D394F3CF61E0F70180890F900F90C1
:10070000DF91CF911F910F91FF90EF90DF90CF90ED
:100710000C94D222EF92FF921F93CF93DF931F92FC
:10072000CDB7DEB77C01162F60E0FC0180894983DC
:100730000E94D22282E00E94DE21812F0E94DE21CF
:100740004981842F0E94DE2161E0F70180890F90AA
:10075000DF91CF911F91FF90EF900C94D222CF9216
:10076000DF92EF92FF920F931F93CF93DF9300D00E
:10077000CDB7DEB78C01E62EF22E60E0FC01808959
:1007800049835A830E94D22282E00E94DE218E2D6C
:100790000E94DE214981E42EC42E5A81D52E8C2D53
:1007A0008E198F1530F4F60181916F010E94DE21C0
:1007B000F6CF61E0F80180890F900F90DF91CF9123
:1007C0001F910F91FF90EF90DF90CF900C94D22269
:1007D000EF92FF921F93CF93DF9300D0CDB7DEB798
:1007E0007C01162F60E0FC0180892A8349830E94E6
:1007F000D22285E00E94DE21812F0E94DE214981E4
:10080000842F0E94DE212A81822F0E94DE2161E056
:10081000F70180890F900F90DF91CF911F91FF908A
:10082000EF900C94D2221F93CF93DF93EC0160E002
:1008300088890E94D22280EA0E94DE2180E00E9404
:10084000DE21182F61E088890E94D222812FDF915A
:10085000CF911F9108950F931F93CF938C01C62FB3
:10086000262F40EE6FE00E94E8036FE0C8010E946F
:100870003203982F907E81E09C1301C080E0CF91DD
:100880001F910F9108950F931F93CF93DF93462FDE
:1008900050E0FA013197E231F105D8F5EC5CFF4FF9
:1008A0000C944E28C7E8DFEF4FE13CC0C7E0DAEB1D
:1008B00038C0C5E8D1EF35C0C7E0DEEB49E032C053
:1008C000C7E8DFEF02C0C7E8DAEF47E02BC0C7E8B0
:1008D000DFEF0BC0C7E0DEEB08C0C7E0DDEA05C014
:1008E000C7E8DAEF02C0C6E8D0EF43E01BC0C7E8B4
:1008F000DAEF41E017C0C5E8D1EF41E413C0C6E824
:10090000D0EF05C0C4E0D0EA02C0C2E8D0ED40E0BC
:1009100009C081E016C0C7E8DFEF4FE303C0C7E8B6
:10092000DFEF4FE08C016AE20E948A034D2F69E2FB
:10093000C8010E948A034C2F68E2C8010E948A0302
:1009400080E0DF91CF911F910F9108950F931F9336
:10095000CF938C01C0E340E06C2FC8010E948A0352
:1009600060E16C0F40E0C8010E948A0360E26C0FF6
:1009700040E0C8010E948A03CF5FCE3361F740E0B8
:1009800060E6C8010E948A0340E060E7C801CF9199
:100990001F910F910C948A030F931F93CF93DF93B2
:1009A000EC01062F0E941C0360E8CE010E942B047C
:1009B000182F6AE070E080E090E011110CC00E94F6
:1009C000AA24602FCE010E944304882339F06AE0F4
:1009D00070E080E090E00E94AA2428C06AE070E005
:1009E00080E090E00E94AA24CE010E94A60443E089
:1009F0006BE2CE010E948A0324E044E660E6CE0169
:100A00000E94E80320E040E660E7CE010E94E80390
:100A100060E0CE010E942B04C82F8823C1F26AE057
:100A200070E080E090E00E94AA241C2F812FDF91CB
:100A3000CF911F910F9108950F931F93CF93DF9341
:100A400000D000D0CDB7DEB74130B1F40C831B83AA
:100A5000890122273327502F5C71402F437078E0A3
:100A6000579F400D112448604A8355E0169507951D
:100A70005A95E1F709830DC0A80123E056954795E3
:100A80002A95E1F749830295000F007E0A831C82B4
:100A90001B8224E0AE014F5F5F4F0E94AF030F90B7
:100AA0000F900F900F90DF91CF911F910F910895AC
:100AB000EF92FF920F931F93CF93DF9300D000D05C
:100AC000CDB7DEB77A018901FA011082F9011082EF
:100AD00011821282138224E0AE014F5F5F4F0E94A9
:100AE0004E032A813981822F90E065E095958795A4
:100AF0006A95E1F7F8E03F9F800D911D1124092EC2
:100B0000000CAA0BBB0BF80180839183A283B383F3
:100B100023FF25C032E0880F991FAA1FBB1F3A95FB
:100B2000D1F72370820F911DA11DB11DBA2FA92FDE
:100B3000982F88272B81820F911DA11DB11DBA2FDF
:100B4000A92F982F88272C81820F911DA11DB11DDF
:100B500080839183A283B38381E0F70180830F9028
:100B60000F900F900F90DF91CF911F910F91FF90F9
:100B7000EF900895FF920F931F93CF93DF93EC01B3
:100B8000F62E8A01AC014A5F5F4F65E06F0D2D8143
:100B90000E94AF030130110519F48D8180648D83AB
:100BA00064E06F0D4D81CE010E948A0309811A8194
:100BB0002B813C8148816F2DCE010E941C05DF9165
:100BC000CF911F910F91FF9008950F931F93CF9393
:100BD000DF93EC01162F9C012F5F3F4FAC010E9469
:100BE00058056FEF610FCE010E943203082F64E0B9
:100BF000610FCE010E94320303FB002700F90E872C
:100C0000282F2F702D83AE014A5F5F4F65E0610F83
:100C1000CE01DF91CF911F910F910C944E03615043
:100C200028E048E00C94E803AF92BF92CF92DF92A5
:100C3000EF92FF920F931F93CF93DF9300D01F92F9
:100C4000CDB7DEB75C016B0180E3898380E48A83E2
:100C500080E58B83FB0110828E010F5F1F4F83E0C5
:100C6000E82EE00EF801F1908F016F2DC5010E9472
:100C70003203982F987083FD04C0F394F601F0823C
:100C800003C0E012EFCF92E0892F0F900F900F90EA
:100C9000DF91CF911F910F91FF90EF90DF90CF9058
:100CA000BF90AF900895FC01608B08951F93CF9380
:100CB000DF93EC01162F61E088890E94962261E0A3
:100CC00088890E94D2220E945C13612FCE010E946B
:100CD000CC0491E0811101C090E0892FDF91CF9188
:100CE0001F9108958F929F92AF92BF92DF92EF92E1
:100CF000FF920F931F93CF93DF931F92CDB7DEB771
:100D00007C01D62E480159016AE070E080E090E055
:100D100049830E94AA2460E8C7010E942B04182F6F
:100D20004981882329F06AE070E080E090E01AC0F1
:100D3000D11004C09501840160E206C081E0D812A0
:100D400006C09501840164E2C7010E941C0560E0B1
:100D5000C7010E942B04182F6AE070E080E090E049
:100D6000112321F00E94AA24812F03C00E94AA24EB
:100D700080E00F90DF91CF911F910F91FF90EF9046
:100D8000DF90BF90AF909F908F9008958F929F9229
:100D9000AF92BF92EF92FF920F931F93CF93DF9387
:100DA00000D0CDB7DEB77C01562F480159016AE06B
:100DB00070E080E090E04A8359830E94AA2460E8B2
:100DC000C7010E942B04182F4A815981882329F0DA
:100DD0006AE070E080E090E031C05230B1F040F461
:100DE000552379F05130F9F49501840164E018C07D
:100DF000543099F070F05530B1F49501840168E1F8
:100E00000FC09501840160E00BC09501840168E08A
:100E100007C09501840160E103C09501840164E18C
:100E2000C7010E941C0560E0C7010E942B04182F17
:100E30006AE070E080E090E0112321F00E94AA2493
:100E4000812F03C00E94AA2480E00F900F90DF91B1
:100E5000CF911F910F91FF90EF90BF90AF909F9017
:100E60008F900895CF92DF920F931F93FC01208300
:100E70004183528363837483093008F008E005835B
:100E80003696D60110E0CD018C199D098017910787
:100E90001CF48D918193F7CF80E01F910F91DF902B
:100EA000CF900895EF92FF920F931F93FC01208340
:100EB0004183528363837483093008F008E005831B
:100EC0003696D70110E0CD018E199F098017910742
:100ED0001CF48D918193F7CF80E01F910F91FF90CB
:100EE000EF900895FC011182128213821482158200
:100EF00010821686178680E00895CF92DF92EF92D7
:100F0000FF920F931F93CF93DF931F92CDB7DEB75E
:100F10007C016B0100E010E0BE016F5F7F4FC701F5
:100F20000E9414060F5F1F4F823021F40233110517
:100F300099F720C002331105E9F0A6016981C701C4
:100F40000E94BA056981C7010E940F0600E010E007
:100F50000F5F1F4F69816150C7010E94320383FFF9
:100F600004C002331105A1F707C00233110521F0B7
:100F700080E003C086E001C087E00F90DF91CF9151
:100F80001F910F91FF90EF90DF90CF900895AF9257
:100F9000BF92CF92DF92EF920F93CF935C01C02F5D
:100FA0000E2DEC2E0E9432076C2F70E0C501CF9100
:100FB0000F91EF90DF90CF90BF90AF900C947D0792
:100FC000EF92FF920F93CF93DF93EC010E945207B1
:100FD00060E070E0CE01DF91CF910F91FF90EF9034
:100FE0000C947D07CF93DF93EC010E94130480FFE4
:100FF00007C061E6CE010E94E50520E041E008C09F
:1010000081FF0CC061E7CE010E94E50520E042E0CF
:101010006CE2CE010E94E80380E001C084E0DF9131
:10102000CF910895EF92FF920F931F93CF93DF9389
:10103000EC018B017A010E94F207811111C09D81A0
:10104000F8019083DE011696F7012D8130E0BF0193
:101050006E197F09621773072CF49D919193F5CF58
:10106000F8011082DF91CF911F910F91FF90EF90C7
:101070000895CF92DF92EF92FF920F931F93CF9339
:10108000DF9300D0CDB7DEB76C017B018A012983E5
:101090003A830E94F20729813A81811123C0F60127
:1010A0009581F8019083F6014181528163817481B9
:1010B000F7014083518362837383D6011696B90189
:1010C00020E030E0F601458150E02417350764F454
:1010D0002830310549F09D91FB019193BF012F5FAD
:1010E0003F4FF0CFF80110820F900F90DF91CF911A
:1010F0001F910F91FF90EF90DF90CF9008950E9485
:101100001304837011F484E0089583E008956DE280
:101110000E943203887F09F085E00895FC01618117
:101120007281838194810895FC0186850895FC0174
:101130008081089540E052EC61E070E083E796E042
:101140000E9406156EE075E083E796E00C943C176C
:10115000CF93DF93EC0160E1CE010E945606882315
:1011600069F062E370E080E090E00E94AA2460E20F
:1011700075E083E796E00E943C17EDCF63E375E0EE
:1011800083E796E0DF91CF910C943C17CF93DF93E8
:1011900061157105F1F0EB0121E1FB0111922A9536
:1011A000E9F7F8949B01275F3F4FAB014C5F5F4F1E
:1011B0000E943908811109C00E9479246D837E83C1
:1011C0008F83988780E090E002C081E090E078947F
:1011D00002C082E090E0DF91CF9108951F920F92BC
:1011E0000FB60F9211242F933F934F935F936F93FA
:1011F0007F938F939F93AF93BF93EF93FF93E09170
:101200002206F09123060995FF91EF91BF91AF91CE
:101210009F918F917F916F915F914F913F912F910E
:101220000F900FBE0F901F9018951F920F920FB640
:101230000F9211242F933F934F935F936F937F935C
:101240008F939F93AF93BF93EF93FF93E09120060B
:10125000F09121060995FF91EF91BF91AF919F9178
:101260008F917F916F915F914F913F912F910F904F
:101270000FBE0F901F901895CF92DF92EF92FF92C2
:10128000CF93DF936B017C01EA01F8941092800008
:1012900010928100109285001092840020E030E0CE
:1012A00040E857E40E94A6279B01AC0160E074E28D
:1012B00084E79BE40E9447260E94C026613021E01B
:1012C00072078105910550F08091810085608093BF
:1012D000810060E074E080E090E036C06134710528
:1012E0008105910550F08091810084608093810098
:1012F00060E071E080E090E027C069307105810511
:10130000910550F08091810083608093810060E4BA
:1013100070E080E090E018C06230710581059105B1
:1013200050F08091810082608093810068E070E0DD
:1013300080E090E009C0809181008160809381000D
:1013400061E070E080E090E00E94EF269B01AC013C
:10135000C701B6010E94A6279B01AC0160E074E2C0
:1013600084E79BE40E94472620E030E040E85FE30A
:101370000E94D5250E94C0266115710521E08207D3
:10138000910550F4611571058105910549F461E0FD
:1013900070E080E090E004C06FEF7FEF80E090E0CD
:1013A00070938900609388008091810088608093A9
:1013B000810080916F00826080936F00D09323063C
:1013C000C09322067894DF91CF91FF90EF90DF9049
:1013D000CF900895CF92DF92EF92FF92CF93DF9359
:1013E0006B017C01EA01F8941092B0001092B100F8
:1013F0001092B20020E030E040E853E40E94A627BB
:101400009B01AC0160E074E284E79BE40E94472604
:101410000E94C026613021E072078105910550F0DD
:101420008091B10087608093B10060E074E080E05B
:1014300090E054C0613871058105910550F08091AC
:10144000B10086608093B10060E071E080E090E0E0
:1014500045C0613471058105910550F08091B1005E
:1014600085608093B10060E870E080E090E036C075
:10147000613271058105910550F08091B100846061
:101480008093B10060E470E080E090E027C06930B4
:1014900071058105910550F08091B10083608093C2
:1014A000B10060E270E080E090E018C06230710549
:1014B0008105910550F08091B10082608093B10068
:1014C00068E070E080E090E009C08091B100816048
:1014D0008093B10061E070E080E090E00E94EF2630
:1014E0009B01AC01C701B6010E94A6279B01AC017C
:1014F00060E074E284E79BE40E94472620E030E04D
:1015000040E85FE30E94D5250E94C0266F3F710529
:101510008105910509F050F461157105810591056A
:1015200049F461E070E080E090E004C06FEF70E0AB
:1015300080E090E06093B3008091B100826080937E
:10154000B10080917000826080937000D09321067A
:10155000C09320067894DF91CF91FF90EF90DF90B9
:10156000CF900895CF92DF92EF92FF920F931F9347
:10157000CF93DF937C018B01EA0169010E944C0E3D
:10158000081719070CF085C0C7010E94500EC81734
:10159000D9070CF07EC017FD7CC0D7FD7AC0C7010B
:1015A0000E94490E823009F068C0F701648175819C
:1015B000AB01401B510B8A01015011094681578133
:1015C000CA018C1B9D0BEC0121970CC0813051F49A
:1015D000C8019927F701048115810C1B1D0B0150CF
:1015E0001109EC01CA94CD2819F5FE01D7FD3796F3
:1015F00023E0F595E7952A95E1F7F695FE2FEE277E
:10160000F795E7950E0F1F1FF801E050FF4FCE0131
:1016100068E070E00E94182821E030E0A90102C0D3
:10162000440F551F8A95E2F7CA019081892B23C088
:10163000FE01D7FD379683E0F595E7958A95E1F7AA
:10164000F695FE2FEE27F795E7950E0F1F1FF80171
:10165000E050FF4FCE0168E070E00E94182821E0C2
:1016600030E0A90102C0440F551F8A95E2F7CA0174
:1016700080959081892380830CC0833009F0A6CFA8
:10168000F70186819781801B91098E01EC012197DA
:10169000A9CFDF91CF911F910F91FF90EF90DF9035
:1016A000CF90089580E094E0E0E0F1E0DF019C015C
:1016B0001D9221503040E1F70895CF9361E085E01D
:1016C0000E94D22261E070E080E090E00E94AA24B3
:1016D00060E085E00E94D22261E070E080E090E06E
:1016E0000E94AA2460E08DE00E94D22261E070E0B6
:1016F00080E090E00E94AA2480E00E94DE21C82FB2
:1017000061E070E080E090E00E94AA2461E08DE05A
:101710000E94D22261E070E080E090E00E94AA2462
:1017200061E085E00E94D22261E070E080E090E01C
:101730000E94AA248C2F80958170CF910895CF9319
:10174000DF93EC01988D9F789061988F60E084E042
:101750000E94D22261E070E080E090E00E94AA2422
:10176000888D0E94DE2161E070E080E090E00E94C0
:10177000AA2461E084E00E94D22261E070E080E06F
:1017800090E00E94AA2460E084E0DF91CF910C9465
:10179000D222CF93DF93EC01988D9F789062988F3F
:1017A00060E084E00E94D22261E070E080E090E09E
:1017B0000E94AA24888D0E94DE2161E070E080E012
:1017C00090E00E94AA2461E084E00E94D22261E0BD
:1017D00070E080E090E00E94AA2460E084E0DF9165
:1017E000CF910C94D222CF93DF93EC01988D9F7808
:1017F0009064988F60E084E00E94D22261E070E003
:1018000080E090E00E94AA24888D0E94DE2161E0A1
:1018100070E080E090E00E94AA2461E084E00E94F1
:10182000D22261E070E080E090E00E94AA2460E0B3
:1018300084E0DF91CF910C94D222CF93DF93EC011F
:10184000888D8F78888F60E084E00E94D22261E0EA
:1018500070E080E090E00E94AA24888D0E94DE2142
:1018600061E070E080E090E00E94AA2461E084E002
:101870000E94D22261E070E080E090E00E94AA2401
:1018800060E084E0DF91CF910C94D222CF93DF937C
:10189000EC01888D60FB87F9888F60E084E00E940E
:1018A000D22261E070E080E090E00E94AA24888D5E
:1018B0000E94DE2161E070E080E090E00E94AA24B6
:1018C00061E084E00E94D22261E070E080E090E07C
:1018D0000E94AA2460E084E0DF91CF910C94D22290
:1018E000CF93DF93EC01888D60FB83F9888F60E0F4
:1018F00084E00E94D22261E070E080E090E00E94EB
:10190000AA24888D0E94DE2161E070E080E090E0F2
:101910000E94AA2461E084E00E94D22261E070E08B
:1019200080E090E00E94AA2460E084E0DF91CF9103
:101930000C94D222CF93DF93EC0160E00E94460C1E
:1019400060E08F89DF91CF910C94D222CF93DF9307
:10195000EC0161E08F890E94D22261E0CE01DF912B
:10196000CF910C94460CCF93DF93EC010E945C1353
:1019700080E00E947F1384E00E94841361E084E091
:101980000E94962261E085E00E94962261E08F89A4
:101990000E94962260E084E00E94D22261E085E00D
:1019A0000E94D22261E08F890E94D22261E0CE01A2
:1019B0000E94700C61E070E080E090E00E94AA2438
:1019C00060E0CE010E94700C6AE070E080E090E080
:1019D0000E94AA2461E0CE010E94700C64EF71E0C5
:1019E00080E090E00E94AA24CE010E949A0C8EEA28
:1019F0000E94DE2183EB0E94DE2181EF0E94DE2126
:101A000088EA0E94DE218FE30E94DE2182EA0E94A2
:101A1000DE218CE40E94DE2181EA0E94DE2180E04A
:101A20000E94DE218DEA0E94DE2182E00E94DE21FA
:101A300080EA0E94DE2186E50E94DE2185E80E9480
:101A4000DE2188EB0E94DE2181E00E94DE2181E11F
:101A50000E94DE2182E20E94DE2182E30E94DE21DA
:101A600083E40E94DE2184E50E94DE2185E60E9457
:101A7000DE2186E70E94DE2181E80E94DE218FE7D9
:101A80000E94DE2182EB0E94DE2181E50E94DE21A0
:101A900081EB0E94DE2185E50E94DE2184EB0E941D
:101AA000DE2182E00E94DE2180EB0E94DE2188E2BE
:101AB0000E94DE218EEB0E94DE218CE10E94DE215D
:101AC0008FEB0E94DE218FE00E94DE2184EA0E94DB
:101AD000DE2185E10E94DE2180E00E94DE218FE38D
:101AE0000E94DE2185E70E94DE2180E00E94DE2147
:101AF0008FE30E94DE218FEA0E94DE21CE01DF917A
:101B0000CF910C94A60CCF93DF93EC0161E00E947F
:101B1000460C60E08F89DF91CF910C94D222CF9355
:101B2000DF93EC0161E08F890E94D22260E0CE0158
:101B3000DF91CF910C94460C8F929F92AF92BF92FF
:101B4000CF92DF92EF92FF920F931F93CF93DF9389
:101B50005C010E94830D80E0E82E81E0F82E00E019
:101B600010E0F701E00FF11FC0808180C0E0D0E0FD
:101B7000D12C912C8C2F96010C2E02C035952795D7
:101B80000A94E2F720FF02C090EF01C090E09401B8
:101B900002C0359527958A95E2F720FD9F60892F31
:101BA0000E94DE212196C830D10521F700581F4F31
:101BB000011584E01807A9F692E0E90EF11C80E80F
:101BC000E81681E0F80659F6C501DF91CF911F9123
:101BD0000F91FF90EF90DF90CF90BF90AF909F90CC
:101BE0008F900C948F0D0895DC01ED91FC91048091
:101BF000F581E02D09940895FC016370658B848163
:101C0000958126813781613039F0633029F09187E1
:101C1000808733872287089531872087938782873B
:101C20000895FC011382128288E595E091838083F8
:101C300075836483578346837187608753874287A0
:101C4000158A158614861786168681E0848B8FEF99
:101C50009FEF938B828B918B808B168A0895FC016A
:101C600075876487578746870895FC018485958525
:101C70000895FC01868597850895FC01738B628B1E
:101C8000718B608B0895FC01718B608B538B428B41
:101C90000895FC0185890895FC018085918508954A
:101CA000FC018285938508952F923F924F925F9217
:101CB0006F927F928F929F92AF92BF92CF92DF925C
:101CC000EF92FF920F931F93CF93DF9300D01F9259
:101CD000CDB7DEB74C017B836A836A0159011701D6
:101CE0009801241B350B37FF03C03195219531092D
:101CF000C5014A815B81841B950B97FF03C09195B9
:101D00008195910951E059838217930714F0198244
:101D10000BC09A2D8B2D5801092F182F9A818B817A
:101D2000DB82CA82C92ED82E8A819B81A816B90669
:101D30005CF49C2D8D2D6801092F182F9A818B81C1
:101D4000BB82AA82A92EB82E2501AA81BB814A1A7C
:101D50005B0A38016C187D0877FE03C071946194AA
:101D60007108720157FE03C0BFEFEB1AFB0AF5942E
:101D7000E794C016D1061CF00FEF1FEF1FC001E063
:101D800010E01CC0D401ED91FC91B9810084F18573
:101D9000E02D9101BB23C1F04A815B81B601C401F2
:101DA0000995E618F708F7FE04C0C00ED11EE40C32
:101DB000F51CEA81FB813196FB83EA834A815B81D2
:101DC000A416B506FCF604C0A6016A817B81E7CFA4
:101DD0000F900F900F90DF91CF911F910F91FF9077
:101DE000EF90DF90CF90BF90AF909F908F907F90BB
:101DF0006F905F904F903F902F9008952F923F9259
:101E00004F925F926F927F928F929F92AF92BF920A
:101E1000CF92DF92EF92FF920F931F93CF93DF93B6
:101E200000D01F92CDB7DEB7622EDC0118962D913F
:101E30003C911997621773070CF094C01A962D9174
:101E40003C911B97421753070CF08CC09B01B6E0E6
:101E5000CB9E200D311D1124121613060CF082C0EA
:101E60009A01E8E0CE9E200D311D112412161306B2
:101E70000CF078C0C9825A014B016C01DC01ED9174
:101E8000FC910680F781E02D0995B5E06B9E30014D
:101E900011242401E5E04E0E511C9B828A826818B1
:101EA0007908EA81FB81E60DF71DE457FF4F349076
:101EB000450188E0282E30FE0BC0F981F130D1F4C5
:101EC000D601ED91FC910084F185E02D98010DC0C3
:101ED000E016F10679F0B981B13061F4D601ED91E7
:101EE000FC910084F185E02D9701A4016A817B813A
:101EF000C601099536942A94BFEF8B1A9B0A2110CC
:101F0000DACFEA81FB813196FB83EA83E415F5059C
:101F100041F6E016F10649F08501095F1F4F9F0168
:101F2000A501BF01C6010E94540ED601ED91FC919E
:101F30000284F385E02DC6010F900F900F90DF9182
:101F4000CF911F910F91FF90EF90DF90CF90BF90B6
:101F5000AF909F908F907F906F905F904F903F9049
:101F60002F9009940F900F900F90DF91CF911F91B8
:101F70000F91FF90EF90DF90CF90BF90AF909F9028
:101F80008F907F906F905F904F903F902F9008952B
:101F9000CF92EF92FF920F931F93CF93DF93FC01A9
:101FA0006A3069F41586148624898685978538E019
:101FB000239F800D911D11249787868735C06D3032
:101FC00099F186898823C1F024898485958536E036
:101FD000239F800D911D1124408551854817590775
:101FE0005CF4158614868685978538E0239F800DDE
:101FF000911D112497878687262FEF01E288F388A9
:10200000008911894685578564857585C488CF0107
:102010000E94FE0E2C898C859D8536E0239F800DC5
:10202000911D11249D878C8781E090E0DF91CF91F5
:102030001F910F91FF90EF90CF9008958EE0E4E212
:10204000F6E0DF011D928A95E9F708950E949A084B
:1020500064E775E083E796E00E943C170E946D11EB
:1020600061E875E083E796E00E94F1168CE596E062
:102070000E94A80861E975E083E796E00E94F116E6
:102080008BE496E00C94A808CF93DF93CDB7DEB72E
:1020900061970FB6F894DEBF0FBECDBFBE016F5F74
:1020A0007F4F8BE496E00E94C608892B09F084C01C
:1020B00089819A81AB81BC8183379105A105B105E6
:1020C00031F58C85813019F481E090E002C082E026
:1020D00090E090932706809326068E85882331F022
:1020E00023E030E0309327062093260680FF04C0CB
:1020F00091E090932C0602C010922C0681FF04C040
:1021000081E080932D0658C010922D0655C083386B
:102110009105A105B10531F58C85813019F481E077
:1021200090E002C082E090E0909329068093280618
:102130008E85882331F023E030E030932906209308
:10214000280680FF04C091E090932E0602C01092F2
:102150002E0681FF04C081E080932F062DC01092CF
:102160002F062AC083399105A105B10529F58C8573
:10217000813019F481E090E002C082E090E0909319
:102180002B0680932A068E85882331F023E030E0E9
:1021900030932B0620932A0680FF04C091E0909391
:1021A000300602C01092300681FF04C081E08093A7
:1021B000310602C01092310661960FB6F894DEBF68
:1021C0000FBECDBFDF91CF910895EF92FF920F9395
:1021D000CF93DF93CDB7DEB761970FB6F894DEBF2C
:1021E0000FBECDBFBE016F5F7F4F8CE596E00E94B2
:1021F000C608892B21F589819A81AB81BC81803BFE
:1022000022E09207A105B10559F0803B24E0920736
:10221000A105B10529F080329240A105B10579F4FC
:10222000F89449815A816B817C81CE010A967C01A8
:1022300001E120E08BE496E00E94E007789461964B
:102240000FB6F894DEBF0FBECDBFDF91CF910F91D7
:10225000FF90EF900895CF93DF93FC01EE0FFF1FE7
:10226000EA5FFA4FC081D1810397B1F441E050E0B9
:1022700060E070E082E396E00E94430EBE0182E3DC
:1022800096E00E94F11640E050E061E070E082E3E9
:1022900096E00E94430E05C0BE0182E396E00E94D4
:1022A000F11665EA75E082E396E0DF91CF910C9438
:1022B000F116CF93DF93EC010A9730F468EA75E0EA
:1022C00082E396E00E94F1164AE050E0BE0182E30C
:1022D00096E0DF91CF910C946D18F89482E396E02C
:1022E0000E94B30C82E396E00E94520B82E396E0D8
:1022F0000E949C0D78940895CF93DF934EE050E0B8
:1023000064E070E082E396E00E942F0EC4E0D0E02B
:1023100021E030E04EE050E0BE0182E396E00E9412
:10232000B20A2196CE37D10599F7DF91CF91089562
:102330000F931F93CF93DF93F8944091260650910B
:1023400027064330510571F0209128063091290667
:102350002330310539F080912A0690912B06833085
:10236000910529F482E396E00E949F0B6AC04230F7
:10237000510509F057C022303105A1F7029791F7B6
:1023800080917206882339F10E94792400916E06AB
:1023900010916F062091700630917106DC01CB011F
:1023A000801B910BA20BB30B853F9140A105B1059A
:1023B00008F447C082E396E00E94C90B0E9479248A
:1023C00060936E0670936F0680937006909371060B
:1023D0001092720636C00E94792400916E06109108
:1023E0006F062091700630917106DC01CB01801BD5
:1023F000910BA20BB30B893E9340A105B10508F1E7
:1024000082E396E00E941D0C0E94792460936E0680
:1024100070936F06809370069093710681E08093AD
:1024200072060FC04130510509F09CCF21303105B3
:1024300009F098CF019709F095CF82E396E00E94CA
:10244000F30B44E050E064E070E082E396E00E9429
:102450002F0E40E050E061E070E082E396E00E94E1
:10246000430E82E396E00E945D0B282F80916D065B
:10247000281779F0222369F080912406909125068F
:10248000019662E070E00E941828909325068093E0
:10249000240620936D0680912406909125060097CE
:1024A00009F051C082E396E00E94520B44E050E0F4
:1024B00064E070E082E396E00E942F0E6AEA75E025
:1024C00082E396E00E94F1160E947C1142E150E006
:1024D00064E070E082E396E00E942F0E61EB75E00D
:1024E00082E396E00E94F1168091260690912706DD
:1024F0000E942B114EE150E064E070E082E396E030
:102500000E942F0E6CEB75E082E396E00E94F116BC
:1025100080912806909129060E942B114AE250E0F2
:1025200064E070E082E396E00E942F0E67EC75E0B5
:1025300082E396E00E94F11680912A0690912B0684
:102540000E942B117DC0019709F0A8C082E396E09C
:102550000E94520B44E050E064E070E082E396E0B9
:102560000E942F0E62ED75E082E396E00E94F11664
:102570000E947C118091260690912706039739F0DE
:102580008091280690912906039751F530C042E1C9
:1025900050E064E070E082E396E00E942F0E02E1DA
:1025A00010E0C0E0D0E0FE01EC5DF94F80858823AB
:1025B00091F0A80164E070E082E396E00E942F0EA3
:1025C00067ED75E082E396E00E94F116CE010E946D
:1025D0005911045F1F4F219799F2C1E0D0E0E3CF7A
:1025E00080912A0690912B06039751F52EC042E167
:1025F00050E06EE270E082E396E00E942F0E02E16E
:1026000010E0C0E0D0E0FE01EC5DF94F8285882348
:1026100091F0A8016EE270E082E396E00E942F0E36
:102620006BED75E082E396E00E94F116CE010E9408
:102630005911045F1F4F219799F2C1E0D0E0E3CF19
:1026400082E396E00E949C0D29C042E150E068E5DB
:1026500070E082E396E00E942F0E02E110E0C0E0FD
:10266000D0E0FE01EC5DF94F8485882391F0A8014C
:1026700068E570E082E396E00E942F0E6FED75E052
:1026800082E396E00E94F116CE010E945911045F88
:102690001F4F2197A9F2C1E0D0E0E3CF7894DF91FA
:1026A000CF911F910F91089548E951E160E070E0EA
:1026B00080E890E40C943C0961E08AE00E94D22218
:1026C00061E08AE00E9496228CB580618CBD8CB559
:1026D00080648CBD61E08DE00E94962261E08BE019
:1026E0000C9496228CB58F7B8CBD0895811103C00C
:1026F0008CB5806202C08CB58F7D8CBD08959CB571
:10270000937F892B8CBD08959CB5282F23709C7FC7
:10271000922B9CBD2DB582FB992790F9822F8E7F3D
:10272000892B8DBD08950C9402230C9402230C94E4
:1027300097230C949723FC0181E090E020812223D1
:1027400011F080E090E0089521E0FC0120830895DD
:1027500008950895FC0124853585F901E05CFF4F5B
:1027600080819181329620813181821B930B8F73FE
:1027700099270895DC011C96ED91FC911D97DF01CE
:10278000A05CBF4F2D913C91119712968D919C9119
:1027900011972817390739F08D919C91E80FF91F8F
:1027A000808190E008958FEF9FEF0895FC01A4854C
:1027B000B585FD01E05CFF4F20813181329680813B
:1027C00091812817390779F080819181A80FB91F6D
:1027D0008C91208131812F5F3F4F2F7333273183BD
:1027E000208390E008958FEF9FEF0895FC0181A171
:1027F000882329F0A489B5898C9186FFFBCF11A28B
:1028000008950F931F93CF93DF93FC01A685B7859F
:102810008D01005C1F4FE8018881998101968F73BB
:102820009927AD014E5B5F4FEA01288139818217FC
:102830009307D1F3E80128813981A20FB31F6C936C
:10284000A685B785A05CBF4F11969C938E93A689F1
:10285000B7892C9181E090E0078C02C0880F991F06
:102860000A94E2F7822B8C9381E081A30488F58996
:10287000E02D80818064808381E090E0DF91CF91C2
:102880001F910F91089508951F920F920FB60F9206
:1028900011242F934F935F938F939F93EF93FF9305
:1028A0008091C00082FD1CC02091C6008091190754
:1028B00090911A0701968F73992740911B075091A9
:1028C0001C078417950771F0E0911907F0911A071A
:1028D000E752F94F208390931A078093190702C09B
:1028E0008091C600FF91EF919F918F915F914F91E1
:1028F0002F910F900FBE0F901F90189583E796E0D1
:102900000E94AA13892B11F00C94431408951F926E
:102910000F920FB60F9211242F933F938F939F9393
:10292000EF93FF932091D5063091D6068091D7067C
:102930009091D8062817390731F48091C1008F7D16
:102940008093C10014C0E091D706F091D806EB56F1
:10295000F94F20818091D7069091D80601968F7308
:1029600099279093D8068093D7062093C600FF91AD
:10297000EF919F918F913F912F910F900FBE0F90EC
:102980001F9018958F929F92AF92BF92CF92DF9235
:10299000EF92FF920F931F93CF93DF93CDB7DEB7E4
:1029A000FC011382128288EE93E0A0E0B0E0848301
:1029B0009583A683B78386E096E0918380837587AD
:1029C000648757874687318B208B138B028BF58A60
:1029D000E48AD78AC68AB18EA08E938E828E8F8526
:1029E000848F8889858F8989868F8A89878F8B894B
:1029F00080A3DF91CF911F910F91FF90EF90DF9017
:102A0000CF90BF90AF909F908F900895CF92DF921C
:102A1000EF92FF920F931F93CF93DF93EC016A0124
:102A20007B014115514E6105710509F1EC89FD8964
:102A300081E090E008A002C0880F991F0A94E2F795
:102A4000808360E079E08DE390E0A70196010E9429
:102A50002C2889019A010150110921093109369563
:102A6000279517950795980101151041A8F0EC8955
:102A7000FD89108260E874E88EE190E0A70196017C
:102A80000E942C28DA01C9010197A109B109B69564
:102A9000A795979587959C01E889F9893083EA89FC
:102AA000FB89208319A2EE89FF89408181E090E0B3
:102AB0009C010C8C02C0220F331F0A94E2F7242BD6
:102AC0002083EE89FF8940819C010D8C02C0220F7A
:102AD000331F0A94E2F7242B2083EE89FF8940817B
:102AE0009C010E8C02C0220F331F0A94E2F7242BA4
:102AF0002083EE89FF8920810F8C02C0880F991FE7
:102B00000A94E2F7809582238083DF91CF911F9111
:102B10000F91FF90EF90DF90CF900895CF92DF92CA
:102B2000EF92FF921F93CF93DF93EC016A017B0139
:102B3000122F4115514E6105710509F1EC89FD898E
:102B400081E090E008A002C0880F991F0A94E2F784
:102B5000808360E079E08DE390E0A70196010E9418
:102B60002C28DA01C9010197A109B109B695A795E9
:102B700097958795AC01411580E15807A8F0EC893D
:102B8000FD89108260E874E88EE190E0A70196016B
:102B90000E942C28BA01A90141505109610971090B
:102BA0007695679557954795E889F9895083EA891D
:102BB000FB894083E88DF98D1083EE89FF89408180
:102BC00081E090E09C010C8C02C0220F331F0A941C
:102BD000E2F7242B2083EE89FF8940819C010D8C34
:102BE00002C0220F331F0A94E2F7242B2083EE89C0
:102BF000FF8940819C010E8C02C0220F331F0A9472
:102C0000E2F7242B2083EE89FF8920810F8C02C0FC
:102C1000880F991F0A94E2F7809582238083DF91C1
:102C2000CF911F91FF90EF90DF90CF900895CF93B9
:102C3000DF93FC0186859785EC01C05CDF4FDC01EA
:102C4000AE5BBF4F288139818D919C9111972817D8
:102C50003907C1F7A689B7893C9181E090E0AC01C2
:102C6000048C02C0440F551F0A94E2F7242F2095CC
:102C700023232C93A689B7893C91AC01058C02C013
:102C8000440F551F0A94E2F7242F209523232C93F9
:102C9000A689B7893C91AC01068C02C0440F551F30
:102CA0000A94E2F7242F209523232C93A689B78931
:102CB0002C91078C02C0880F991F0A94E2F7809527
:102CC00082238C9384859585FC01EE5BFF4F2081E8
:102CD0003181329731832083DF91CF91089581E054
:102CE0000895CF92DF92EF92FF920F931F93CF93AD
:102CF000DF936C01EB017B01E40EF51E00E010E0B8
:102D0000CE15DF0561F06991D601ED91FC9101903E
:102D1000F081E02DC6010995080F191FF1CFC801F8
:102D2000DF91CF911F910F91FF90EF90DF90CF90A7
:102D30000895EF92FF920F931F93CF93DF937C013F
:102D4000FB0100E010E06491EF012196662361F041
:102D5000D701ED91FC910190F081E02DC70109951B
:102D6000080F191FFE01EFCFC801DF91CF911F910E
:102D70000F91FF90EF900895AF92BF92CF92DF92A4
:102D8000EF92FF920F931F93CF93DF936C017B0120
:102D9000C0E0D0E000E010E0D70114968D919C9146
:102DA0001597C817D90788F4D601ED91FC91A0803A
:102DB000B180BE01C7010E94D51E682FC601F50172
:102DC0000995080F191F2196E7CFC801DF91CF9110
:102DD0001F910F91FF90EF90DF90CF90BF90AF9039
:102DE00008950C945822DC01ED91FC910190F08142
:102DF000E02D0994DB01ED91FC9111970190F08198
:102E0000E02DBC01CD0109940F931F93CF93DF9365
:102E1000EC016DE00E94F3168C016AE0CE010E9485
:102E2000F316800F911FDF91CF911F910F9108959D
:102E30000F931F93CF93DF93EC010E9499168C019F
:102E4000CE010E940417800F911FDF91CF911F9137
:102E50000F9108950F931F93CF93DF93EC010E947E
:102E6000BC168C01CE010E940417800F911FDF91C8
:102E7000CF911F910F9108950F931F93CF93DF93DD
:102E8000EC010E9458228C01CE010E940417800F91
:102E9000911FDF91CF911F910F9108950F931F9371
:102EA000CF93DF93EC010E94F3168C01CE010E94B8
:102EB0000417800F911FDF91CF911F910F910895FB
:102EC0000F931F93CF93DF93EC010E94FA168C01AE
:102ED000CE010E940417800F911FDF91CF911F91A7
:102EE0000F9108958F929F92AF92BF92CF92DF92EF
:102EF000EF92FF920F931F93CF93DF93CDB7DEB77F
:102F0000A1970FB6F894DEBF0FBECDBF6C01142F92
:102F1000E52FCB01022F19A2223008F40AE07E012E
:102F200021E2E20EF11C802E912CA12CB12C612FFC
:102F30007E2FA50194010E942C28029F10191124B4
:102F400081E0E81AF1081A3014F4105D01C0195C30
:102F5000F7011083122FE32FCA01232B242B252BDB
:102F600031F7B701C6010E945822A1960FB6F89416
:102F7000DEBF0FBECDBFDF91CF911F910F91FF90AC
:102F8000EF90DF90CF90BF90AF909F908F9008957B
:102F9000CF92DF92EF92FF920F931F93CF93DF9325
:102FA000EC016A017B012115310579F4E881F98191
:102FB0000190F081E02D642FDF91CF911F910F914F
:102FC000FF90EF90DF90CF9009942A303105E9F41B
:102FD00077FF1AC06DE20E94F3168C014427552733
:102FE000BA014C195D096E097F092AE0CE010E94E1
:102FF0007217800F911FDF91CF911F910F91FF905A
:10300000EF90DF90CF9008952AE0B701A601CE019E
:10301000DF91CF911F910F91FF90EF90DF90CF90B4
:103020000C9472179A01AB01770F660B770B0C9417
:10303000C8170F931F93CF93DF93EC019A01AB0155
:10304000770F660B770B0E94C8178C01CE010E9488
:103050000417800F911FDF91CF911F910F91089559
:103060000F931F93CF93DF93EC010E94C8178C013D
:10307000CE010E940417800F911FDF91CF911F9105
:103080000F9108952115310541F4DC01ED91FC917A
:103090000190F081E02D642F09940C9472179A012D
:1030A000462F50E060E070E00C9442180F931F939D
:1030B000CF93DF93EC019A01462F50E060E070E07F
:1030C0000E9442188C01CE010E940417800F911FAC
:1030D000DF91CF911F910F9108959A01AB0160E0AC
:1030E00070E00C9442180F931F93CF93DF93EC0181
:1030F0009A01AB0160E070E00E9442188C01CE01A1
:103100000E940417800F911FDF91CF911F910F91A3
:1031100008950F931F93CF93DF93EC010E94421801
:103120008C01CE010E940417800F911FDF91CF9177
:103130001F910F9108954F925F926F927F928F929D
:103140009F92AF92BF92CF92DF92EF92FF92CF9376
:10315000DF93EC016A017B01B22E9A01AB01C7013A
:10316000B6010E941328882319F062E176E027C097
:1031700026013701E89477F82FEF3FEF4FE75FE73D
:10318000C301B2010E94132881110DC02FEF3FEF40
:103190004FE75FE7C301B2010E94422618161CF4F4
:1031A00066E176E00CC02FEF3FEF4FE75FE4C70129
:1031B000B6010E94A12718169CF46AE176E0CE01C0
:1031C000DF91CF91FF90EF90DF90CF90BF90AF90C5
:1031D0009F908F907F906F905F904F900C945822AB
:1031E0002FEF3FEF4FE75FECC701B6010E94422689
:1031F00087FDE3CF20E030E0A901C701B6010E94BE
:10320000422687FF0AC06DE2CE010E94F3164C01F0
:10321000F7FAF094F7F8F09402C0812C912CA12CCD
:1032200060E070E080E09FE3AB1441F020E030E02C
:1032300040E251E40E944726A394F6CF9B01AC01E3
:10324000C701B6010E94D6252B013C010E94C02671
:103250006B017C010E94EF269B01AC01C301B2010E
:103260000E94D5252B013C012AE0B701A601CE0121
:103270000E9472177C01E80CF91CBB2039F06EE14A
:1032800076E0CE010E945822E80EF91EDB2CDD20EC
:1032900039F120E030E040E251E4C301B2010E9484
:1032A000A6272B013C010E94B9264B01770FAA08E3
:1032B000BB082AE030E0B501A401CE010E94C81786
:1032C000E80EF91EC501B4010E94F1269B01AC0174
:1032D000C301B2010E94D5252B013C01DA94D7CF5E
:1032E000C701DF91CF91FF90EF90DF90CF90BF901B
:1032F000AF909F908F907F906F905F904F900895C8
:103300000C949B180F931F93CF93DF93EC010E94B3
:103310009B188C01CE010E940417800F911FDF9132
:10332000CF911F910F910895FC01DB011182108252
:10333000138212821582148216828D919C911197AC
:103340009183808312968D919C91139793838283AE
:1033500014968D919C9115979583848311961C9258
:103360001E9213961C921E92129715961C921E92F4
:1033700014970895FC01DB011182108213821282DE
:103380001582148216828D919C911197918380836E
:1033900012968D919C9113979383828314968D91AD
:1033A0009C9115979583848311961C921E92139677
:1033B0001C921E92129715961C921E9214970895B5
:1033C000FC01808191810C949723CF93DF93EC01D2
:1033D00088819981009711F00E94972319821882A1
:1033E0001D821C821B821A82DF91CF9108950F9358
:1033F0001F93CF93DF93EC018B016F5F7F4F888129
:1034000099810E940B25009731F0998388831B8353
:103410000A8381E001C080E0DF91CF911F910F917D
:103420000895CF93DF93EC0188819981892B29F04E
:103430008A819B818617970760F4CE010E94F71955
:10344000882341F08C819D81892B19F4E881F981D1
:10345000108281E0DF91CF910895EF92FF920F9358
:103460001F93CF93DF93EC017B018A01BA010E9485
:10347000111A811104C0CE010E94E51907C01D83F5
:103480000C83B701888199810E940E29CE01DF91BA
:10349000CF911F910F91FF90EF900895FC01118241
:1034A00010821382128215821482168261157105B0
:1034B00051F0FB0101900020E9F73197AF01461B65
:1034C000570B0C942D1A08950F931F93CF93DF93EE
:1034D0008C01EB01FC0180819181009799F0428180
:1034E00053812C813D814217530750F068817981C7
:1034F0000E940E298C819D81F8019583848313C0DD
:103500000E94972388819981F801918380838A8121
:103510009B81938382838C819D819583848319828F
:1035200018821B821A821D821C82DF91CF911F910B
:103530000F910895CF93DF93EC01FB018617970756
:1035400061F0608171816115710529F044815581B7
:103550000E942D1A02C00E94E519CE01DF91CF9181
:103560000895FC0111821082138212821582148246
:1035700016820C949A1ACF93DF93EC018617970763
:1035800011F00E94641ACE01DF91CF910895CF937C
:10359000DF93EC018617970711F00E94641ACE01A1
:1035A000DF91CF910895CF93DF93EC016115710501
:1035B00059F0FB0101900020E9F73197AF01461B5C
:1035C000570B0E942D1A02C00E94E519CE01DF910F
:1035D000CF910895CF93DF9300D0CDB7DEB7FC0134
:1035E00011821082138212821582148216826983DC
:1035F0001A82BE016F5F7F4F0E94D31A0F900F9007
:10360000DF91CF9108950F931F93CF93DF93CDB7A1
:10361000DEB729970FB6F894DEBF0FBECDBF8C0181
:10362000862FF80111821082138212821582148271
:10363000168250E0BE016F5F7F4F90E00E94C92963
:10364000BE016F5F7F4FC8010E94D31A29960FB643
:10365000F894DEBF0FBECDBFDF91CF911F910F91C8
:1036600008950F931F93CF93DF93CDB7DEB7629783
:103670000FB6F894DEBF0FBECDBF8C01CB01F801B1
:10368000118210821382128215821482168250E0F7
:10369000BE016F5F7F4F0E945729BE016F5F7F4F52
:1036A000C8010E94D31A62960FB6F894DEBF0FBE0F
:1036B000CDBFDF91CF911F910F9108950F931F936D
:1036C000CF93DF93CDB7DEB761970FB6F894DEBF27
:1036D0000FBECDBF8C01CB01F80111821082138285
:1036E000128215821482168250E0BE016F5F7F4FF6
:1036F0000E94C929BE016F5F7F4FC8010E94D31A83
:1037000061960FB6F894DEBF0FBECDBFDF91CF91AB
:103710001F910F9108950F931F93CF93DF93CDB710
:10372000DEB7A2970FB6F894DEBF0FBECDBF8C01F7
:10373000CB01BA01F8011182108213821282158224
:103740001482168230E0AE014F5F5F4F0E946D29F8
:10375000BE016F5F7F4FC8010E94D31AA2960FB6B9
:10376000F894DEBF0FBECDBFDF91CF911F910F91B7
:1037700008950F931F93CF93DF93CDB7DEB7A19733
:103780000FB6F894DEBF0FBECDBF8C01CB01BA01DE
:10379000F80111821082138212821582148216821D
:1037A00030E0AE014F5F5F4F0E949C29BE016F5F0A
:1037B0007F4FC8010E94D31AA1960FB6F894DEBFBE
:1037C0000FBECDBFDF91CF911F910F910895EF9262
:1037D000FF920F931F93CF93DF93FC0124813581D8
:1037E0006115710511F480E019C041155105A9F06A
:1037F0007B01EC018A01020F131FB8010E94111A0C
:10380000882389F3288139818C819D81B701820FBA
:10381000931F0E940E291D830C8381E0DF91CF91BD
:103820001F910F91FF90EF900895FB014481558106
:10383000608171810C94E71B6115710551F0FB01EA
:1038400001900020E9F73197AF01461B570B0C940C
:10385000E71B80E00895CF93DF9300D0CDB7DEB7AC
:1038600069831A8241E050E0BE016F5F7F4F0E9482
:10387000E71B0F900F90DF91CF910895EF92FF9289
:103880000F931F93CF93DF9300D000D0CDB7DEB757
:103890007C01862F4AE08E010F5F1F4FB80190E038
:1038A0000E946229F80101900020E9F73197AF01E9
:1038B000401B510BB801C7010E94E71B0F900F90EE
:1038C0000F900F90DF91CF911F910F91FF90EF908C
:1038D0000895EF92FF920F931F93CF93DF93CDB78D
:1038E000DEB727970FB6F894DEBF0FBECDBF7C01C1
:1038F000CB014AE08E010F5F1F4FB8010E94622981
:10390000F80101900020E9F73197AF01401B510BFE
:10391000B801C7010E94E71B27960FB6F894DEBFD7
:103920000FBECDBFDF91CF911F910F91FF90EF9010
:103930000895EF92FF920F931F93CF93DF9300D0E0
:1039400000D000D0CDB7DEB77C01CB014AE08E01BC
:103950000F5F1F4FB8010E94D429F8010190002089
:10396000E9F73197AF01401B510BB801C7010E9425
:10397000E71B26960FB6F894DEBF0FBECDBFDF91D2
:10398000CF911F910F91FF90EF900895EF92FF92CA
:103990000F931F93CF93DF93CDB7DEB72C970FB65E
:1039A000F894DEBF0FBECDBF7C01CB01BA012AE087
:1039B0008E010F5F1F4FA8010E947829F801019026
:1039C0000020E9F73197AF01401B510BB801C70147
:1039D0000E94E71B2C960FB6F894DEBF0FBECDBF3A
:1039E000DF91CF911F910F91FF90EF900895EF928B
:1039F000FF920F931F93CF93DF93CDB7DEB72B9733
:103A00000FB6F894DEBF0FBECDBF7C01CB01BA016B
:103A10002AE08E010F5F1F4FA8010E94A729F8011D
:103A200001900020E9F73197AF01401B510BB8011D
:103A3000C7010E94E71B2B960FB6F894DEBF0FBE9E
:103A4000CDBFDF91CF911F910F91FF90EF9008951F
:103A5000CF93DF93EC01FB0144815581608171813B
:103A60000E94E71B811103C0CE010E94E519CE011F
:103A7000DF91CF910895CF93DF93EC01611571052C
:103A800061F0FB0101900020E9F73197AF01461B7F
:103A9000570B0E94E71B811103C0CE010E94E5195C
:103AA000CE01DF91CF910895CF93DF93EC010E9477
:103AB0002B1C811103C0CE010E94E519CE01DF91BC
:103AC000CF910895CF93DF93EC010E943E1C8111AA
:103AD00003C0CE010E94E519CE01DF91CF91089578
:103AE000CF93DF93EC010E94691C811103C0CE01CA
:103AF0000E94E519CE01DF91CF910895CF93DF9316
:103B0000EC010E94991C811103C0CE010E94E519AD
:103B1000CE01DF91CF910895CF93DF93EC010E9406
:103B2000C61C811103C0CE010E94E519CE01DF91B0
:103B3000CF910895CF93DF93EC010E94F71C811180
:103B400003C0CE010E94E519CE01DF91CF91089507
:103B5000CF93DF93DC01ED91FC91EB01A881B9815A
:103B6000309711F01097C9F4109759F0EB012C81A0
:103B70003D81232B31F08C9190E0919581959109B5
:103B800014C0309781F0DC0114968D919C911597AB
:103B9000892B49F0808190E008C0BD01CF01DF9101
:103BA000CF910C94052980E090E0DF91CF910895AA
:103BB000FC0144815581FB01248135814217530763
:103BC00029F40E94A81D21E0892B09F020E0822F12
:103BD0000895FC0124813581232B31F421E0611506
:103BE0007105A1F0FB0108C0FC0180819181611584
:103BF000710531F421E0FC018081882339F005C092
:103C00000E94052921E0892B09F020E0822F0895E8
:103C10000E94A81D892F881F8827881F08950E9449
:103C2000A81D21E0181619060CF020E0822F089537
:103C30000E94A81D21E0181619060CF420E0822F1E
:103C400008950E94A81D892F8095881F8827881FA6
:103C50000895EF92FF920F931F93CF93DF938617F0
:103C6000970729F1FC0124813581FB0144815581AD
:103C700024173507F1F4232BD1F0DC01CD91DC9131
:103C8000008111818991882391F0082E000C990BF5
:103C90000E94CF287C01F80181918F01082E000C31
:103CA000990B0E94CF28E816F90661F302C081E063
:103CB00001C080E0DF91CF911F910F91FF90EF90B5
:103CC0000895DB011496ED91FC911597DC01149693
:103CD0002D913C9115972E1B3F0B24173507A0F013
:103CE0002D913C912115310579F0DB016D917C918D
:103CF0006115710549F0CA01AF01820F931F0E943F
:103D0000152921E0892B09F020E0822F0895FC017C
:103D100044815581FB01248135814217530720F0EE
:103D200040E050E00C94611E80E00895FC01248185
:103D30003581FB014481558124173507A0F0FC0132
:103D400080819181009779F0FB016081718161151B
:103D5000710549F0241B350B820F931F0E94052922
:103D600021E0892B09F020E0822F0895FC012481B5
:103D700035816217730730F480819181FC01E60F71
:103D8000F71F40830895FC01248135816217730772
:103D900020F480819181009729F410921D078DE114
:103DA00097E00895860F971F0895FC0124813581BF
:103DB0006217730748F480819181009729F0FC0114
:103DC000E60FF71F8081089580E008950C94D51EBA
:103DD0000F931F93CF93DF934115510519F161158F
:103DE000710501F1DC011496ED91FC9115972E17E8
:103DF0003F0718F0FB01108215C0E21BF30BEA012C
:103E00002197EC17FD0708F4EF018B01FC0160819D
:103E10007181620F731FAE01C8010E942329C00F78
:103E2000D11F1882DF91CF911F910F910895CF93E9
:103E3000DF93FC01248135814217530778F4C08158
:103E4000D181062E000C770BCE01840F951F0E94A6
:103E5000FA28009719F08C1B9D0B02C08FEF9FEF83
:103E6000DF91CF91089540E050E00C94171FCF935D
:103E7000DF93FC01248135814217530780F4FB0155
:103E8000DC01CD91DC9160817181CE01840F951FA1
:103E90000E943D29009719F08C1B9D0B02C08FEFEB
:103EA0009FEFDF91CF91089540E050E00C94371FD1
:103EB000DF92EF92FF920F931F93CF93DF93DC017A
:103EC00014962D913C9115974217530718F08FEFD8
:103ED0009FEF1DC08C01EA012196DC01ED91FC9160
:103EE0001197EC0FFD1FD0801082ED90FC90062EF4
:103EF000000C770BC7010E943229CE0DDF1DD8823E
:103F0000009729F3F80120813181821B930BDF9107
:103F1000CF911F910F91FF90EF90DF900895FC01DA
:103F200044815581415051090C94581FAF92BF9262
:103F3000CF92DF92EF92FF920F931F93CF93DF9375
:103F40007B018A01FB01448155814115510561F1D5
:103F5000FC01248135812115310531F12417350704
:103F600018F10217130718F0890101501109FC011B
:103F7000A080B180C501DFEFCFEF6501C00ED11E7B
:103F8000C816D906A0F0F701608171810E943D2911
:103F9000009769F09C012A193B090217130710F0DA
:103FA000D22FC32F0196ECCF8FEF9FEF02C08D2F42
:103FB0009C2FDF91CF911F910F91FF90EF90DF9099
:103FC000CF90BF90AF900895FC0144815581FB01D3
:103FD00024813581421B530B0C94961FBF92CF92C4
:103FE000DF92EF92FF920F931F93CF93DF937C01A9
:103FF0006B018A01E9012417350720F4812F89011B
:10400000C42FD82F67EA75E0C7010E944E1AD60167
:1040100014968D919C91159780179107D0F08C176D
:104020009D0708F4EC01D601ED91FC911197EC0F7E
:10403000FD1FB08010824D915C91BA01600F711F1D
:10404000C7010E94D31AD601ED91FC91EC0FFD1F20
:10405000B082C701DF91CF911F910F91FF90EF9038
:10406000DF90CF90BF900895CF93DF93EC01FB01D9
:10407000248135810E94EE1FCE01DF91CF910895FA
:10408000DC01ED91FC91309729F40895861301C06D
:104090004083319680818111F9CF08952F923F920C
:1040A0004F925F926F927F928F929F92AF92BF9248
:1040B000CF92DF92EF92FF920F931F93CF93DF93F4
:1040C000FC01448055804114510409F4D2C0FB0125
:1040D000648075806114710409F4CBC07A016B01AE
:1040E0008C01FA01A480B580A618B708FC01C08134
:1040F000D181A114B104C1F4F60160817181CE01B6
:104100000E943D29EC01892B09F4B3C0F7016081BD
:10411000718144815581CE010E94DF28F70184819D
:104120009581C80FD91FE8CFB7FE02C04E0105C068
:10413000FB0120803180420143C0F6016081718122
:10414000C4010E943D292C01892B21F132016818FC
:104150007908A301B401CE010E94DF28C60DD71D46
:10416000F7016081718144815581CE010E94DF2871
:10417000F70184819581C80FD91FF601848095804D
:10418000840C951CF801848195818A0D9B1D958373
:104190008483D3CFB401CE01DF91CF911F910F91D2
:1041A000FF90EF90DF90CF90BF90AF909F908F9057
:1041B0007F906F905F904F903F902F900C940E29BE
:1041C000B101CE010E943D29009731F0EC01C60DEE
:1041D000D71D8A0C9B1CF4CF8414950409F449C0A4
:1041E000F801828193818815990530F4B401C801E2
:1041F0000E94F7198823E9F1F80144815581415063
:10420000510957FD36C0B601C8010E94961FEC0146
:1042100097FD2FC0F80180819181F60124813581BD
:104220002C0F3D1F820F931FF80144815581421BC3
:10423000530BBC018A0D9B1D0E94E828F801848164
:1042400095818A0D9B1D9583848320813181F9019D
:10425000E80FF91F1082F80180819181F7016081D8
:104260007181448155818C0F9D1F0E94DF28AE0112
:10427000C6CFDF91CF911F910F91FF90EF90DF900C
:10428000CF90BF90AF909F908F907F906F905F90F6
:104290004F903F902F900895CF93DF93FC01C08102
:1042A000D181209751F08881882339F0082E000CA5
:1042B000990B0E94CF288993F6CFDF91CF91089573
:1042C000CF93DF93FC01C081D181209751F0888189
:1042D000882339F0082E000C990B0E94D728899367
:1042E000F6CFDF91CF910895AF92BF92CF92DF9238
:1042F000EF92FF920F931F93CF93DF93DC01CD904A
:10430000DC901197C114D10409F442C01496CD91E8
:10431000DC9115972097E1F18C0156017501BFEFF3
:10432000AB1ABB0AF7018081082E000C990B0E9482
:10433000C628892B99F72197CC0DDD1D8881082E81
:10434000000C990B0E94C628892B91F4AE014F5F97
:104350005F4F4E195F09D80115965C934E931497E1
:10436000CE14DF0450F4B701C6010E94DF2805C057
:10437000CE15DF0558F32197E1CFD801ED91FC91DF
:10438000119714968D919C911597E80FF91F108243
:10439000DF91CF911F910F91FF90EF90DF90CF9021
:1043A000BF90AF900895FC0180819181009711F03A
:1043B0000C949F2860E070E0CB0108958EBD0DB491
:1043C00007FEFDCF8EB508950E941A030E941E10AD
:1043D0000E9426100E9454139CE088E10FB6F894C6
:1043E000A895809360000FBE9093600066E675E02C
:1043F00083E796E00E943C17A8950E9444100E9413
:10440000E510FACF69E08CE596E00E9453066AE079
:104410008BE496E00E94530640E450E060E870E0D0
:1044200082E396E00E94110EE2E3F6E086E495E076
:104430009183808388E0878B0895E3E7F6E0138219
:10444000128288EE93E0A0E0B0E084839583A68397
:10445000B78386E096E09183808389ED96E0958727
:10446000848785E996E09787868785EC90E0918B35
:10447000808B84EC90E0938B828B80EC90E0958B2A
:10448000848B81EC90E0978B868B82EC90E0918F0F
:10449000808F86EC90E0938F828F84E0848F83E01E
:1044A000858F87E0868F85E0878F81E080A30895E0
:1044B0006115710579F0FB0101900020E9F7319752
:1044C000AF01461B570BDC01ED91FC910280F3819B
:1044D000E02D099480E090E00895833081F028F485
:1044E000813099F08230A1F008958630A9F08730AC
:1044F000B9F08430D1F4809180008F7D03C0809129
:1045000080008F7780938000089584B58F7702C0F4
:1045100084B58F7D84BD08958091B0008F7703C0EE
:104520008091B0008F7D8093B0000895CF93DF938A
:1045300090E0FC01E056FA4F2491FC01EC54FA4F54
:104540008491882361F190E0880F991FFC01EE525D
:10455000FA4FC591D491FC01E853FA4FA591B4915B
:10456000611109C09FB7F8948881209582238883C0
:10457000EC912E230BC0623061F49FB7F894388120
:10458000822F809583238883EC912E2B2C939FBFC1
:1045900006C08FB7F894E8812E2B28838FBFDF9158
:1045A000CF9108951F93CF93DF93282F30E0F90127
:1045B000E457FA4F8491F901E056FA4FD491F9018A
:1045C000EC54FA4FC491CC23C9F0162F81110E94EC
:1045D0006D22EC2FF0E0EE0FFF1FE853FA4FA5918C
:1045E000B4918FB7F894111105C09C91ED2FE0950F
:1045F000E92302C0EC91ED2BEC938FBFDF91CF91BB
:104600001F910895CF93DF938230910510F482E0DB
:1046100090E0E0912907F0912A0720E030E0C0E027
:10462000D0E0309711F14081518148175907C0F00F
:104630004817590761F482819381209719F09B8371
:104640008A832BC090932A078093290726C02115BF
:10465000310519F04217530718F49A01BE01DF0122
:10466000EF010280F381E02DDCCF2115310509F146
:10467000281B390B2430310590F412968D919C91B2
:1046800013976115710521F0FB019383828304C0A8
:1046900090932A0780932907FD01329644C0FD01BB
:1046A000E20FF31F81939193225031092D933C9394
:1046B0003AC02091270730912807232B41F42091FD
:1046C0000205309103053093280720932707209196
:1046D0000005309101052115310541F42DB73EB794
:1046E0004091040550910505241B350BE0912707E7
:1046F000F0912807E217F307A0F42E1B3F0B2817B1
:10470000390778F0AC014E5F5F4F2417350748F04A
:104710004E0F5F1F50932807409327078193919373
:1047200002C0E0E0F0E0CF01DF91CF9108950F9358
:104730001F93CF93DF93009709F48CC0FC0132974D
:10474000138212820091290710912A070115110581
:1047500081F420813181820F931F209127073091AE
:1047600028072817390779F5F0932807E0932707DA
:1047700071C0D80140E050E0AE17BF0750F4129668
:104780002D913C911397AD012115310509F1D90106
:10479000F3CF9D01DA013383228360817181860F1B
:1047A000971F8217930769F4EC0128813981260F3E
:1047B000371F2E5F3F4F318320838A819B819383F4
:1047C0008283452B29F4F0932A07E093290742C0FE
:1047D0001396FC93EE931297ED01499159919E0126
:1047E000240F351FE217F30771F480819181840F44
:1047F000951F029611969C938E93828193811396B6
:104800009C938E931297E0E0F0E0D80112968D9180
:104810009C911397009719F0F8018C01F6CF8D91B8
:104820009C9198012E5F3F4F820F931F2091270785
:10483000309128072817390769F4309729F4109226
:104840002A071092290702C01382128210932807A8
:1048500000932707DF91CF911F910F9108951F9229
:104860000F920FB60F9211242F933F938F939F9324
:10487000AF93BF9380911F0790912007A0912107CC
:10488000B091220730911E0723E0230F2D3720F42B
:104890000196A11DB11D05C026E8230F0296A11D9A
:1048A000B11D20931E0780931F0790932007A093AC
:1048B0002107B09322078091230790912407A091AC
:1048C0002507B09126070196A11DB11D80932307EE
:1048D00090932407A0932507B0932607BF91AF912B
:1048E0009F918F913F912F910F900FBE0F901F902E
:1048F00018952FB7F89460911F0770912007809149
:104900002107909122072FBF08953FB7F894809117
:10491000230790912407A0912507B091260726B57B
:10492000A89B05C02F3F19F00196A11DB11D3FBFE7
:10493000BA2FA92F982F8827820F911DA11DB11D75
:10494000BC01CD0142E0660F771F881F991F4A9571
:10495000D1F70895CF92DF92EF92FF92CF93DF933A
:104960006B017C010E948524EB01C114D104E10498
:10497000F10479F00E9485246C1B7D0B683E734026
:10498000A0F381E0C81AD108E108F108C851DC4F52
:10499000ECCFDF91CF91FF90EF90DF90CF90089513
:1049A000789484B5826084BD84B5816084BD85B50A
:1049B000826085BD85B5816085BDEEE6F0E08081D1
:1049C00081608083E1E8F0E01082808182608083F2
:1049D000808181608083E0E8F0E080818160808375
:1049E000E1EBF0E0808184608083E0EBF0E08081A7
:1049F00081608083EAE7F0E0808184608083808149
:104A000082608083808181608083808180688083F0
:104A10001092C1000895A0E0B0E0E1E1F5E20C944D
:104A20005828EC01009721F4CB010E940223B8C062
:104A3000FC01E60FF71F9C0122503109E217F30732
:104A400008F4ACC0D9010D911C91119706171707F6
:104A5000B0F00530110508F49FC0C801049786170F
:104A6000970708F499C002501109061B170B019310
:104A700011936D937C93CF010E9497238DC05B01AE
:104A8000A01AB10A4C01800E911EA0912907B09185
:104A90002A0740E050E0E12CF12C109709F44AC0BD
:104AA000A815B905D1F56D907C901197630182E04E
:104AB000C80ED11CCA14DB0480F1A3014A195B099A
:104AC0006A0182E0C80ED11C1296BC901297139610
:104AD000AC91B5E0CB16D10440F0B282A3835183F0
:104AE0004083D9016D937C930AC00E5F1F4FC301B1
:104AF000800F911FF90191838083EB2DFA2FE11430
:104B0000F10431F0D7011396FC93EE93129744C051
:104B1000F0932A07E09329073FC08D919C9111974C
:104B20004817590708F4AC017D0112960D90BC910D
:104B3000A02DB3CF8091270790912807881599055C
:104B4000E1F446175707C8F48091000590910105DC
:104B5000009741F48DB79EB740910405509105052B
:104B6000841B950BE817F907C8F4F0932807E09326
:104B70002707F901718360830FC0CB010E940223D4
:104B80007C01009759F0A801BE010E94DF28CE01E8
:104B90000E949723C70104C0CE0102C080E090E0CC
:104BA000CDB7DEB7EEE00C9474285058BB27AA2787
:104BB0000E94ED250C9467270E94592738F00E9427
:104BC000602720F039F49F3F19F426F40C945627FF
:104BD0000EF4E095E7FB0C945027E92F0E9478270C
:104BE00058F3BA17620773078407950720F079F422
:104BF000A6F50C949A270EF4E0950B2EBA2FA02D53
:104C00000B01B90190010C01CA01A0011124FF2779
:104C1000591B99F0593F50F4503E68F11A16F04074
:104C2000A22F232F342F4427585FF3CF4695379573
:104C30002795A795F0405395C9F77EF41F16BA0B38
:104C4000620B730B840BBAF09150A1F0FF0FBB1FE6
:104C5000661F771F881FC2F70EC0BA0F621F731F2F
:104C6000841F48F4879577956795B795F7959E3F8C
:104C700008F0B0CF9395880F08F09927EE0F97951D
:104C8000879508950E942C2708F481E008950E94DA
:104C90005B260C9467270E94602758F00E945927D2
:104CA00040F029F45F3F29F00C94502751110C94E7
:104CB0009B270C9456270E94782768F39923B1F319
:104CC000552391F3951B550BBB27AA276217730732
:104CD000840738F09F5F5F4F220F331F441FAA1FC6
:104CE000A9F335D00E2E3AF0E0E832D09150504082
:104CF000E695001CCAF72BD0FE2F29D0660F771F30
:104D0000881FBB1F261737074807AB07B0E809F015
:104D1000BB0B802DBF01FF2793585F4F3AF09E3F9A
:104D2000510578F00C9450270C949B275F3FE4F3D7
:104D3000983ED4F3869577956795B795F7959F5FDD
:104D4000C9F7880F911D9695879597F90895E1E029
:104D5000660F771F881FBB1F621773078407BA0788
:104D600020F0621B730B840BBA0BEE1F88F7E095E3
:104D700008950E94C0266894B1110C949B27089551
:104D80000E94802788F09F5798F0B92F9927B75134
:104D9000B0F0E1F0660F771F881F991F1AF0BA95DF
:104DA000C9F714C0B13091F00E949A27B1E008957C
:104DB0000C949A27672F782F8827B85F39F0B93F6E
:104DC000CCF3869577956795B395D9F73EF4909592
:104DD0008095709561957F4F8F4F9F4F0895E89410
:104DE00009C097FB3EF490958095709561957F4F33
:104DF0008F4F9F4F9923A9F0F92F96E9BB279395E1
:104E0000F695879577956795B795F111F8CFFAF4F0
:104E1000BB0F11F460FF1BC06F5F7F4F8F4F9F4F21
:104E200016C0882311F096E911C0772321F09EE87F
:104E3000872F762F05C0662371F096E8862F70E0E5
:104E400060E02AF09A95660F771F881FDAF7880FBF
:104E50009695879597F90895990F0008550FAA0B15
:104E6000E0E8FEEF16161706E807F907C0F012167D
:104E70001306E407F50798F0621B730B840B950B80
:104E800039F40A2661F0232B242B252B21F40895D5
:104E90000A2609F4A140A6958FEF811D811D089572
:104EA00097F99F6780E870E060E008959FEF80ECDD
:104EB000089500240A941616170618060906089580
:104EC00000240A9412161306140605060895092EE6
:104ED0000394000C11F4882352F0BB0F40F4BF2B55
:104EE00011F460FF04C06F5F7F4F8F4F9F4F089595
:104EF00057FD9058440F551F59F05F3F71F047958B
:104F0000880F97FB991F61F09F3F79F0879508956F
:104F1000121613061406551FF2CF4695F1DF08C08E
:104F2000161617061806991FF1CF869571056105AB
:104F300008940895E894BB2766277727CB0197F953
:104F400008950E942C2708F48FEF08950E94B92736
:104F50000C9467270E94592738F00E94602720F0A0
:104F6000952311F00C9450270C94562711240C947F
:104F70009B270E94782770F3959FC1F3950F50E00F
:104F8000551F629FF001729FBB27F00DB11D639FFB
:104F9000AA27F00DB11DAA1F649F6627B00DA11DA1
:104FA000661F829F2227B00DA11D621F739FB00D47
:104FB000A11D621F839FA00D611D221F749F3327B7
:104FC000A00D611D231F849F600D211D822F762F50
:104FD0006A2F11249F5750409AF0F1F088234AF02D
:104FE000EE0FFF1FBB1F661F771F881F9150504099
:104FF000A9F79E3F510580F00C9450270C949B27F5
:105000005F3FE4F3983ED4F3869577956795B7951F
:10501000F795E7959F5FC1F7FE2B880F911D969539
:10502000879597F908950E942C27880B990B08956E
:1050300097FB072E16F4009407D077FD09D00E9445
:105040008B2807FC05D03EF4909581959F4F0895DD
:10505000709561957F4F0895A1E21A2EAA1BBB1B84
:10506000FD010DC0AA1FBB1FEE1FFF1FA217B30734
:10507000E407F50720F0A21BB30BE40BF50B661F4A
:10508000771F881F991F1A9469F76095709580950E
:1050900090959B01AC01BD01CF010895EE0FFF1F5C
:1050A0000590F491E02D09942F923F924F925F92D8
:1050B0006F927F928F929F92AF92BF92CF92DF9228
:1050C000EF92FF920F931F93CF93DF93CDB7DEB78D
:1050D000CA1BDB0B0FB6F894DEBF0FBECDBF099421
:1050E0002A88398848885F846E847D848C849B8478
:1050F000AA84B984C884DF80EE80FD800C811B8186
:10510000AA81B981CE0FD11D0FB6F894DEBF0FBEB4
:10511000CDBFED010895AA1BBB1B51E107C0AA1F1B
:10512000BB1FA617B70710F0A61BB70B881F991F48
:105130005A95A9F780959095BC01CD0108951F93CC
:10514000FC0199278827BC01E89411911032E9F3FA
:10515000193010F01E30C8F31B3251F01D3249F4E3
:10516000689406C00E948729610F711D811D911DE1
:10517000119110531A30B0F33EF4909580957095CC
:1051800061957F4F8F4F9F4F1F91089591110C9400
:10519000EE29803219F089508550C8F70895911191
:1051A000089581548A5108F4805E855A08959111BA
:1051B000089581568A5108F4805285580895FB015C
:1051C000DC0102C001900D9241505040D8F7089583
:1051D0006817790768F4FB01DC01E40FF51FA40FE1
:1051E000B51F02C002900E9241505040D8F708956A
:1051F0000C94DF28FC018191861721F08823D9F7D0
:10520000992708953197CF010895FB01DC018D9115
:10521000019080190110D9F3990B0895FB01DC016D
:1052200001900D920020E1F70895FB01DC0141504F
:10523000504030F08D910190801919F40020B9F799
:10524000881B990B0895FB01DC014150504048F048
:1052500001900D920020C9F701C01D9241505040AD
:10526000E0F70895FC0181E090E00190061609F452
:10527000CF010020D1F701970895FB0151915523EB
:10528000A9F0BF01DC014D9145174111E1F759F437
:10529000CD010190002049F04D9140154111C9F315
:1052A000FB014111EFCF81E090E001970895453275
:1052B000510520F4423010F00C946229FB01108259
:1052C000CB010895BB274A3031F4992322F4BDE283
:1052D000909581959F4F0C94D5292532310520F466
:1052E000223010F00C947829FA011082CA01089536
:1052F000BB272A3051F4992342F4BDE29095809562
:10530000709561957F4F8F4F9F4F0C94A829592F0F
:10531000482F372F262F660F771F881F991F660F7C
:10532000771F881F991F620F731F841F951F660FB9
:10533000771F881F991F08952532310520F42230E8
:1053400010F00C94A729FA011082CA010895BB2716
:10535000FA01A62F6217710581059105330B30FB09
:1053600066F0AA27660F771F881F991FAA1FA2172A
:1053700010F0A21B63953850A9F7A05DAA3308F07E
:10538000A95DA19336F7B111B1931082CA010C94B3
:10539000F1294532510520F4423010F00C94D42903
:1053A000FB011082CB010895BB27FB015527AA27DB
:1053B000880F991FAA1FA41710F0A41B83955051A2
:1053C000B9F7A05DAA3308F0A95DA193009779F71A
:1053D000B111B1931192CB010C94F129992788272F
:1053E0000895DC01FC01672F71917723E1F7329773
:1053F00004C07C916D9370836291AE17BF07C8F3B0
:065400000895F894FFCFAF
:105406000000000000000000000000000000000096
:105416000000000000000000000000000000000086
:105426000000000000000000000000000000000076
:105436000000000000000000000000000000000066
:105446000000000000000000000000000000000056
:105456000000000000000000000000000000000046
:105466000000000000000000000000000000000036
:105476000000000000000000000000000000000026
:1054860000000000000080C0E0E0F0F8F8F8FCFC46
:10549600FCFEFEFEFEFEFEFEFEFEFEFEFEFEFEFE28
:1054A600FEFEFEFEFEFEFEFEFEFEFEFEFEFEFEFE16
:1054B600FEFEFEFEFEFEFEFEFEFEFEFEFEFEFEFE06
:1054C600FEFEFEFEFEFEFEFEFEFEFEFEFEFEFEFEF6
:1054D600FEFEFEFEFEFEFEFEFEFEFEFEFEFEFEFEE6
:1054E600FEFEFEFEFEFEFEFEFEFEFEFEFEFEFEFCD8
:1054F600FCFCF8F8F8F0E0E0C080000000000000D6
:105506000080F0F8FEFFFFFFFFFF7F3FDF6F27B34E
:10551600DB4B692D25A5A5A52D6D49DB933767CFF7
:105526009F3F7FFFFFFFFFFF3FCF67339BDB496D49
:105536002D25252525256D6D49DB9BB3A7EFEFFFAF
:10554600FFFFFF7F3F9FCF67B39BDB496D25A5A577
:10555600A5252D694BDBB3274FDFBFFFFFFFFF7F7D
:105566003FDF4F27B3DB4B492D25A5A5A5256D4963
:10557600DBDBB3274F9FBFFFFFFFFFFEF8F0C00046
:10558600FCFFFFFFFFFFFFFF03F83E03F80EE3F902
:10559600FCFEFFFFFFFFFFFFFFFFFFFEFCF1073CE6
:1055A600F107FCE10FFFFFF0C03F60CF9FB0262F51
:1055B6006F6F6F6F6F6F6F4FCFDE9E3F7FFFFFFF87
:1055C600FF0FE1FC07F11C07F1FCFEFFFFFFFFFFE9
:1055D600FFFFFFFFFEFCFDFFFFFFFFFFFF07E1FEF2
:1055E60007F91C07F9FCFEFFFFFFFFFFFFFFFFFFA8
:1055F600FEFCFDFFFFFFFFFFFFFFFFFFFFFFFFFCBE
:105606001FFFFFFFFFFFFFFFF0C71E70C79C71471C
:105616009FBF3F7F7F7F7F7F7F7F3F9FCF63308EA0
:10562600E3389FC1F8FFFFFFFFFFFEBCBC3D797961
:105636007B7B7B7B7B7B7B3286FC3903FE0087FF93
:10564600FFF8C39F70C39E3067CF9F3F7F7F7F7FEA
:105656007F7F7F3FBFDF5F3FBFFFFFFFFFF0C31FBF
:1056660070C79E3067CFBF3F7F7F7F7F7F7F7F3F43
:105676009FCF7F3FFFFFFFFFFFFFFFFFFFFFFF1FE4
:105686000000070F3F7FFFFFFFFFFFFEFCF9F3F669
:10569600E4EDEDC9CBCBCBCBCBE9EDE4F6F2FBFDEC
:1056A600FCFFFFFFFFFFFFFFF9F2F6E4EDC9C9DBE0
:1056B600DBDADADADADBDBC9EDE4F6F3F9FEFFFF73
:1056C600FFFFFFFFFEFCF9FBF2E6ECEDE9CBCBCBEF
:1056D600CBCBC9EDEDE4F2F3F9FCFEFFFFFFFFFFD4
:1056E600FEFCF9FBF2E4EDEDC9CBCBCBCBCBC9EDA0
:1056F600EDE4F2FBF9FCFEFFFFFF7F3F0F07010021
:105706000000000000000001030307070F0F1F1F22
:105716001F3F3F3F3F3F3F3F3F3F3F3F3F3F3F3FB3
:105726003F3F3F3F3F3F3F3F3F3F3F3F3F3F3F3F83
:105736003F3F3F3F3F3F3F3F3F3F3F3F3F3F3F3F73
:105746003F3F3F3F3F3F3F3F3F3F3F3F3F3F3F3F63
:105756003F3F3F3F3F3F3F3F3F3F3F3F3F3F3F3F53
:105766003F3F3F3F3F3F3F3F3F3F3F3F3F3F3F1F63
:105776001F1F0F0F0F0703030100000000000000AA
:105786000000000000000000000000000000000013
:105796000000000000000000000000000000000003
:1057A60000000000000000000000000000000000F3
:1057B60000000000000000000000000000000000E3
:1057C60000000000000000000000000000000000D3
:1057D60000000000000000000000000000000000C3
:1057E60000000000000000000000000000000000B3
:1057F60000000000000000000000000000000000A3
:1058060000002B078000E305EB05F305FC05696E38
:1058160069745F73657269616C3A207061737300B5
:10582600696E69745F63616E3A2072657472796934
:105836006E6700696E69745F63616E3A20706173AA
:10584600730000000000C80F7116B20AF30DF40DC4
:10585600FB0DFC0D00000000C80F7116A913F30D17
:10586600F40DFB0DFC0D696E697420636F6D706C31
:1058760065746500696E697420646973706C61791A
:1058860000696E6974204F42442043414E202D200A
:1058960000696E697420436F6E74726F6C204341A9
:1058A6004E202D20000A0A0030005354415455530F
:1058B600004252414B45533A20202000535445455F
:1058C60052494E473A20005448524F54544C453A98
:1058D600200044544353005031420050315300508D
:1058E600315400554E4B4E4F574E00454E41424C9B
:1058F60045440044495341424C4544004552524FA9
:1059060052000000000001147116AA13D613BA1330
:10591600F6136E616E00696E66006F7666002E0085
:00000001FF
