:100000000C94A5010C94D6010C94D6010C94D60145
:100010000C94D6010C94D6010C94D6010C94D60104
:100020000C94D6010C94D6010C94D6010C94D601F4
:100030000C94D6010C94D7080C94D6010C94D601DC
:100040000C94D6010C94AC080C94D6010C94D601F7
:100050000C94D6010C94D6010C94D6010C948A22EF
:100060000C94D6010C94BA100C94AA110C94D601DD
:100070000C94D6010C94D6010C94D6010C94D601A4
:100080000C94D6010C94D6010C94D6010C94D60194
:100090000C94EE100C94E9110C94D6010C94D6013A
:1000A0000C94D6010C94D6010C94D6010C94D60174
:1000B0000C94D6010C94D6010C94D6010C94D60164
:1000C0000C94D6010C94D6010C94D6010C942211F8
:1000D0000C9428120C94D6010C9456110C946712AF
:1000E0000C94D6014F03160353031A031D03200378
:1000F000240327032B032E033103340337033B036D
:100100003F0343034603490301210421F720FB2059
:100110003B2108210C21122116211A212021242102
:1001200028213B212E2132213621F421F921FE21E3
:100130000822812212221A2222222C223622402236
:100140004F225922812263226D2277220C940320B0
:100150000C9420030C942E210C9404210C941D0368
:100160000C943F030C9440220C941A210C943B21D4
:100170000C94F9210C9412210C9455140C943621F2
:100180000C9428210C9408220C94FE210C94082134
:100190000C9446030C9477220C9416210C94310392
:1001A0000C9424030C9412220C9420100C94E41F41
:1001B0000C9436220C9437030C941A030C9463228B
:1001C0000C9443030C9493230C9430100C947710EC
:1001D0000C942B030C942E030C9481220C94F72086
:1001E0000C946D220C944F030C9424210C945922EE
:1001F0000C94790E0C94FB200C9401210C940C218E
:100200000C9427030C9420210C9449030C94322164
:100210000C941A220C946C100C94F4210C94D40FAE
:100220000C944F220C9422220C9416030C94340349
:100230000C942C220C944C100C943B030C94530300
:100240000000090A02080B0C0D0706030401000058
:10025000000000000000000000000000000000009E
:1002600000000000000000000000000011100F005E
:10027000000000000000000000000000000000007E
:10028000000000000000010210202008081020409B
:10029000102040800201020108040201010204084A
:1002A00010204080804020100804020180040201D8
:1002B0008040201008040201080402010102040821
:1002C000102040800102040810204080050505052B
:1002D000070508080808020202020A0A08080404BE
:1002E00004040101010101010101030303030303EC
:1002F0000303040707070C0C0C0C0C0C0C0C02027B
:10030000020206060606060606060B0B0B0B0B0B77
:100310000B0B00002200250028002B002E003100CE
:10032000340002010000050108010B01000021005A
:10033000240027002A002D003000330001010000B6
:10034000040107010A01E41F032011241FBECFEF9F
:10035000D1E2DEBFCDBF00E00CBF13E0A0E0B2E011
:10036000E8E1F3E500E00BBF02C007900D92AE3B61
:10037000B107D9F726E0AEEBB3E001C01D92AB3C6C
:10038000B207E1F711E0C5EAD1E000E006C021972D
:100390000109802FFE010E94E927C33AD10780E0BE
:1003A0000807A9F70E94C91F0C948A290C94000021
:1003B0000C942B23CF93DF93EC0160E088890E949B
:1003C000782180EC0E94C31F61E088890E94782117
:1003D0006AE070E080E090E0DF91CF910C9405231B
:1003E0001F93CF93DF93EC01162F60E088890E9462
:1003F000782183E00E94C31F812F0E94C31F80E0E9
:100400000E94C31F182F61E088890E947821812FE4
:10041000DF91CF911F910895CF92DF92EF92FF92DB
:100420000F931F93CF93DF931F921F92CDB7DEB729
:100430007C01162FC22E60E0FC01808949835A831B
:100440000E94782183E00E94C31F812F0E94C31F56
:100450004981042F5A81152FD12CDC1459F0F8E072
:10046000DF1641F080E00E94C31FF80181938F01E5
:10047000D394F3CF61E0F70180890F900F90DF9163
:10048000CF911F910F91FF90EF90DF90CF900C9440
:100490007821EF92FF921F93CF93DF931F92CDB7F6
:1004A000DEB77C01162F60E0FC01808949830E9441
:1004B000782182E00E94C31F812F0E94C31F4981BF
:1004C000842F0E94C31F61E0F70180890F90DF91A4
:1004D000CF911F91FF90EF900C947821CF92DF92F3
:1004E000EF92FF920F931F93CF93DF931F921F9270
:1004F000CDB7DEB78C01E62EF22E60E0FC018089DC
:1005000049835A830E94782182E00E94C31F8E2D66
:100510000E94C31F4981E42EC42E5A81D52E8C2DF2
:100520008E198F1530F4F60181916F010E94C31F5F
:10053000F6CF61E0F80180890F900F90DF91CF91A5
:100540001F910F91FF90EF90DF90CF900C94782146
:10055000EF92FF921F93CF93DF931F921F92CDB71D
:10056000DEB77C01162F60E0FC0180892A83498375
:100570000E94782185E00E94C31F812F0E94C31F23
:100580004981842F0E94C31F2A81822F0E94C31F8A
:1005900061E0F70180890F900F90DF91CF911F915B
:1005A000FF90EF900C9478211F93CF93DF93EC0191
:1005B00060E088890E94782180EA0E94C31F80E061
:1005C0000E94C31F182F61E088890E947821812F23
:1005D000DF91CF911F9108950F931F93CF938C01BB
:1005E000C62F262F40EE6FE00E94A8026FE0C801E0
:1005F0000E94F001982F907E81E09C1301C080E062
:10060000CF911F910F9108950F931F93CF93DF9375
:100610008C01462F50E0FA013197E231F105E8F5FF
:100620008827EE58FF4F8F4F0C94E927C7E8DFEF7C
:100630004FE13CC0C7E0DAEB38C0C5E8D1EF35C0C8
:10064000C7E0DEEB49E032C0C7E8DFEF02C0C7E831
:10065000DAEF47E02BC0C7E8DFEF0BC0C7E0DEEB07
:1006600008C0C7E0DDEA05C0C7E8DAEF02C0C6E8A7
:10067000D0EF43E01BC0C7E8DAEF41E017C0C5E8A0
:10068000D1EF41E413C0C6E8D0EF05C0C4E0D0EA22
:1006900002C0C2E8D0ED40E009C081E016C0C7E862
:1006A000DFEF4FE303C0C7E8DFEF4FE06AE2C801C6
:1006B0000E9449024D2F69E2C8010E9449024C2F55
:1006C00068E2C8010E94490280E0DF91CF911F914A
:1006D0000F9108950F931F93CF938C01C0E340E0D7
:1006E0006C2FC8010E94490260E16C0F40E0C80114
:1006F0000E94490260E26C0F40E0C8010E9449027A
:10070000CF5FCE3361F740E060E6C8010E94490246
:1007100040E060E7C801CF911F910F910C9449020E
:100720000F931F93CF93DF93EC01062F0E94DA0102
:1007300060E8CE010E94EC02182F6AE070E080E0D1
:1007400090E011110CC00E940523602FCE010E9481
:100750000403882339F06AE070E080E090E00E94B2
:10076000052328C06AE070E080E090E00E94052345
:10077000CE010E946A0343E06BE2CE010E9449026F
:1007800024E044E660E6CE010E94A80220E040E6B4
:1007900060E7CE010E94A80260E0CE010E94EC0258
:1007A000C82F8823C1F26AE070E080E090E00E94E8
:1007B00005231C2F812FDF91CF911F910F91089559
:1007C0000F931F93CF93DF9300D01F92CDB7DEB767
:1007D0004130B1F40C831B83890122273327502F2A
:1007E0005C71402F437078E0579F400D11244860A2
:1007F0004A8355E0169507955A95E1F709830DC090
:10080000A80123E0569547952A95E1F7498302957B
:10081000000F007E0A831C821B8224E0AE014F5F22
:100820005F4F0E946E020F900F900F900F90DF911C
:10083000CF911F910F910895EF92FF920F931F9305
:10084000CF93DF9300D01F92CDB7DEB77A01890135
:10085000FA011082F901108211821282138224E0BF
:10086000AE014F5F5F4F0E940C022A813981822FB7
:1008700090E065E0959587956A95E1F7F8E03F9FF0
:10088000800D911D1124092E000CAA0BBB0BF80141
:1008900080839183A283B38323FF25C032E0880F36
:1008A000991FAA1FBB1F3A95D1F72370820F911D84
:1008B000A11DB11DBA2FA92F982F88272B81820F38
:1008C000911DA11DB11DBA2FA92F982F88272C810A
:1008D000820F911DA11DB11D80839183A283B383DB
:1008E00081E0F70180830F900F900F900F90DF91C0
:1008F000CF911F910F91FF90EF900895FF920F936A
:100900001F93CF93DF93EC01F62E8A01AC014A5F6F
:100910005F4F65E06F0D2D810E946E020130110561
:1009200019F48D8180648D8364E06F0D4D81CE015B
:100930000E94490209811A812B813C8148816F2DD7
:10094000CE010E94E003DF91CF911F910F91FF90A4
:1009500008950F931F93CF93DF93EC01162F9C0103
:100960002F5F3F4FAC010E941C046FEF610FCE015F
:100970000E94F001082F64E0610FCE010E94F00197
:1009800003FB002700F90E87282F2F702D83AE015F
:100990004A5F5F4F65E0610FCE01DF91CF911F91FC
:1009A0000F910C940C02615028E048E00C94A802CE
:1009B000AF92BF92CF92DF92EF92FF920F931F936D
:1009C000CF93DF9300D0CDB7DEB75C016B0180E33E
:1009D000898380E48A8380E58B83FB0110828E010A
:1009E0000F5F1F4F83E0E82EE00EF801F1908F01BA
:1009F0006F2DC5010E94F001982F987083FD04C0EF
:100A0000F394F601F08203C0E012EFCF92E0892F59
:100A10000F900F900F90DF91CF911F910F91FF904A
:100A2000EF90DF90CF90BF90AF900895FC01608B66
:100A300008951F93CF93DF93EC01162F61E088890F
:100A40000E943C2161E088890E9478210E94E90F80
:100A5000612FCE010E94900391E0811101C090E0CE
:100A6000892FDF91CF911F9108958F929F92AF921E
:100A7000BF92DF92EF92FF920F931F93CF93DF937A
:100A80001F92CDB7DEB77C01D62E480159016AE02E
:100A900070E080E090E049830E94052360E8C70190
:100AA0000E94EC02182F4981882329F06AE070E047
:100AB00080E090E01AC0D11004C09501840160E28A
:100AC00006C081E0D81206C09501840164E2C70126
:100AD0000E94E00360E0C7010E94EC02182F6AE068
:100AE00070E080E090E0112321F00E940523812F27
:100AF00003C00E94052380E00F90DF91CF911F91EA
:100B00000F91FF90EF90DF90BF90AF909F908F90EC
:100B100008958F929F92AF92BF92EF92FF920F93A0
:100B20001F93CF93DF931F921F92CDB7DEB77C0147
:100B3000562F480159016AE070E080E090E04A8356
:100B400059830E94052360E8C7010E94EC02182F18
:100B50004A815981882329F06AE070E080E090E0C2
:100B600031C05230B1F040F4552379F05130F9F4EE
:100B70009501840164E018C0543099F070F055304C
:100B8000B1F49501840168E10FC09501840160E032
:100B90000BC09501840168E007C09501840160E104
:100BA00003C09501840164E1C7010E94E00360E095
:100BB000C7010E94EC02182F6AE070E080E090E02C
:100BC000112321F00E940523812F03C00E940523D9
:100BD00080E00F900F90DF91CF911F910F91FF90C8
:100BE000EF90BF90AF909F908F900895CF92DF923B
:100BF0000F931F93FC01208341835283638374838B
:100C0000093008F008E005833696D60110E0CD01E2
:100C10008C199D09801791071CF48D918193F7CF52
:100C200080E01F910F91DF90CF900895EF92FF9297
:100C30000F931F93FC01208341835283638374834A
:100C4000093008F008E005833696D70110E0CD01A1
:100C50008E199F09801791071CF48D918193F7CF0E
:100C600080E01F910F91FF90EF900895FC01118299
:100C7000128213821482158210821686178680E0F3
:100C80000895CF92DF92EF92FF920F931F93CF932D
:100C9000DF931F92CDB7DEB77C016B0100E010E05F
:100CA000BE016F5F7F4FC7010E94D8040F5F1F4FC7
:100CB000823021F40233110599F720C00233110567
:100CC000E9F0A6016981C7010E947E046981C7011C
:100CD0000E94D30400E010E00F5F1F4F6981615054
:100CE000C7010E94F00183FF04C002331105A1F780
:100CF00007C00233110521F080E003C086E001C087
:100D000087E00F90DF91CF911F910F91FF90EF90AF
:100D1000DF90CF900895AF92BF92CF92DF92EF9283
:100D20000F93CF935C01C02F0E2DEC2E0E94F60581
:100D30006C2F70E0C501CF910F91EF90DF90CF90B5
:100D4000BF90AF900C944106EF92FF920F93CF9318
:100D5000DF93EC010E94160660E070E0CE01DF91A7
:100D6000CF910F91FF90EF900C944106CF93DF93BA
:100D7000EC010E94D40280FF07C061E6CE010E9410
:100D8000A90420E041E008C081FF0CC061E7CE016A
:100D90000E94A90420E042E06CE2CE010E94A80279
:100DA00080E001C084E0DF91CF910895EF92FF923F
:100DB0000F931F93CF93DF93EC018B017A010E9475
:100DC000B606811111C09D81F8019083DE0116964F
:100DD000F7012D8130E0BF016E197F09621773079B
:100DE0002CF49D919193F5CFF8011082DF91CF9172
:100DF0001F910F91FF90EF900895CF92DF92EF92A5
:100E0000FF920F931F93CF93DF931F921F92CDB743
:100E1000DEB76C017B018A0129833A830E94B60602
:100E200029813A81811123C0F6019581F8019083CF
:100E3000F6014181528163817481F70140835183BE
:100E400062837383D6011696B90120E030E0F60183
:100E5000458150E02417350764F42830310549F006
:100E60009D91FB019193BF012F5F3F4FF0CFF801A0
:100E700010820F900F90DF91CF911F910F91FF90F3
:100E8000EF90DF90CF9008950E94D402837011F408
:100E900084E0089583E008956DE20E94F001887F68
:100EA00009F085E00895FC0161817281838194815C
:100EB0000895FC0186850895FC0180810895FC0158
:100EC000108A118A128A138A148A158A168A178A36
:100ED000148E158E168E178E408351836283738312
:100EE00008952F923F924F925F926F927F928F92CE
:100EF0009F92AF92BF92CF92DF92EF92FF920F93A9
:100F00001F93CF93DF93CDB7DEB72C970FB6F8942E
:100F1000DEBF0FBECDBF1C01CB01BA0128013901D4
:100F2000A90198010E9484256D837E838F83988711
:100F300020E030E0A901C701B6010E94F125181692
:100F40000CF09BC0A70196016D817E818F819885F1
:100F50000E945527D10154962D913D914D915C9160
:100F600057970E9485254B015C01F101648B758BBD
:100F7000868B978B8091BE039091BF0301969093CF
:100F8000BF038093BE0380819181A281B381898355
:100F90009A83AB83BC83B05889879A87AB87BC8719
:100FA0009C01AD01C501B4010E94F12587FF05C078
:100FB00089859A85AB85BC850EC029813A814B8194
:100FC0005C81C501B4010E94502718164CF4898138
:100FD0009A81AB81BC81F101848B958BA68BB78BF9
:100FE000D10114962D913D914D915C9117976D8192
:100FF0007E818F8198850E9455274B015C01F1010C
:1010000024893589468957896085718582859385CC
:101010000E9455279B01AC01C501B4010E948525A2
:101020004B015C01D10150962D913D914D915C9108
:101030005397C301B2010E948425A70196010E9423
:10104000F625F10124853585468557850E9455276B
:101050009B01AC01C501B4010E948425D1015896C1
:101060006D937D938D939C935B97F101408A518A98
:10107000628A738A80E090E002C081E090E02C9662
:101080000FB6F894DEBF0FBECDBFDF91CF911F9199
:101090000F91FF90EF90DF90CF90BF90AF909F9017
:1010A0008F907F906F905F904F903F902F9008951A
:1010B00040E052EC61E070E08BE794E00E94EA12BD
:1010C00067E372E08BE794E00C942015CF93DF93F5
:1010D000EC0160E1CE010E941905882369F062E30A
:1010E00070E080E090E00E94052369E472E08BE705
:1010F00094E00E942015EDCF6CE572E08BE794E060
:10110000DF91CF910C942015CF93DF93611571057A
:10111000F1F0EB0121E1FB0111922A95E9F7F89436
:101120009B01275F3F4FAB014C5F5F4F0E94FD0665
:10113000811109C00E94D4226D837E838F8398879A
:1011400080E090E002C081E090E0789402C082E00C
:1011500090E0DF91CF9108951F920F920FB60F92FA
:1011600011240BB60F922F933F934F935F936F937E
:101170007F938F939F93AF93BF93EF93FF93E091F0
:10118000C203F091C3031995FF91EF91BF91AF9105
:101190009F918F917F916F915F914F913F912F918F
:1011A0000F900BBE0F900FBE0F901F9018951F92BF
:1011B0000F920FB60F9211240BB60F922F933F93FD
:1011C0004F935F936F937F938F939F93AF93BF934F
:1011D000EF93FF93E091C003F091C1031995FF9144
:1011E000EF91BF91AF919F918F917F916F915F919F
:1011F0004F913F912F910F900BBE0F900FBE0F900C
:101200001F901895CF92DF92EF92FF92CF93DF93CA
:101210006B017C01EA01F894109280001092810029
:10122000109285001092840020E030E040E857E4FE
:101230000E9455279B01AC0160E074E284E79BE4C7
:101240000E94F6250E946F26613021E07207810519
:10125000910550F08091810085608093810060E06D
:1012600074E080E090E036C061347105810591053D
:1012700050F08091810084608093810060E071E093
:1012800080E090E027C0693071058105910550F03C
:101290008091810083608093810060E470E080E051
:1012A00090E018C0623071058105910550F0809181
:1012B000810082608093810068E070E080E090E0CF
:1012C00009C08091810081608093810061E070E0BD
:1012D00080E090E00E949E269B01AC01C701B60110
:1012E0000E9455279B01AC0160E074E284E79BE417
:1012F0000E94F62520E030E040E85FE30E9484256C
:101300000E946F266115710521E08207910550F456
:10131000611571058105910549F461E070E080E097
:1013200090E004C06FEF7FEF80E090E07093890061
:101330006093880080918100886080938100809113
:101340006F00826080936F00D093C303C093C20389
:101350007894DF91CF91FF90EF90DF90CF90089538
:10136000CF92DF92EF92FF92CF93DF936B017C01DC
:10137000EA01F8941092B0001092B1001092B200FD
:1013800020E030E040E853E40E9455279B01AC0187
:1013900060E074E284E79BE40E94F6250E946F26D9
:1013A000613021E072078105910550F08091B10014
:1013B00087608093B10060E074E080E090E054C00A
:1013C000613871058105910550F08091B10086600A
:1013D0008093B10060E071E080E090E045C061344E
:1013E00071058105910550F08091B1008560809371
:1013F000B10060E870E080E090E036C061327105D5
:101400008105910550F08091B10084608093B10016
:1014100060E470E080E090E027C0693071058105EC
:10142000910550F08091B10083608093B10060E23B
:1014300070E080E090E018C0623071058105910590
:1014400050F08091B10082608093B10068E070E05C
:1014500080E090E009C08091B10081608093B1008C
:1014600061E070E080E090E00E949E269B01AC016C
:10147000C701B6010E9455279B01AC0160E074E2F0
:1014800084E79BE40E94F62520E030E040E85FE33B
:101490000E9484250E946F266F3F7105810591058A
:1014A00009F050F4611571058105910549F461E079
:1014B00070E080E090E004C06FEF70E080E090E0CA
:1014C0006093B3008091B10082608093B1008091FD
:1014D0007000826080937000D093C103C093C003FA
:1014E0007894DF91CF91FF90EF90DF90CF900895A7
:1014F000CF92DF92EF92FF920F931F93CF93DF93E0
:10150000E901811106C0188219821A821B821C828D
:101510001DC06A017B010E94D4222881211106C0CE
:1015200021E0288369837A838B839C8309811A81D4
:101530002B813C81DC01CB01801B910BA20BB30BF7
:1015400021E08C159D05AE05BF0508F420E0822F33
:10155000DF91CF911F910F91FF90EF90DF90CF908F
:1015600008950F931F93FB01BA01A9019801892BDC
:1015700029F081E0EF2B19F080E001C081E01F919C
:101580000F910C94780AF89460E081E30E9478212E
:101590007894089561E081E30E943C210C94C30A91
:1015A000F89461E081E30E94782178940895F8949A
:1015B00089E00E94A82178940C94560BCF92DF9278
:1015C000EF92FF920E94D70A6B017C0126E636E675
:1015D00042E454E40E94F125181634F0FF90EF9095
:1015E000DF90CF900C94D00A20E030E84BE554E433
:1015F000C701B6010E94502787FD06C0FF90EF90FB
:10160000DF90CF900C94C30AFF90EF90DF90CF90C3
:1016100008958F929F92AF92BF92CF92DF92EF92F6
:10162000FF92CF93DF934115510589F1EA0188803C
:101630009980AA80BB80A50194010E9484256B013A
:101640007C01A50194016C817D818E819F810E9426
:1016500084259B01AC01C701B6010E94F6254B0110
:101660005C01C884D984EA84FB84A70196016C8557
:101670007D858E859F850E9484259B01AC01C501D7
:10168000B4010E945527A70196010E9485256B0190
:101690007C01C701B601DF91CF91FF90EF90DF9001
:1016A000CF90BF90AF909F908F900895CF92DF9290
:1016B000EF92FF92BC01990F880B990B0E94A02614
:1016C0002AE939E949E150E40E9455272AE939E13C
:1016D0004CE753E40E9484256B017C0120E030E05C
:1016E00040E451E40E94F12587FD13C023E333E970
:1016F0004BE554E4C701B6010E94502718167CF44C
:1017000093E3C92E93E9D92E9BE5E92E94E4F92EB3
:1017100006C0C12CD12C80E4E82E81E4F82EC7014C
:10172000B601FF90EF90DF90CF900895F89460E0BD
:1017300070E082E00E94CD21789469E772E08BE747
:1017400094E00C94201561E082E00E943C210C940E
:10175000960BF8946FEF70E082E00E94CD217894B0
:101760006EE872E08BE794E00C942015EF92FF9204
:101770000F931F93CF93DF93EC01F8948AE00E94BC
:10178000A8217C018BE00E94A8218C017894C701DC
:101790000E94560B688379838A839B83C8010E94C9
:1017A000560B6C837D838E839F83DF91CF911F9136
:1017B0000F91FF90EF900895F89460E080E30E940D
:1017C000782178940895CF93DF93EC01F894BC01CD
:1017D00085E00E94CD21BE0187E00E94CD21789452
:1017E000DF91CF910895CF93DF93EC01F894BC0182
:1017F00086E00E94CD21BE0188E00E94CD21789430
:10180000DF91CF9108958091E40381111BC08091F5
:10181000E503811117C08091EB03811113C0809102
:10182000EC0381110FC00E94A90B80E090E00E94A0
:10183000F30B81E08093E40364EA72E08BE794E0C9
:101840000C94201508958091E4038823F1F080E042
:1018500090E00E94E30B8FEF90E00E94F30B0E9458
:10186000DC0B6FE070E080E090E00E9405230E94B6
:10187000960B80E090E00E94F30B1092E40364EB7F
:1018800072E08BE794E00C94201508951F93CF939A
:10189000DF93CDB7DEB728970FB6F894DEBF0FBE43
:1018A000CDBF8091E403811105C08091E5038823B9
:1018B00009F445C0CE0101960E94B60B2DEC3CEC1C
:1018C0004CE252E469817A818B819C810E9450278D
:1018D00087FF0FC011E02DEC3CEC4CE252E46D812F
:1018E0007E818F8198850E94502787FF03C010E07A
:1018F00001C011E020E134E044E650E060E070E037
:10190000812F0E94780A882399F00E94230C8091ED
:10191000E60382608093E6030E94AD0E81E080932F
:10192000E50365EC72E08BE794E00E94201507C0A8
:101930008091E6038D7F8093E6031092E50328965D
:101940000FB6F894DEBF0FBECDBFDF91CF911F91D0
:1019500008950F931F93CF93DF938091E403811138
:1019600004C08091E60380FF84C0F8948AE00E945E
:10197000A821EC018BE00E94A8217894CD2B11F0D6
:10198000892B69F480910E0490910F040196909335
:101990000F0480930E0404970CF063C004C01092EF
:1019A0000F0410920E04C0E0F89489E00E94A82170
:1019B0007894892B99F480910C0490910D040196F0
:1019C00090930D0480930C04049764F06BE073E033
:1019D0008BE794E00E942015D1E005C010920D0421
:1019E00010920C04D0E0F8948EE00E94A8218C01A3
:1019F0008DE00E94A8217894012B11F0892B99F495
:101A000080910A0490910B04019690930B048093AB
:101A10000A04049764F06BE373E08BE794E00E94A0
:101A2000201581E005C010920B0410920A0480E09A
:101A3000C11104C0D11102C0882369F00E94230C97
:101A40008091E60381608093E603DF91CF911F913F
:101A50000F910C94AD0E8091E6038E7F8093E60388
:101A600008C067ED72E08BE794E00E942015C1E0AA
:101A70009BCFDF91CF911F910F910895F89460E073
:101A800085E00E94782160E087E00E94782160E094
:101A900086E00E94782160E088E00E94782160E082
:101AA0008DE00E94782160E08CE00E94782178949B
:101AB00061E085E00E943C2161E087E00E943C21DA
:101AC00061E086E00E943C2161E088E00E943C21C8
:101AD00061E08DE00E943C2161E08CE00E943C21AD
:101AE00080E090E00E94F30B80E090E00E94E30B26
:101AF0000E94DC0B61E080E30C943C218F929F926A
:101B0000AF92BF92CF92DF92EF92FF920F931F930B
:101B1000CF93DF938091E403882309F4DDC0F89428
:101B20000E94E0226B017C018091060490910704E1
:101B3000A0910804B0910904A7019601281B390B54
:101B40004A0B5B0BCA01B9010E949E26C092060493
:101B5000D0920704E0920804F092090420E030E0FB
:101B60004AE754E40E94F6256B017C016091E7038B
:101B70007091E8038091E9039091EA0340E252E01A
:101B80000E94090B60930204709303048093040481
:101B900090930504F8948EE00E94A8215C018DE0EA
:101BA0000E94A821EC017894C5010E94560B4B01BC
:101BB0005C01CE010E94560B9B01AC01C501B40132
:101BC0000E94852520E030E040E05FE30E94552739
:101BD0004B015C016093FE037093FF03809300044C
:101BE0009093010420E030E04AE754E4C701B601D5
:101BF0000E94F6256B017C01409102045091030480
:101C000060910404709105049501840184EC93E0D3
:101C10000E947107892B09F05EC0C090DC03D09050
:101C2000DD03E090DE03F090DF0320E030E040E2EF
:101C300051ECC701B6010E94F12587FF28C080E062
:101C400090E00E94E30BC701B601905840E152E0DA
:101C50000E94090B0E946F26CB016536710510F0BA
:101C600084E690E00E94F30B20E030E040EA51E48B
:101C70006091020470910304809104049091050422
:101C80000E94F12587FF27C00E94DC0B24C020E0C2
:101C900030E040E251E4C701B6010E945027181617
:101CA000D4F4F89461E080E30E947821789480E095
:101CB00090E00E94F30B40E052E0C701B6010E94A1
:101CC000090B0E946F26CB016A36710510F089E678
:101CD00090E00E94E30B7894DF91CF911F910F91D8
:101CE000FF90EF90DF90CF90BF90AF909F908F903C
:101CF0000895EF92FF920F93CF93DF93CDB7DEB7A6
:101D000028970FB6F894DEBF0FBECDBF85E089835C
:101D10008CEC8A83E4EEF3E080818B8381818C8379
:101D200082818D83F894CE0101967C0108E020E049
:101D300043E750E060E070E08DEE93E00E94A4067F
:101D4000789428960FB6F894DEBF0FBECDBFDF9112
:101D5000CF910F91FF90EF900895EF92FF920F9324
:101D6000CF93DF93CDB7DEB728970FB6F894DEBFD9
:101D70000FBECDBF85E089838CEC8A831B821C82D9
:101D80001D821E828091E6038F83F894CE01019616
:101D90007C0108E020E04FEA50E060E070E08DEE6A
:101DA00093E00E94A406789428960FB6F894DEBFBC
:101DB0000FBECDBFDF91CF910F91FF90EF900895AF
:101DC000CF93DF93CDB7DEB761970FB6F894DEBF40
:101DD0000FBECDBFBE016F5F7F4F8DEE93E00E94BF
:101DE0008408892B09F052C08A85853009F04EC0DD
:101DF0008B858C3C09F04AC089819A81AB81BC817A
:101E000080379105A105B10519F40E94030C3EC06D
:101E100081379105A105B10519F40E94230C36C044
:101E200082379105A105B10569F48C859D85AE8544
:101E3000BF858093E7039093E803A093E903B093F1
:101E4000EA0324C08F3A9105A105B105F9F40E9477
:101E5000230C65E673E08BE794E00E94D5144C8573
:101E60005D856E857F852AE030E08BE794E00E94F7
:101E7000261662E873E08BE794E00E94D5144AE0EE
:101E800050E068898BE794E00E943A1661960FB69D
:101E9000F894DEBF0FBECDBFDF91CF910895E4EE81
:101EA000F3E010821182128240E050E060EF71E4B2
:101EB00084EC93E00E945F07E4ECF3E086E696E6AC
:101EC000A6E2BFE384839583A683B78380E090E096
:101ED000A0EEBFE380879187A287B387148615861B
:101EE000168617860895E1E9F0E08081887F826098
:101EF0008083E1EAF0E08081887F826080830E94B5
:101F0000CA0A0E94A30B0E943E0D0E94C30A0E94AF
:101F1000960B80E090E00E94F30B80E090E00C9440
:101F2000E30B0F931F930E9458086BE873E08BE755
:101F300094E00E94D5148DEE93E00E94660800EFB5
:101F400017E020E030E040E060E08DEE93E00E949A
:101F5000350500E710E020E030E040E060E08DEE85
:101F600093E00E94890500EA10E020E030E040E0C4
:101F700061E08DEE93E00E9489050FEF17E020E00D
:101F800030E040E061E08DEE93E00E94350501E72E
:101F900010E020E030E041E062E08DEE93E00E944E
:101FA00089051F910F910895F8940E94A90C7894C7
:101FB000089544ED5FE060E070E080E89FE30E94F8
:101FC000020949E75EE060E070E088E492E40C9486
:101FD000B00961E085E30E94782161E085E30E9419
:101FE0003C218CB580618CBD8CB580648CBD61E07A
:101FF00084E30E943C2161E083E30C943C218CB596
:102000008F7B8CBD0895811103C08CB5806202C0A6
:102010008CB58F7D8CBD08959CB5937F892B8CBD2D
:1020200008959CB5282F23709C7F922B9CBD2DB5C5
:1020300082FB992790F9822F8E7F892B8DBD089581
:10204000FC0124853585F901E05CFF4F8081918199
:10205000329620813181821B930B8F7399270895CB
:10206000DC011C96ED91FC911D97DF01A05CBF4F38
:102070002D913C91119712968D919C911197281753
:10208000390739F08D919C91E80FF91F808190E01C
:1020900008958FEF9FEF0895FC01A485B585FD019C
:1020A000E05CFF4F20813181329680819181281739
:1020B000390779F080819181A80FB91F8C91208117
:1020C00031812F5F3F4F2F7333273183208390E07F
:1020D00008958FEF9FEF0895FC0181A1882329F0D7
:1020E000A489B5898C9186FFFBCF11A208950F9327
:1020F0001F93CF93DF93FC01A685B7858D01005C0C
:102100001F4FE8018881998101968F739927AD014E
:102110004E5B5F4FEA012881398182179307D1F323
:10212000E80128813981A20FB31F6C93A685B7857A
:10213000A05CBF4F11969C938E93A689B7892C9172
:1021400081E090E0078C02C0880F991F0A94E2F7A3
:10215000822B8C9381E081A30488F589E02D808116
:102160008064808381E090E0DF91CF911F910F9197
:10217000089508951F920F920FB60F9211240BB677
:102180000F922F933F934F935F936F937F938F9310
:102190009F93AF93BF93EF93FF938091C00082FD15
:1021A00007C08091C60069E776E00E94E91F02C07F
:1021B0008091C600FF91EF91BF91AF919F918F9158
:1021C0007F916F915F914F913F912F910F900BBE37
:1021D0000F900FBE0F901F90189508951F920F92A9
:1021E0000FB60F9211240BB60F922F933F934F937C
:1021F0005F936F937F938F939F93AF93BF93EF936F
:10220000FF938091C80082FD07C08091CE0061EFEE
:1022100075E00E94E91F02C08091CE00FF91EF910E
:10222000BF91AF919F918F917F916F915F914F91EE
:102230003F912F910F900BBE0F900FBE0F901F90EC
:10224000189508951F920F920FB60F9211240BB696
:102250000F922F933F934F935F936F937F938F933F
:102260009F93AF93BF93EF93FF938091D00082FD34
:1022700007C08091D60069E675E00E94E91F02C0A0
:102280008091D600FF91EF91BF91AF919F918F9177
:102290007F916F915F914F913F912F910F900BBE66
:1022A0000F900FBE0F901F90189508951F920F92D8
:1022B0000FB60F9211240BB60F922F933F934F93AB
:1022C0005F936F937F938F939F93AF93BF93EF939E
:1022D000FF938091300182FD07C08091360161EE4D
:1022E00074E00E94E91F02C080913601FF91EF91D6
:1022F000BF91AF919F918F917F916F915F914F911E
:102300003F912F910F900BBE0F900FBE0F901F901B
:1023100018958BE794E00E942010892B11F00E9401
:10232000B91089E594E00E942010892B11F00E94D9
:10233000ED1087E394E00E942010892B11F00E9499
:10234000211185E194E00E942010892B11F00C945A
:10235000551108951F920F920FB60F9211240BB6CC
:102360000F922F933F938F939F93EF93FF9320911F
:102370007506309176068091770690917806281739
:10238000390731F48091C1008F7D8093C10014C062
:10239000E0917706F0917806EB5CF94F208180910F
:1023A00077069091780601968F7399279093780617
:1023B000809377062093C600FF91EF919F918F91B4
:1023C0003F912F910F900BBE0F900FBE0F901F905B
:1023D00018951F920F920FB60F9211240BB60F9201
:1023E0002F933F938F939F93EF93FF932091ED054E
:1023F0003091EE058091EF059091F005281739078F
:1024000031F48091C9008F7D8093C90014C0E091A0
:10241000EF05F091F005E355FA4F20818091EF052B
:102420009091F00501968F7399279093F005809312
:10243000EF052093CE00FF91EF919F918F913F91F7
:102440002F910F900BBE0F900FBE0F901F901895FD
:102450001F920F920FB60F9211240BB60F922F936B
:102460003F938F939F93EF93FF9320916505309156
:10247000660580916705909168052817390731F442
:102480008091D1008F7D8093D10014C0E0916705C9
:10249000F0916805EB5DFA4F20818091670590917E
:1024A000680501968F739927909368058093670557
:1024B0002093D600FF91EF919F918F913F912F91A3
:1024C0000F900BBE0F900FBE0F901F9018951F928C
:1024D0000F920FB60F9211240BB60F922F933F93CA
:1024E0008F939F93EF93FF932091DD043091DE044F
:1024F0008091DF049091E0042817390731F480912E
:1025000031018F7D8093310114C0E091DF04F0919F
:10251000E004E356FB4F20818091DF049091E004BA
:1025200001968F7399279093E0048093DF042093A2
:102530003601FF91EF919F918F913F912F910F90D5
:102540000BBE0F900FBE0F901F9018958F929F9209
:10255000AF92BF92CF92DF92EF92FF920F931F93B1
:10256000CF93DF93CDB7DEB7FC011382128288EEE2
:1025700093E0A0E0B0E084839583A683B78383EAE9
:1025800093E0918380837587648757874687318B73
:10259000208B138B028BF58AE48AD78AC68AB18E88
:1025A000A08E938E828E8889848F8989858F8A896F
:1025B000868F8B89878F8C8980A3DF91CF911F9124
:1025C0000F91FF90EF90DF90CF90BF90AF909F90D2
:1025D0008F900895CF92DF92EF92FF920F931F9307
:1025E000CF93DF93EC016A017B014115514E6105E8
:1025F000710509F1EC89FD8981E090E008A002C035
:10260000880F991F0A94E2F7808360E079E08DE3F8
:1026100090E0A70196010E94C72789019A01015005
:1026200011092109310936952795179507959801C4
:1026300001151041A8F0EC89FD89108260E874E86A
:102640008EE190E0A70196010E94C727DA01C90137
:102650000197A109B109B695A795979587959C0112
:10266000E889F9893083EA89FB89208319A2EE89F8
:10267000FF89408181E090E09C010C8C02C0220F18
:10268000331F0A94E2F7242B2083EE89FF894081CF
:102690009C010D8C02C0220F331F0A94E2F7242BF9
:1026A0002083EE89FF8940819C010E8C02C0220F9D
:1026B000331F0A94E2F7242B2083EE89FF892081BF
:1026C0000F8C02C0880F991F0A94E2F7809582232D
:1026D0008083DF91CF911F910F91FF90EF90DF905A
:1026E000CF900895CF92DF92EF92FF921F93CF93F6
:1026F000DF93EC016A017B01122F4115514E6105F8
:10270000710509F1EC89FD8981E090E008A002C023
:10271000880F991F0A94E2F7808360E079E08DE3E7
:1027200090E0A70196010E94C727DA01C90101972D
:10273000A109B109B695A79597958795AC01411563
:1027400080E15807A8F0EC89FD89108260E874E800
:102750008EE190E0A70196010E94C727BA01A90166
:1027600041505109610971097695679557954795CB
:10277000E889F9895083EA89FB894083E88DF98DDE
:102780001083EE89FF89408181E090E09C010C8CF0
:1027900002C0220F331F0A94E2F7242B2083EE8914
:1027A000FF8940819C010D8C02C0220F331F0A94C7
:1027B000E2F7242B2083EE89FF8940819C010E8C57
:1027C00002C0220F331F0A94E2F7242B2083EE89E4
:1027D000FF8920810F8C02C0880F991F0A94E2F7AD
:1027E000809582238083DF91CF911F91FF90EF909E
:1027F000DF90CF900895CF93DF93FC018685978576
:10280000EC01C05CDF4FDC01AE5BBF4F288139813A
:102810008D919C91119728173907C1F7A689B7891F
:102820003C9181E090E0AC01048C02C0440F551F44
:102830000A94E2F7242F209523232C93A689B789A5
:102840003C91AC01058C02C0440F551F0A94E2F77D
:10285000242F209523232C93A689B7893C91AC0182
:10286000068C02C0440F551F0A94E2F7242F2095CE
:1028700023232C93A689B7892C91078C02C0880F3B
:10288000991F0A94E2F7809582238C93848595851D
:10289000FC01EE5BFF4F2081318132973183208331
:1028A000DF91CF91089581E00895CF92DF92EF926A
:1028B000FF920F931F93CF93DF936C01EB017B018A
:1028C000E40EF51E00E010E0CE15DF0561F0699121
:1028D000D601ED91FC910190F081E02DC601199592
:1028E000080F191FF1CFC801DF91CF911F910F91F0
:1028F000FF90EF90DF90CF900895EF92FF920F93AB
:102900001F93CF93DF937C01FB0100E010E0649103
:10291000EF012196662361F0D701ED91FC910190C2
:10292000F081E02DC7011995080F191FFE01EFCFA7
:10293000C801DF91CF911F910F91FF90EF90089503
:10294000AF92BF92CF92DF92EF92FF920F931F93BD
:10295000CF93DF936C017B01C0E0D0E000E010E09A
:10296000D70114968D919C911597C817D90788F4B3
:10297000D601ED91FC91A080B180BE01C7010E94FB
:10298000BA1C682FC601F5011995080F191F219669
:10299000E7CFC801DF91CF911F910F91FF90EF908A
:1029A000DF90CF90BF90AF9008950C94D520DC01BC
:1029B000ED91FC910190F081E02D1994DB01ED91F6
:1029C000FC9111970190F081E02DBC01CD0119948B
:1029D0000F931F93CF93DF93EC016DE00E94D71408
:1029E0008C016AE0CE010E94D714800F911FDF9105
:1029F000CF911F910F9108950F931F93CF93DF9362
:102A0000EC010E947D148C01CE010E94E814800F1D
:102A1000911FDF91CF911F910F9108950F931F93F5
:102A2000CF93DF93EC010E94A0148C01CE010E9491
:102A3000E814800F911FDF91CF911F910F9108959E
:102A40000F931F93CF93DF93EC010E94D5208C014D
:102A5000CE010E94E814800F911FDF91CF911F914A
:102A60000F9108950F931F93CF93DF93EC010E9472
:102A7000D7148C01CE010E94E814800F911FDF91C2
:102A8000CF911F910F9108950F931F93CF93DF93D1
:102A9000EC010E94DE148C01CE010E94E814800F2C
:102AA000911FDF91CF911F910F9108958F929F9267
:102AB000AF92BF92CF92DF92EF92FF920F931F934C
:102AC000CF93DF93CDB7DEB7A1970FB6F894DEBFF3
:102AD0000FBECDBF6C01142FE52FCB01022F19A221
:102AE000223008F40AE07E0121E2E20EF11C802E81
:102AF000912CA12CB12C612F7E2FA50194010E9455
:102B0000C727029F1019112481E0E81AF1081A3032
:102B100014F4105D01C0195CF7011083122FE32F2C
:102B2000CA01232B242B252B31F7B701C6010E94A4
:102B3000D520A1960FB6F894DEBF0FBECDBFDF91B2
:102B4000CF911F910F91FF90EF90DF90CF90BF90AA
:102B5000AF909F908F900895CF92DF92EF92FF9267
:102B60000F931F93CF93DF93EC016A017B01211533
:102B7000310579F4E881F9810190F081E02D642F2D
:102B8000DF91CF911F910F91FF90EF90DF90CF9049
:102B900019942A303105E9F477FF1AC06DE20E94DA
:102BA000D7148C0144275527BA014C195D096E09C9
:102BB0007F092AE0CE010E945615800F911FDF91F8
:102BC000CF911F910F91FF90EF90DF90CF900895DC
:102BD0002AE0B701A601CE01DF91CF911F910F919D
:102BE000FF90EF90DF90CF900C9456159A01AB01B7
:102BF000770F660B770B0C94AC150F931F93CF9345
:102C0000DF93EC019A01AB01770F660B770B0E9403
:102C1000AC158C01CE010E94E814800F911FDF914A
:102C2000CF911F910F9108950F931F93CF93DF932F
:102C3000EC010E94AC158C01CE010E94E814800FBB
:102C4000911FDF91CF911F910F91089521153105AB
:102C500041F4DC01ED91FC910190F081E02D642FB5
:102C600019940C9456159A01462F50E060E070E0DC
:102C70000C9426160F931F93CF93DF93EC019A01C8
:102C8000462F50E060E070E00E9426168C01CE01D5
:102C90000E94E814800F911FDF91CF911F910F9137
:102CA00008959A01AB0160E070E00C9426160F9332
:102CB0001F93CF93DF93EC019A01AB0160E070E0CA
:102CC0000E9426168C01CE010E94E814800F911FED
:102CD000DF91CF911F910F9108950F931F93CF9381
:102CE000DF93EC010E9426168C01CE010E94E814AD
:102CF000800F911FDF91CF911F910F9108954F92F7
:102D00005F926F927F928F929F92AF92BF92CF927B
:102D1000DF92EF92FF92CF93DF93EC016A017B0188
:102D2000B22E9A01AB01C701B6010E94C2278823C7
:102D300019F06FEA73E027C026013701E89477F8AD
:102D40002FEF3FEF4FE75FE7C301B2010E94C227B9
:102D500081110DC02FEF3FEF4FE75FE7C301B201D5
:102D60000E94F12518161CF463EB73E00CC02FEFE2
:102D70003FEF4FE75FE4C701B6010E9450271816E6
:102D80009CF467EB73E0CE01DF91CF91FF90EF9061
:102D9000DF90CF90BF90AF909F908F907F906F907B
:102DA0005F904F900C94D5202FEF3FEF4FE75FECF3
:102DB000C701B6010E94F12587FDE3CF20E030E096
:102DC000A901C701B6010E94F12587FF0AC06DE283
:102DD000CE010E94D7144C01F7FAF094F7F8F09462
:102DE00002C0812C912CA12C60E070E080E09FE378
:102DF000AB1441F020E030E040E251E40E94F625BF
:102E0000A394F6CF9B01AC01C701B6010E948525B2
:102E10002B013C010E946F266B017C010E949E26C3
:102E20009B01AC01C301B2010E9484252B013C012E
:102E30002AE0B701A601CE010E9456157C01E80CDC
:102E4000F91CBB2039F06BEB73E0CE010E94D5205A
:102E5000E80EF91EDB2CDD2039F120E030E040E205
:102E600051E4C301B2010E9455272B013C010E948D
:102E700068264B01770FAA08BB082AE030E0B501AD
:102E8000A401CE010E94AC15E80EF91EC501B401E3
:102E90000E94A0269B01AC01C301B2010E948425BF
:102EA0002B013C01DA94D7CFC701DF91CF91FF907E
:102EB000EF90DF90CF90BF90AF909F908F907F90DA
:102EC0006F905F904F9008950C947F160F931F930F
:102ED000CF93DF93EC010E947F168C01CE010E94FC
:102EE000E814800F911FDF91CF911F910F910895EA
:102EF000FC01DB011182108213821282158214827E
:102F000016828D919C9111979183808312968D9159
:102F10009C9113979383828314968D919C9115971E
:102F20009583848311961C921E9213961C921E9276
:102F3000129715961C921E9214970895FC01DB01BE
:102F400011821082138212821582148216828D9150
:102F50009C9111979183808312968D919C911397E8
:102F60009383828314968D919C9115979583848386
:102F700011961C921E9213961C921E9212971596F1
:102F80001C921E9214970895FC01808191810C94EB
:102F9000EC24CF93DF93EC0188819981009711F0A5
:102FA0000E94EC24198218821D821C821B821A82C4
:102FB000DF91CF9108950F931F93CF93DF93EC018F
:102FC0008B016F5F7F4F888199810E948D230097CD
:102FD00031F0998388831B830A8381E001C080E0FC
:102FE000DF91CF911F910F910895CF93DF93EC0163
:102FF00088819981892B29F08A819B81861797077F
:1030000060F4CE010E94DB17882341F08C819D8102
:10301000892B19F4E881F981108281E0DF91CF9149
:103020000895EF92FF920F931F93CF93DF93EC01DC
:103030007B018A01BA010E94F517811104C0CE01FB
:103040000E94C91707C01D830C83B701888199812D
:103050000E949728CE01DF91CF911F910F91FF9091
:10306000EF900895FC011182108213821282158262
:10307000148216826115710551F0FB010190002048
:10308000E9F73197AF01461B570B0C9411180895BF
:103090000F931F93CF93DF938C01EB01FC01808191
:1030A0009181009799F0428153812C813D81421793
:1030B000530750F0688179810E9497288C819D8107
:1030C000F8019583848313C00E94EC248881998140
:1030D000F801918380838A819B81938382838C8191
:1030E0009D8195838483198218821B821A821D8296
:1030F0001C82DF91CF911F910F910895CF93DF93A1
:10310000EC01FB018617970761F060817181611501
:10311000710529F0448155810E94111802C00E9456
:10312000C917CE01DF91CF910895FC011182108261
:10313000138212821582148216820C947E18CF9309
:10314000DF93EC018617970711F00E944818CE0113
:10315000DF91CF910895CF93DF93EC018617970706
:1031600011F00E944818CE01DF91CF910895CF93BE
:10317000DF93EC016115710559F0FB01019000200E
:10318000E9F73197AF01461B570B0E94111802C097
:103190000E94C917CE01DF91CF910895CF93DF939D
:1031A0001F921F92CDB7DEB7FC01118210821382ED
:1031B000128215821482168269831A82BE016F5FA1
:1031C0007F4F0E94B7180F900F90DF91CF91089515
:1031D0000F931F93CF93DF93CDB7DEB729970FB629
:1031E000F894DEBF0FBECDBF8C01862FF80111828F
:1031F00010821382128215821482168250E0BE0160
:103200006F5F7F4F90E00E945229BE016F5F7F4F3A
:10321000C8010E94B71829960FB6F894DEBF0FBEFA
:10322000CDBFDF91CF911F910F9108950F931F9301
:10323000CF93DF93CDB7DEB762970FB6F894DEBFBA
:103240000FBECDBF8C01CB01F80111821082138219
:10325000128215821482168250E0BE016F5F7F4F8A
:103260000E94E028BE016F5F7F4FC8010E94B7181F
:1032700062960FB6F894DEBF0FBECDBFDF91CF913F
:103280001F910F9108950F931F93CF93DF93CDB7A5
:10329000DEB761970FB6F894DEBF0FBECDBF8C01CD
:1032A000CB01F801118210821382128215821482DE
:1032B000168250E0BE016F5F7F4F0E945229BE010F
:1032C0006F5F7F4FC8010E94B71861960FB6F894E0
:1032D000DEBF0FBECDBFDF91CF911F910F9108953B
:1032E0000F931F93CF93DF93CDB7DEB7A2970FB69F
:1032F000F894DEBF0FBECDBF8C01CB01BA01F8013F
:10330000118210821382128215821482168230E09A
:10331000AE014F5F5F4F0E94F628BE016F5F7F4F87
:10332000C8010E94B718A2960FB6F894DEBF0FBE70
:10333000CDBFDF91CF911F910F9108950F931F93F0
:10334000CF93DF93CDB7DEB7A1970FB6F894DEBF6A
:103350000FBECDBF8C01CB01BA01F80111821082E2
:103360001382128215821482168230E0AE014F5F02
:103370005F4F0E942529BE016F5F7F4FC8010E94E9
:10338000B718A1960FB6F894DEBF0FBECDBFDF9180
:10339000CF911F910F910895EF92FF920F931F937A
:1033A000CF93DF93FC01248135816115710511F400
:1033B00080E019C041155105A9F07B01EC018A019B
:1033C000020F131FB8010E94F517882389F3288183
:1033D00039818C819D81B701820F931F0E949728AC
:1033E0001D830C8381E0DF91CF911F910F91FF909E
:1033F000EF900895FB0144815581608171810C94A7
:10340000CC196115710551F0FB0101900020E9F71D
:103410003197AF01461B570B0C94CC1980E00895EF
:10342000CF93DF931F921F92CDB7DEB769831A82C5
:1034300041E050E0BE016F5F7F4F0E94CC190F90BA
:103440000F90DF91CF910895EF92FF920F931F930A
:10345000CF93DF9300D01F92CDB7DEB77C01862FCC
:103460004AE08E010F5F1F4FB80190E00E94EB28E9
:10347000F80101900020E9F73197AF01401B510B93
:10348000B801C7010E94CC190F900F900F900F90B8
:10349000DF91CF911F910F91FF90EF900895EF92E0
:1034A000FF920F931F93CF93DF93CDB7DEB727978C
:1034B0000FB6F894DEBF0FBECDBF7C01CB014AE052
:1034C0008E010F5F1F4FB8010E94EB28F801019099
:1034D0000020E9F73197AF01401B510BB801C7013C
:1034E0000E94CC1927960FB6F894DEBF0FBECDBF51
:1034F000DF91CF911F910F91FF90EF900895EF9280
:10350000FF920F931F93CF93DF9300D000D0CDB7DE
:10351000DEB77C01CB014AE08E010F5F1F4FB8017F
:103520000E945D29F80101900020E9F73197AF0171
:10353000401B510BB801C7010E94CC1926960FB64B
:10354000F894DEBF0FBECDBFDF91CF911F910F91D9
:10355000FF90EF900895EF92FF920F931F93CF93F8
:10356000DF93CDB7DEB72C970FB6F894DEBF0FBE52
:10357000CDBF7C01CB01BA012AE08E010F5F1F4F46
:10358000A8010E940129F80101900020E9F7319774
:10359000AF01401B510BB801C7010E94CC192C96FA
:1035A0000FB6F894DEBF0FBECDBFDF91CF911F9154
:1035B0000F91FF90EF900895EF92FF920F931F935A
:1035C000CF93DF93CDB7DEB72B970FB6F894DEBF5E
:1035D0000FBECDBF7C01CB01BA012AE08E010F5F87
:1035E0001F4FA8010E943029F80101900020E9F73F
:1035F0003197AF01401B510BB801C7010E94CC1994
:103600002B960FB6F894DEBF0FBECDBFDF91CF91E2
:103610001F910F91FF90EF900895CF93DF93EC01EE
:10362000FB0144815581608171810E94CC19811117
:1036300003C0CE010E94C917CE01DF91CF9108953A
:10364000CF93DF93EC016115710561F0FB010190EF
:103650000020E9F73197AF01461B570B0E94CC19A8
:10366000811103C0CE010E94C917CE01DF91CF9115
:103670000895CF93DF93EC010E94101A811103C0CB
:10368000CE010E94C917CE01DF91CF910895CF934B
:10369000DF93EC010E94241A811103C0CE010E9425
:1036A000C917CE01DF91CF910895CF93DF93EC013D
:1036B0000E944F1A811103C0CE010E94C917CE018A
:1036C000DF91CF910895CF93DF93EC010E947F1A91
:1036D000811103C0CE010E94C917CE01DF91CF91A5
:1036E0000895CF93DF93EC010E94AB1A811103C0C0
:1036F000CE010E94C917CE01DF91CF910895CF93DB
:10370000DF93EC010E94DC1A811103C0CE010E94FC
:10371000C917CE01DF91CF910895CF93DF93DC01DC
:10372000ED91FC91EB01A881B981309711F01097D0
:10373000C9F4109759F0EB012C813D81232B31F016
:103740008C9190E091958195910914C0309781F00A
:10375000DC0114968D919C911597892B49F08081FD
:1037600090E008C0BD01CF01DF91CF910C948E286D
:1037700080E090E0DF91CF910895FC014481558174
:10378000FB01248135814217530729F40E948D1BC8
:1037900021E0892B09F020E0822F0895FC0124818B
:1037A0003581232B31F421E061157105A1F0FB0176
:1037B00008C0FC01808191816115710531F421E01F
:1037C000FC018081882339F005C00E948E2821E009
:1037D000892B09F020E0822F08950E948D1B892FEC
:1037E000881F8827881F08950E948D1B21E01816C6
:1037F00019060CF020E0822F08950E948D1B21E015
:10380000181619060CF420E0822F08950E948D1BD3
:10381000892F8095881F8827881F0895EF92FF922F
:103820000F931F93CF93DF938617970729F1FC011E
:1038300024813581FB014481558124173507F1F43A
:10384000232BD1F0DC01CD91DC9100811181899194
:10385000882391F0082E000C990B0E9458287C01B7
:10386000F80181918F01082E000C990B0E945828B5
:10387000E816F90661F302C081E001C080E0DF9143
:10388000CF911F910F91FF90EF900895DB01149657
:10389000ED91FC911597DC0114962D913C911597B3
:1038A0002E1B3F0B24173507A0F02D913C912115BD
:1038B000310579F0DB016D917C916115710549F05D
:1038C000CA01AF01820F931F0E949E2821E0892B1D
:1038D00009F020E0822F0895FC0144815581FB010D
:1038E000248135814217530720F040E050E00C94CA
:1038F000461C80E00895FC0124813581FB01448150
:10390000558124173507A0F0FC0180819181009733
:1039100079F0FB01608171816115710549F0241B0B
:10392000350B820F931F0E948E2821E0892B09F00E
:1039300020E0822F0895FC012481358162177307EE
:1039400030F480819181FC01E60FF71F40830895D8
:10395000FC01248135816217730720F480819181F5
:10396000009729F41092BD068DEB96E00895860F1E
:10397000971F0895FC01248135816217730748F46D
:1039800080819181009729F0FC01E60FF71F80816B
:10399000089580E008950C94BA1C0F931F93CF9361
:1039A000DF934115510519F16115710501F1DC0134
:1039B0001496ED91FC9115972E173F0718F0FB0117
:1039C000108215C0E21BF30BEA012197EC17FD07EB
:1039D00008F4EF018B01FC0160817181620F731F9C
:1039E000AE01C8010E94AC28C00FD11F1882DF9120
:1039F000CF911F910F910895CF93DF93FC01248104
:103A000035814217530778F4C081D181062E000C0E
:103A1000770BCE01840F951F0E948328009719F021
:103A20008C1B9D0B02C08FEF9FEFDF91CF9108950C
:103A300040E050E00C94FC1CCF93DF93FC01248108
:103A400035814217530780F4FB01DC01CD91DC91F5
:103A500060817181CE01840F951F0E94C628009756
:103A600019F08C1B9D0B02C08FEF9FEFDF91CF9160
:103A7000089540E050E00C941C1DDF92EF92FF92FD
:103A80000F931F93CF93DF93DC0114962D913C91FC
:103A900015974217530718F08FEF9FEF1DC08C0149
:103AA000EA012196DC01ED91FC911197EC0FFD1FCD
:103AB000D0801082ED90FC90062E000C770BC70191
:103AC0000E94BB28CE0DDF1DD882009729F3F80194
:103AD00020813181821B930BDF91CF911F910F9138
:103AE000FF90EF90DF900895FC0144815581415093
:103AF00051090C943D1DAF92BF92CF92DF92EF928D
:103B0000FF920F931F93CF93DF937B018A01FB01F9
:103B1000448155814115510561F1FC0124813581B4
:103B20002115310531F12417350718F10217130754
:103B300018F0890101501109FC01A080B180C50174
:103B4000DFEFCFEF6501C00ED11EC816D906A0F079
:103B5000F701608171810E94C628009769F09C017D
:103B60002A193B090217130710F0D22FC32F019611
:103B7000ECCF8FEF9FEF02C08D2F9C2FDF91CF9165
:103B80001F910F91FF90EF90DF90CF90BF90AF907B
:103B90000895FC0144815581FB0124813581421B3C
:103BA000530B0C947B1DBF92CF92DF92EF92FF924A
:103BB0000F931F93CF93DF937C016B018A01E9017F
:103BC0002417350720F4812F8901C42FD82F6EE9DF
:103BD00073E0C7010E943218D60114968D919C9112
:103BE000159780179107D0F08C179D0708F4EC010A
:103BF000D601ED91FC911197EC0FFD1FB080108262
:103C00004D915C91BA01600F711FC7010E94B718F6
:103C1000D601ED91FC91EC0FFD1FB082C701DF9141
:103C2000CF911F910F91FF90EF90DF90CF90BF90B9
:103C30000895CF93DF93EC01FB01248135810E942D
:103C4000D31DCE01DF91CF910895DC01ED91FC9160
:103C5000309729F40895861301C0408331968081FE
:103C60008111F9CF08952F923F924F925F926F92F8
:103C70007F928F929F92AF92BF92CF92DF92EF92FC
:103C8000FF920F931F93CF93DF93FC0144805580E5
:103C90004114510409F4D2C0FB01648075806114A1
:103CA000710409F4CBC07A016B018C01FA01A48084
:103CB000B580A618B708FC01C081D181A114B10458
:103CC000C1F4F60160817181CE010E94C628EC0129
:103CD000892B09F4B3C0F70160817181448155815A
:103CE000CE010E946828F70184819581C80FD91FF1
:103CF000E8CFB7FE02C04E0105C0FB012080318035
:103D0000420143C0F60160817181C4010E94C6284E
:103D10002C01892B21F1320168187908A301B40123
:103D2000CE010E946828C60DD71DF7016081718100
:103D300044815581CE010E946828F70184819581D4
:103D4000C80FD91FF60184809580840C951CF8015A
:103D5000848195818A0D9B1D95838483D3CFB40183
:103D6000CE01DF91CF911F910F91FF90EF90DF90E7
:103D7000CF90BF90AF909F908F907F906F905F900B
:103D80004F903F902F900C949728B101CE010E9444
:103D9000C628009731F0EC01C60DD71D8A0C9B1C7C
:103DA000F4CF8414950409F449C0F8018281938109
:103DB0008815990530F4B401C8010E94DB178823E7
:103DC000E9F1F801448155814150510957FD36C050
:103DD000B601C8010E947B1DEC0197FD2FC0F801C0
:103DE00080819181F601248135812C0F3D1F820F46
:103DF000931FF80144815581421B530BBC018A0D6E
:103E00009B1D0E947128F801848195818A0D9B1D5C
:103E10009583848320813181F901E80FF91F108295
:103E2000F80180819181F701608171814481558120
:103E30008C0F9D1F0E946828AE01C6CFDF91CF91E5
:103E40001F910F91FF90EF90DF90CF90BF90AF90B8
:103E50009F908F907F906F905F904F903F902F90AA
:103E60000895CF93DF93FC01C081D181209751F059
:103E70008881882339F0082E000C990B0E9458285D
:103E80008993F6CFDF91CF910895CF93DF93FC0113
:103E9000C081D181209751F08881882339F0082E84
:103EA000000C990B0E9460288993F6CFDF91CF9187
:103EB0000895AF92BF92CF92DF92EF92FF920F934D
:103EC0001F93CF93DF93DC01CD90DC901197C11449
:103ED000D10409F442C01496CD91DC911597209736
:103EE000E1F18C0156017501BFEFAB1ABB0AF70176
:103EF0008081082E000C990B0E944F28892B99F77E
:103F00002197CC0DDD1D8881082E000C990B0E9495
:103F10004F28892B91F4AE014F5F5F4F4E195F0917
:103F2000D80115965C934E931497CE14DF0450F489
:103F3000B701C6010E94682805C0CE15DF0558F3F9
:103F40002197E1CFD801ED91FC91119714968D91B5
:103F50009C911597E80FF91F1082DF91CF911F9167
:103F60000F91FF90EF90DF90CF90BF90AF900895AA
:103F7000FC0180819181009711F00C94282860E069
:103F800070E0CB0108958EBD0DB407FEFDCF8EB558
:103F900008950E94D8010E94910F0E944F0F0E9425
:103FA000730F0E94910F0E94D90F6BE672E08BE7AE
:103FB00094E00E9420150E94E00E0E94DE0A0E94FA
:103FC000460C0E947E0DF7CF65E38DEE93E00C94D6
:103FD0001605FB01E05CFF4F208131812F5F3F4FD1
:103FE0002F733327DB01AE5BBF4F4D915C912417DC
:103FF000350741F040815181DB01A40FB51F8C933F
:10400000318320830895CF92DF92EF92FF92EBE706
:10401000F4E01382128288EEC82E83E0D82EE12CC1
:10402000F12CC482D582E682F78263EA73E0718361
:10403000608389E796E09587848785E396E0978794
:10404000868785EC90E0918B808B84EC90E0938B5D
:10405000828B80EC90E0958B848B81EC90E0978B49
:10406000868B82EC90E0918F808F86EC90E0938F2E
:10407000828F44E0448F33E0358F27E0268F95E030
:10408000978F81E080A3E9E5F4E013821282C48275
:10409000D582E682F78271836083A1EFB5E0B587B0
:1040A000A487ADEAB5E0B787A687ADECB0E0B18BE9
:1040B000A08BACECB0E0B38BA28BA8ECB0E0B58BDE
:1040C000A48BA9ECB0E0B78BA68BAAECB0E0B18FC3
:1040D000A08FAEECB0E0B38FA28F448F358F268FC8
:1040E000978F80A3E7E3F4E013821282C482D58223
:1040F000E682F78271836083A9E6B5E0B587A4877D
:10410000A5E2B5E0B787A687A5EDB0E0B18BA08B9F
:10411000A4EDB0E0B38BA28BA0EDB0E0B58BA48B87
:10412000A1EDB0E0B78BA68BA2EDB0E0B18FA08F70
:10413000A6EDB0E0B38FA28F448F358F268F978F77
:1041400080A3E5E1F4E013821282C482D582E68284
:10415000F7827183608361EE74E0758764876DE92F
:1041600074E07787668765E371E0718B608B64E349
:1041700071E0738B628B60E371E0758B648B61E33C
:1041800071E0778B668B62E371E0718F608F66E31D
:1041900071E0738F628F448F358F268F978F80A346
:1041A000FF90EF90DF90CF9008956115710579F041
:1041B000FB0101900020E9F73197AF01461B570B37
:1041C000DC01ED91FC910280F381E02D199480E0F7
:1041D00090E0089590E0FC013197E131F10508F09D
:1041E0004AC08827EC57FF4F8F4F0C94E9278091E6
:1041F00080008F7703C0809180008F7D8093800046
:10420000089584B58F7702C084B58F7D84BD0895ED
:104210008091B0008F7703C08091B0008F7D809334
:10422000B0000895809190008F7707C08091900032
:104230008F7D03C080919000877F809390000895C8
:104240008091A0008F7707C08091A0008F7D03C070
:104250008091A000877F8093A00008958091200125
:104260008F7707C0809120018F7D03C0809120014E
:10427000877F809320010895CF93DF9390E0FC0126
:10428000EA57FD4F2491FC01E453FD4F84918823AC
:1042900061F190E0880F991FFC01E45DFC4FC5912E
:1042A000D491FC01EE5EFC4FA591B491611109C05F
:1042B0009FB7F8948881209582238883EC912E23E0
:1042C0000BC0623061F49FB7F8943881822F8095DB
:1042D00083238883EC912E2B2C939FBF06C08FB72E
:1042E000F894E8812E2B28838FBFDF91CF9108951A
:1042F0001F93CF93DF93282F30E0F901E05CFD4F4F
:104300008491F901EA57FD4FD491F901E453FD4F2F
:10431000C491CC23C9F0162F81110E94EA20EC2F02
:10432000F0E0EE0FFF1FEE5EFC4FA591B4918FB74A
:10433000F894111105C09C91ED2FE095E92302C07E
:10434000EC91ED2BEC938FBFDF91CF911F910895EE
:10435000863308F0865390917B00282F2870977F32
:10436000922B90937B0087702091300290E4299FDC
:1043700090011124822B80937C0080917A008064CC
:1043800080937A0080917A0086FDFCCF809178003E
:104390002091790090E0922B08951F93CF93DF93A3
:1043A000182FEB0161E00E943C21209711F460E09E
:1043B00004C0CF3FD10529F461E0812F0E9478210C
:1043C000A5C0E12FF0E0E05CFD4FE4914E2F50E0FE
:1043D000FA013197E131F10508F093C08827EB56D7
:1043E000FF4F8F4F0C94E92784B5806884BDC7BD0B
:1043F0008DC084B5806284BDC8BD88C080918000B6
:10440000806880938000D0938900C09388007EC02C
:1044100080918000806280938000D0938B00C09355
:104420008A0074C08091B00080688093B000C0930F
:10443000B3006CC08091B00080628093B000C093E4
:10444000B40064C080919000806880939000D09305
:104450009900C09398005AC0809190008062809328
:104460009000D0939B00C0939A0050C08091900020
:10447000886080939000D0939D00C0939C0046C0BC
:104480008091A00080688093A0008091A0008F7B25
:104490008093A000D093A900C093A80037C080915A
:1044A000A00080628093A000D093AB00C093AA00CC
:1044B0002DC08091A00088608093A000D093AD00B3
:1044C000C093AC0023C080912001806880932001BC
:1044D000D0932901C093280119C0809120018062E6
:1044E00080932001D0932B01C0932A010FC08091AB
:1044F0002001886080932001D0932D01C0932C016E
:1045000005C0C038D1050CF057CF51CFDF91CF9106
:104510001F9108951F920F920FB60F9211242F939F
:104520003F938F939F93AF93BF938091BF069091DA
:10453000C006A091C106B091C2063091BE0623E02C
:10454000230F2D3720F40196A11DB11D05C026E8CB
:10455000230F0296A11DB11D2093BE068093BF06B6
:104560009093C006A093C106B093C2068091C30683
:104570009091C406A091C506B091C6060196A11DF2
:10458000B11D8093C3069093C406A093C506B09353
:10459000C606BF91AF919F918F913F912F910F9040
:1045A0000FBE0F901F9018952FB7F8946091BF061B
:1045B0007091C0068091C1069091C2062FBF0895E8
:1045C0003FB7F8948091C3069091C406A091C506A8
:1045D000B091C60626B5A89B05C02F3F19F00196DD
:1045E000A11DB11D3FBFBA2FA92F982F8827820F79
:1045F000911DA11DB11DBC01CD0142E0660F771FC9
:10460000881F991F4A95D1F70895CF92DF92EF92B4
:10461000FF92CF93DF936B017C010E94E022EB01BC
:10462000C114D104E104F10479F00E94E0226C1B72
:104630007D0B683E7340A0F381E0C81AD108E10801
:10464000F108C851DC4FECCFDF91CF91FF90EF9094
:10465000DF90CF900895789484B5826084BD84B54E
:10466000816084BD85B5826085BD85B5816085BD6D
:10467000EEE6F0E0808181608083E1E8F0E0108286
:10468000808182608083808181608083E0E8F0E0C7
:10469000808181608083E1EBF0E0808184608083B1
:1046A000E0EBF0E0808181608083E1E9F0E08081EF
:1046B00082608083808181608083E0E9F0E0808196
:1046C00081608083E1EAF0E0808182608083808184
:1046D00081608083E0EAF0E0808181608083E1E2B4
:1046E000F1E0808182608083808181608083E0E26C
:1046F000F1E0808181608083EAE7F0E0808184607E
:1047000080838081826080838081816080838081DA
:10471000806880831092C1000895A0E0B0E0E3E9D2
:10472000F3E20C94F527EC01009721F4CB010E94F1
:104730005724B8C0FC01E60FF71F9C012250310935
:10474000E217F30708F4ACC0D9010D911C91119741
:1047500006171707B0F00530110508F49FC0C8010F
:1047600004978617970708F499C002501109061B91
:10477000170B019311936D937C93CF010E94EC244E
:104780008DC05B01A01AB10A4C01800E911EA09150
:10479000C906B091CA0640E050E0E12CF12C109718
:1047A00009F44AC0A815B905D1F56D907C90119710
:1047B000630182E0C80ED11CCA14DB0480F1A3019E
:1047C0004A195B096A0182E0C80ED11C1296BC909E
:1047D00012971396AC91B5E0CB16D10440F0B2829B
:1047E000A38351834083D9016D937C930AC00E5FEC
:1047F0001F4FC301800F911FF90191838083EB2D1F
:10480000FA2FE114F10431F0D7011396FC93EE93E3
:10481000129744C0F093CA06E093C9063FC08D9139
:104820009C9111974817590708F4AC017D01129625
:104830000D90BC91A02DB3CF8091C7069091C80672
:1048400088159905E1F446175707C8F4809131029D
:1048500090913202009741F48DB79EB74091350296
:1048600050913602841B950BE817F907C8F4F093B2
:10487000C806E093C706F901718360830FC0CB01BE
:104880000E9457247C01009759F0A801BE010E94A4
:104890006828CE010E94EC24C70104C0CE0102C0EA
:1048A00080E090E0CDB7DEB7EEE00C941128CF9316
:1048B000DF938230910510F482E090E0E091C90628
:1048C000F091CA0620E030E0C0E0D0E0309711F16E
:1048D0004081518148175907C0F04817590761F4C2
:1048E00082819381209719F09B838A832BC09093B8
:1048F000CA068093C90626C02115310519F0421752
:10490000530718F49A01BE01DF01EF010280F38121
:10491000E02DDCCF2115310509F1281B390B24309E
:10492000310590F412968D919C9113976115710544
:1049300021F0FB019383828304C09093CA06809385
:10494000C906FD01329644C0FD01E20FF31F8193B9
:104950009193225031092D933C933AC02091C70680
:104960003091C806232B41F4209133023091340258
:104970003093C8062093C70620913102309132024D
:104980002115310541F42DB73EB7409135025091C4
:104990003602241B350BE091C706F091C806E217DA
:1049A000F307A0F42E1B3F0B2817390778F0AC0152
:1049B0004E5F5F4F2417350748F04E0F5F1F50932F
:1049C000C8064093C7068193919302C0E0E0F0E0EF
:1049D000CF01DF91CF9108950F931F93CF93DF9372
:1049E000009709F48CC0FC01329713821282009167
:1049F000C9061091CA060115110581F42081318183
:104A0000820F931F2091C7063091C80628173907D7
:104A100079F5F093C806E093C70671C0D80140E06D
:104A200050E0AE17BF0750F412962D913C911397AA
:104A3000AD012115310509F1D901F3CF9D01DA014D
:104A40003383228360817181860F971F82179307BA
:104A500069F4EC0128813981260F371F2E5F3F4F03
:104A6000318320838A819B8193838283452B29F420
:104A7000F093CA06E093C90642C01396FC93EE93E6
:104A80001297ED01499159919E01240F351FE217AC
:104A9000F30771F480819181840F951F029611961E
:104AA0009C938E938281938113969C938E931297FD
:104AB000E0E0F0E0D80112968D919C911397009759
:104AC00019F0F8018C01F6CF8D919C9198012E5F21
:104AD0003F4F820F931F2091C7063091C8062817B9
:104AE000390769F4309729F41092CA061092C90662
:104AF00002C0138212821093C8060093C706DF918A
:104B0000CF911F910F9108955058BB27AA270E945B
:104B10009C250C9416270E94082738F00E940F2726
:104B200020F039F49F3F19F426F40C9405270EF475
:104B3000E095E7FB0C94FF26E92F0E94272758F306
:104B4000BA17620773078407950720F079F4A6F572
:104B50000C9449270EF4E0950B2EBA2FA02D0B01D3
:104B6000B90190010C01CA01A0011124FF27591BB2
:104B700099F0593F50F4503E68F11A16F040A22FB8
:104B8000232F342F4427585FF3CF46953795279529
:104B9000A795F0405395C9F77EF41F16BA0B620B28
:104BA000730B840BBAF09150A1F0FF0FBB1F661F6F
:104BB000771F881FC2F70EC0BA0F621F731F841FB2
:104BC00048F4879577956795B795F7959E3F08F0D8
:104BD000B0CF9395880F08F09927EE0F979587959A
:104BE00008950E94DB2608F481E008950E940A26B9
:104BF0000C9416270E940F2758F00E94082740F0B7
:104C000029F45F3F29F00C94FF2651110C944A2798
:104C10000C9405270E94272768F39923B1F35523A5
:104C200091F3951B550BBB27AA27621773078407BF
:104C300038F09F5F5F4F220F331F441FAA1FA9F355
:104C400035D00E2E3AF0E0E832D091505040E69543
:104C5000001CCAF72BD0FE2F29D0660F771F881FA4
:104C6000BB1F261737074807AB07B0E809F0BB0B97
:104C7000802DBF01FF2793585F4F3AF09E3F5105AB
:104C800078F00C94FF260C944A275F3FE4F3983E9B
:104C9000D4F3869577956795B795F7959F5FC9F794
:104CA000880F911D9695879597F90895E1E0660F15
:104CB000771F881FBB1F621773078407BA0720F08E
:104CC000621B730B840BBA0BEE1F88F7E0950895F7
:104CD0000E946F266894B1110C944A2708950E948F
:104CE0002F2788F09F5798F0B92F9927B751B0F028
:104CF000E1F0660F771F881F991F1AF0BA95C9F760
:104D000014C0B13091F00E944927B1E008950C948D
:104D10004927672F782F8827B85F39F0B93FCCF340
:104D2000869577956795B395D9F73EF490958095DC
:104D3000709561957F4F8F4F9F4F0895E89409C0FC
:104D400097FB3EF490958095709561957F4F8F4FBE
:104D50009F4F9923A9F0F92F96E9BB279395F695D4
:104D6000879577956795B795F111F8CFFAF4BB0F52
:104D700011F460FF1BC06F5F7F4F8F4F9F4F16C0B6
:104D8000882311F096E911C0772321F09EE8872F40
:104D9000762F05C0662371F096E8862F70E060E0FC
:104DA0002AF09A95660F771F881FDAF7880F969575
:104DB000879597F90895990F0008550FAA0BE0E819
:104DC000FEEF16161706E807F907C0F012161306CD
:104DD000E407F50798F0621B730B840B950B39F40D
:104DE0000A2661F0232B242B252B21F408950A2673
:104DF00009F4A140A6958FEF811D811D089597F9B3
:104E00009F6780E870E060E008959FEF80EC089570
:104E100000240A9416161706180609060895002499
:104E20000A9412161306140605060895092E039413
:104E3000000C11F4882352F0BB0F40F4BF2B11F487
:104E400060FF04C06F5F7F4F8F4F9F4F089557FDE6
:104E50009058440F551F59F05F3F71F04795880FE8
:104E600097FB991F61F09F3F79F08795089512167F
:104E700013061406551FF2CF4695F1DF08C016162B
:104E800017061806991FF1CF8695710561050894DC
:104E90000895E894BB2766277727CB0197F90895F3
:104EA0000E94DB2608F48FEF08950E9468270C9477
:104EB00016270E94082738F00E940F2720F095231C
:104EC00011F00C94FF260C94052711240C944A270A
:104ED0000E94272770F3959FC1F3950F50E0551F4F
:104EE000629FF001729FBB27F00DB11D639FAA273F
:104EF000F00DB11DAA1F649F6627B00DA11D661F8E
:104F0000829F2227B00DA11D621F739FB00DA11DAE
:104F1000621F839FA00D611D221F749F3327A00D68
:104F2000611D231F849F600D211D822F762F6A2F04
:104F300011249F5750409AF0F1F088234AF0EE0F69
:104F4000FF1FBB1F661F771F881F91505040A9F796
:104F50009E3F510580F00C94FF260C944A275F3F3A
:104F6000E4F3983ED4F3869577956795B795F795D2
:104F7000E7959F5FC1F7FE2B880F911D969587954A
:104F800097F908950E94DB26880B990B0895A1E2FA
:104F90001A2EAA1BBB1BFD010DC0AA1FBB1FEE1FB3
:104FA000FF1FA217B307E407F50720F0A21BB30BFE
:104FB000E40BF50B661F771F881F991F1A9469F77A
:104FC00060957095809590959B01AC01BD01CF01D6
:104FD0000895EE0FFF1F881F8BBF0790F691E02DFD
:104FE00019942F923F924F925F926F927F928F927D
:104FF0009F92AF92BF92CF92DF92EF92FF920F9368
:105000001F93CF93DF93CDB7DEB7CA1BDB0B0FB671
:10501000F894DEBF0FBECDBF19942A88398848881E
:105020005F846E847D848C849B84AA84B984C884C4
:10503000DF80EE80FD800C811B81AA81B981CE0FBB
:10504000D11D0FB6F894DEBF0FBECDBFED010895A0
:105050001F93FC0199278827BC01E8941191103215
:10506000E9F3193010F01E30C8F31B3251F01D3235
:1050700049F4689406C00E941029610F711D811DBA
:10508000911D119110531A30B0F33EF49095809514
:10509000709561957F4F8F4F9F4F1F91089591118C
:1050A0000C947729803219F089508550C8F70895FB
:1050B0009111089581548A5108F4805E855A0895AB
:1050C0009111089581568A5108F4805285580895A7
:1050D000FB01DC0102C001900D9241505040D8F715
:1050E00008956817790768F4FB01DC01E40FF51FE8
:1050F000A40FB51F02C002900E9241505040D8F745
:1051000008950C946828FC018191861721F088236A
:10511000D9F7992708953197CF010895FB01DC0154
:105120008D91019080190110D9F3990B0895FB011D
:10513000DC0101900D920020E1F70895FB01DC01F4
:105140004150504030F08D910190801919F40020A9
:10515000B9F7881B990B0895FB01DC0141505040C1
:1051600048F001900D920020C9F701C01D924150F6
:105170005040E0F70895FC0181E090E001900616B0
:1051800009F4CF010020D1F701970895FB01519157
:105190005523A9F0BF01DC014D9145174111E1F7FD
:1051A00059F4CD010190002049F04D914015411175
:1051B000C9F3FB014111EFCF81E090E00197089521
:1051C0004532510520F4423010F00C94EB28FB01DD
:1051D0001082CB010895BB274A3031F4992322F481
:1051E000BDE2909581959F4F0C945E292532310543
:1051F00020F4223010F00C940129FA011082CA0127
:105200000895BB272A3051F4992342F4BDE29095CA
:105210008095709561957F4F8F4F9F4F0C943129EA
:10522000592F482F372F262F660F771F881F991F5A
:10523000660F771F881F991F620F731F841F951FAA
:10524000660F771F881F991F08952532310520F4B6
:10525000223010F00C943029FA011082CA0108950E
:10526000BB27FA01A62F6217710581059105330B43
:1052700030FB66F0AA27660F771F881F991FAA1FA9
:10528000A21710F0A21B63953850A9F7A05DAA33AE
:1052900008F0A95DA19336F7B111B1931082CA014C
:1052A0000C947A294532510520F4423010F00C94C8
:1052B0005D29FB011082CB010895BB27FB01552717
:1052C000AA27880F991FAA1FA41710F0A41B839563
:1052D0005051B9F7A05DAA3308F0A95DA1930097DA
:1052E00079F7B111B1931192CB010C947A299927D6
:1052F00088270895DC01FC01672F71917723E1F77E
:10530000329704C07C916D9370836291AE17BF0792
:08531000C8F30895F894FFCFE3
:10531800000020410000DC420000A0420000D24210
:105328000000000000007042000082420000C842F5
:10533800000000000000803F0000404133935B44C0
:10534800010000CB068000696E69745F736572693D
:10535800616C3A207061737300696E69745F636190
:105368006E3A207265747279696E6700696E697445
:105378005F63616E3A207061737300696E697420AF
:10538800636F6D706C657465004D61737465722030
:1053980043796C696E646572204F70656E004D616B
:1053A800737465722043796C696E64657220436C0E
:1053B8006F736500436F6E74726F6C20656E616207
:1053C8006C656400436F6E74726F6C2064697361FE
:1053D800626C6564004F70657261746F72206F76DD
:1053E800657272696465004261642076616C7565F6
:1053F80020726561642066726F6D206D61737465DB
:10540800722063796C696E6465722070726573735B
:105418007572652073656E736F72004261642076E1
:10542800616C756520726561642066726F6D2061BC
:105438006363756D756C61746F72207072657373D8
:105448007572652073656E736F72004261642076B1
:10545800616C756520726561642066726F6D207776
:105468006865656C20707265737375726520736505
:105478006E736F72004661756C74207265706F721E
:10548800742072656365697665642066726F6D3A2B
:1054980020002020445443733A2000696E69742028
:1054A800436F6E74726F6C2043414E202D200000B4
:1054B8000000007710551420104C1030106C106E3E
:0E54C800616E00696E66006F7666002E000051
:00000001FF
