:100000000C9470000C9498000C9498000C94980038
:100010000C9498000C9498000C9498000C94DB08B5
:100020000C9498000C9498000C9498000C94B408CC
:100030000C9498000C9498000C9498000C949800E0
:100040000C94291D0C9498000C94630E0C94A60E2D
:100050000C9498000C9498000C9498000C949800C0
:100060000C9498000C949800B6037D03BA038103A6
:10007000840387038B038E039203950398039B03EA
:100080009E03A203A603AA03AD03B003000000076A
:100090000002010000030406000000000000000050
:1000A000010204081020408001020408102001020F
:1000B00004081020040404040404040402020202DC
:1000C00002020303030303030000000025002800CD
:1000D0002B0000000000240027002A00181C271C09
:1000E00011241FBECFEFD8E0DEBFCDBF11E0A0E0EE
:1000F000B1E0E2E4F8E402C005900D92A63FB1073A
:10010000D9F722E0A6EFB1E001C01D92A93DB207E8
:10011000E1F710E0C0E7D0E004C02197FE010E94A3
:100120008022CE36D107C9F70E94031C0C941F24ED
:100130000C9400000C94CA1DCF93DF93EC01842F24
:100140001E821F821886E4E0F0E0FA87E98791E0DA
:100150009B87488359833B832A8363307105C1F0B1
:100160003CF46130710561F06230710561F013C0DB
:100170006530710541F024F06630710549F00BC01F
:1001800028E030E002C02AE030E03D832C8305C047
:100190002CE030E0FACF1D821C8261E00E94A01C9E
:1001A00061E08A810E94A01C61E088810E94DC1CC1
:1001B00061E08A810E94DC1C0E94920D81E00E9415
:1001C000AC0D80E00E94B50D8985DF91CF910C9434
:1001D000BA0DFC0166830895FC0160870895FC0157
:1001E0006387862F08956130710519F4FC01178229
:1001F00006C06230710529F421E0FC01278381E00B
:10020000089580E008956730710540F4FC0172871D
:100210006187862F0E94BA0D81E0089580E00895DD
:10022000CF93DF93EC018885882311F02A9804C0CE
:1002300060E088810E94DC1C2E8130E030E4239F46
:10024000302D222711248F81882319F080E090E03F
:1002500002C080E090E2282B392B832F0E94FD1BE7
:1002600080E00E94FD1B8885882321F02A9ADF9177
:10027000CF91089561E08881DF91CF910C94DC1CCF
:10028000EF92FF920F931F93CF93DF931F92CDB7FF
:10029000DEB78C017B01FC01848195818C30910556
:1002A00019F4FFE0FF2209C08A30910519F483E0B8
:1002B000F82203C0089709F4FF24F80180858823F9
:1002C00011F02A9807C060E0F801808149830E94FC
:1002D000DC1C498160E070E0742F77957727779573
:1002E000F8019681292F30E0C90190E4899F902D73
:1002F000882711249B01282B392B8781882319F00B
:1003000080E090E002C080E090E2F80164817581B5
:100310004CE050E0461B570B02C0EE0CFF1C4A9508
:10032000E2F76894F4F8822B932BE82AF92A8F2DB0
:100330000E94FD1B8E2D0E94FD1BF80180858823E5
:1003400049F02A9A0F90DF91CF911F910F91FF9062
:10035000EF90089561E0F80180810F90DF91CF91D7
:100360001F910F91FF90EF900C94DC1C40E050E047
:100370000C94400140E050E00C94400141E050E01A
:100380000C944001CF93DF93FC018281938197FD10
:1003900011C02085222321F05F9800005F9A0AC0D7
:1003A000EF0160E00E94DC1C61E08A81DF91CF9167
:1003B0000C94DC1CDF91CF9108950F931F93CF9382
:1003C000DF93EC018A0140E050E00E94400141E0EF
:1003D00050E0B801CE010E9440018B85882339F09E
:1003E000CE01DF91CF911F910F910C94C201DF914B
:1003F000CF911F910F910895CF92DF92EF92FF92CC
:100400000F931F93CF93DF93E901811106C01882E8
:1004100019821A821B821C821DC06A017B010E9404
:10042000731D2881211106C021E0288369837A8306
:100430008B839C8309811A812B813C81DC01CB0158
:10044000801B910BA20BB30B21E08C159D05AE0513
:10045000BF0508F420E0822FDF91CF911F910F910B
:10046000FF90EF90DF90CF9008950F931F93FB01C3
:10047000BA01A9019801892B29F081E0EF2B19F02D
:1004800080E001C081E01F910F910C94FC01CF939B
:10049000DF93EC0160E088890E94DC1C80EC0E9404
:1004A000FD1B61E088890E94DC1C6AE070E080E04E
:1004B00090E0DF91CF910C94A41D1F93CF93DF9315
:1004C000EC01162F60E088890E94DC1C83E00E940A
:1004D000FD1B812F0E94FD1B80E00E94FD1B182F39
:1004E00061E088890E94DC1C812FDF91CF911F91F0
:1004F0000895CF92DF92EF92FF920F931F93CF93C5
:10050000DF9300D0CDB7DEB77C01162FC22E60E09E
:10051000FC01808949835A830E94DC1C83E00E948D
:10052000FD1B812F0E94FD1B4981042F5A81152F2D
:10053000D12CDC1459F0F8E0DF1641F080E00E9485
:10054000FD1BF80181938F01D394F3CF61E0F70194
:1005500080890F900F90DF91CF911F910F91FF90A5
:10056000EF90DF90CF900C94DC1CEF92FF921F93E2
:10057000CF93DF931F92CDB7DEB77C01162F60E0DB
:10058000FC01808949830E94DC1C82E00E94FD1BE3
:10059000812F0E94FD1B4981842F0E94FD1B61E079
:1005A000F70180890F90DF91CF911F91FF90EF901D
:1005B0000C94DC1CCF92DF92EF92FF920F931F936B
:1005C000CF93DF9300D0CDB7DEB78C01E62EF22EAD
:1005D00060E0FC01808949835A830E94DC1C82E030
:1005E0000E94FD1B8E2D0E94FD1B4981E42EC42E0E
:1005F0005A81D52E8C2D8E198F1530F4F6018191EC
:100600006F010E94FD1BF6CF61E0F80180890F9019
:100610000F90DF91CF911F910F91FF90EF90DF909E
:10062000CF900C94DC1CEF92FF921F93CF93DF933B
:1006300000D0CDB7DEB77C01162F60E0FC018089C9
:100640002A8349830E94DC1C85E00E94FD1B812FC8
:100650000E94FD1B4981842F0E94FD1B2A81822F4D
:100660000E94FD1B61E0F70180890F900F90DF91E0
:10067000CF911F91FF90EF900C94DC1C1F93CF93B0
:10068000DF93EC0160E088890E94DC1C80EA0E9414
:10069000FD1B80E00E94FD1B182F61E088890E94ED
:1006A000DC1C812FDF91CF911F9108950F931F9331
:1006B000CF938C01C62F262F40EE6FE00E941303CC
:1006C0006FE0C8010E945D02982F907E81E09C132C
:1006D00001C080E0CF911F910F9108950F931F9358
:1006E000CF93DF93462F50E0FA013197E231F105C5
:1006F000D8F5EC5CFF4F0C948022C7E8DFEF4FE1A8
:100700003CC0C7E0DAEB38C0C5E8D1EF35C0C7E080
:10071000DEEB49E032C0C7E8DFEF02C0C7E8DAEF3E
:1007200047E02BC0C7E8DFEF0BC0C7E0DEEB08C037
:10073000C7E0DDEA05C0C7E8DAEF02C0C6E8D0EFDF
:1007400043E01BC0C7E8DAEF41E017C0C5E8D1EFCE
:1007500041E413C0C6E8D0EF05C0C4E0D0EA02C04F
:10076000C2E8D0ED40E009C081E016C0C7E8DFEF85
:100770004FE303C0C7E8DFEF4FE08C016AE20E945D
:10078000B5024D2F69E2C8010E94B5024C2F68E204
:10079000C8010E94B50280E0DF91CF911F910F91B7
:1007A00008950F931F93CF938C01C0E340E06C2F0B
:1007B000C8010E94B50260E16C0F40E0C8010E94D0
:1007C000B50260E26C0F40E0C8010E94B502CF5F45
:1007D000CE3361F740E060E6C8010E94B50240E018
:1007E00060E7C801CF911F910F910C94B5020F9350
:1007F0001F93CF93DF93EC01062F0E94470260E81E
:10080000CE010E945603182F6AE070E080E090E06D
:1008100011110CC00E94A41D602FCE010E946E0316
:10082000882339F06AE070E080E090E00E94A41D27
:1008300028C06AE070E080E090E00E94A41DCE0134
:100840000E94D10343E06BE2CE010E94B50224E096
:1008500044E660E6CE010E94130320E040E660E734
:10086000CE010E94130360E0CE010E945603C82F00
:100870008823C1F26AE070E080E090E00E94A41D4D
:100880001C2F812FDF91CF911F910F9108950F930E
:100890001F93CF93DF9300D000D0CDB7DEB74130A8
:1008A000B1F40C831B83890122273327502F5C71FD
:1008B000402F437078E0579F400D112448604A83D1
:1008C00055E0169507955A95E1F709830DC0A801E3
:1008D00023E0569547952A95E1F749830295000F45
:1008E000007E0A831C821B8224E0AE014F5F5F4FB3
:1008F0000E94DA020F900F900F900F90DF91CF912E
:100900001F910F910895EF92FF920F931F93CF9332
:10091000DF9300D000D0CDB7DEB77A018901FA01AC
:100920001082F901108211821282138224E0AE013A
:100930004F5F5F4F0E9479022A813981822F90E0B8
:1009400065E0959587956A95E1F7F8E03F9F800D02
:10095000911D1124092E000CAA0BBB0BF8018083FA
:100960009183A283B38323FF25C032E0880F991FB0
:10097000AA1FBB1F3A95D1F72370820F911DA11DAD
:10098000B11DBA2FA92F982F88272B81820F911D77
:10099000A11DB11DBA2FA92F982F88272C81820F56
:1009A000911DA11DB11D80839183A283B38381E03A
:1009B000F70180830F900F900F900F90DF91CF91F0
:1009C0001F910F91FF90EF900895FF920F931F9347
:1009D000CF93DF93EC01F62E8A01AC014A5F5F4FA3
:1009E00065E06F0D2D810E94DA020130110519F4C6
:1009F0008D8180648D8364E06F0D4D81CE010E94F6
:100A0000B50209811A812B813C8148816F2DCE016D
:100A10000E944704DF91CF911F910F91FF9008959D
:100A20000F931F93CF93DF93EC01162F9C012F5F41
:100A30003F4FAC010E9483046FEF610FCE010E9413
:100A40005D02082F64E0610FCE010E945D0203FB8E
:100A5000002700F90E87282F2F702D83AE014A5FE3
:100A60005F4F65E0610FCE01DF91CF911F910F9134
:100A70000C947902615028E048E00C941303AF9283
:100A8000BF92CF92DF92EF92FF920F931F93CF937B
:100A9000DF9300D01F92CDB7DEB75C016B0180E31E
:100AA000898380E48A8380E58B83FB0110828E0139
:100AB0000F5F1F4F83E0E82EE00EF801F1908F01E9
:100AC0006F2DC5010E945D02982F987083FD04C0B0
:100AD000F394F601F08203C0E012EFCF92E0892F89
:100AE0000F900F900F90DF91CF911F910F91FF907A
:100AF000EF90DF90CF90BF90AF900895FC01608B96
:100B000008951F93CF93DF93EC01162F61E088893E
:100B10000E94A01C61E088890E94DC1C0E94920D4A
:100B2000612FCE010E94F70391E0811101C090E096
:100B3000892FDF91CF911F9108958F929F92AF924D
:100B4000BF92DF92EF92FF920F931F93CF93DF93A9
:100B50001F92CDB7DEB77C01D62E480159016AE05D
:100B600070E080E090E049830E94A41D60E8C70126
:100B70000E945603182F4981882329F06AE070E00B
:100B800080E090E01AC0D11004C09501840160E2B9
:100B900006C081E0D81206C09501840164E2C70155
:100BA0000E94470460E0C7010E945603182F6AE0C4
:100BB00070E080E090E0112321F00E94A41D812FBD
:100BC00003C00E94A41D80E00F90DF91CF911F9180
:100BD0000F91FF90EF90DF90BF90AF909F908F901C
:100BE00008958F929F92AF92BF92EF92FF920F93D0
:100BF0001F93CF93DF9300D0CDB7DEB77C01562F84
:100C0000480159016AE070E080E090E04A8359832E
:100C10000E94A41D60E8C7010E945603182F4A8154
:100C20005981882329F06AE070E080E090E031C0CB
:100C30005230B1F040F4552379F05130F9F4950178
:100C4000840164E018C0543099F070F05530B1F46C
:100C50009501840168E10FC09501840160E00BC03B
:100C60009501840168E007C09501840160E103C03B
:100C70009501840164E1C7010E94470460E0C70157
:100C80000E945603182F6AE070E080E090E0112384
:100C900021F00E94A41D812F03C00E94A41D80E0AA
:100CA0000F900F90DF91CF911F910F91FF90EF90D8
:100CB000BF90AF909F908F900895CF92DF920F9347
:100CC0001F93FC0120834183528363837483093023
:100CD00008F008E005833696D60110E0CD018C19A6
:100CE0009D09801791071CF48D918193F7CF80E0C7
:100CF0001F910F91DF90CF900895EF92FF920F9385
:100D00001F93FC01208341835283638374830930E2
:100D100008F008E005833696D70110E0CD018E1962
:100D20009F09801791071CF48D918193F7CF80E084
:100D30001F910F91FF90EF900895FC011182128294
:100D400013821482158210821686178680E0089519
:100D5000CF92DF92EF92FF920F931F93CF93DF9387
:100D60001F92CDB7DEB77C016B0100E010E0BE0141
:100D70006F5F7F4FC7010E943F050F5F1F4F82309B
:100D800021F40233110599F720C002331105E9F06F
:100D9000A6016981C7010E94E5046981C7010E941B
:100DA0003A0500E010E00F5F1F4F69816150C701F5
:100DB0000E945D0283FF04C002331105A1F707C042
:100DC0000233110521F080E003C086E001C087E016
:100DD0000F90DF91CF911F910F91FF90EF90DF90D7
:100DE000CF900895AF92BF92CF92DF92EF920F9380
:100DF000CF935C01C02F0E2DEC2E0E945D066C2F50
:100E000070E0C501CF910F91EF90DF90CF90BF9030
:100E1000AF900C94A806EF92FF920F93CF93DF93BD
:100E2000EC010E947D0660E070E0CE01DF91CF9181
:100E30000F91FF90EF900C94A806CF93DF93EC01F5
:100E40000E943E0380FF07C061E6CE010E941005AC
:100E500020E041E008C081FF0CC061E7CE010E94A4
:100E6000100520E042E06CE2CE010E94130380E016
:100E700001C084E0DF91CF910895EF92FF920F932C
:100E80001F93CF93DF93EC018B017A010E941D0722
:100E9000811111C09D81F8019083DE011696F70142
:100EA0002D8130E0BF016E197F09621773072CF4A2
:100EB0009D919193F5CFF8011082DF91CF911F9111
:100EC0000F91FF90EF900895CF92DF92EF92FF92F3
:100ED0000F931F93CF93DF9300D0CDB7DEB76C0194
:100EE0007B018A0129833A830E941D0729813A8167
:100EF000811123C0F6019581F8019083F6014181AB
:100F0000528163817481F7014083518362837383CB
:100F1000D6011696B90120E030E0F601458150E097
:100F20002417350764F42830310549F09D91FB0101
:100F30009193BF012F5F3F4FF0CFF80110820F90C8
:100F40000F90DF91CF911F910F91FF90EF90DF9065
:100F5000CF9008950E943E03837011F484E00895B9
:100F600083E008956DE20E945D02887F09F085E0CC
:100F70000895FC0161817281838194810895FC014F
:100F800086850895FC018081089540E052EC61E07F
:100F900070E081E292E00E94250F67E071E081E25B
:100FA00092E00C945B11CF93DF93EC0160E1CE01F2
:100FB0000E948105882369F062E370E080E090E0A0
:100FC0000E94A41D69E171E081E292E00E945B1140
:100FD000EDCF6CE271E081E292E0DF91CF910C9471
:100FE0005B11CF93DF9361157105F1F0EB0121E106
:100FF000FB0111922A95E9F7F8949B01275F3F4F77
:10100000AB014C5F5F4F0E946407811109C00E94D1
:10101000731D6D837E838F83988780E090E002C08C
:1010200081E090E0789402C082E090E0DF91CF917F
:1010300008952F923F924F925F926F927F928F927C
:101040009F92AF92BF92CF92DF92EF92FF921F9347
:10105000CF93DF93CDB7DEB728970FB6F894DEBFF6
:101060000FBECDBF1C01122F6B01770FEE08FF08DA
:10107000412C512C3201812C912C54014C145D04D3
:101080006E047F049CF4842F48870E940C1D092E57
:10109000000CAA0BBB0B880E991EAA1EBB1E8FEF5D
:1010A000481A580A680A780A4885E8CFC501B40189
:1010B000A70196010E94612262E0220F331F441FA4
:1010C000551F6A95D1F7412C512C3201812C912C5E
:1010D00054014C145D046E047F04CCF4812F2D83E5
:1010E0003E8348875F830E940C1D092E000CAA0BCB
:1010F000BB0B880E991EAA1EBB1E9FEF491A590AE8
:10110000690A790A5F8148853E812D81E2CFB90164
:10111000C1010E94BA01C501B401A70196010E9454
:101120006122CA01B90122E0660F771F881F991F4B
:101130002A95D1F7C10128960FB6F894DEBF0FBEED
:10114000CDBFDF91CF911F91FF90EF90DF90CF90B7
:10115000BF90AF909F908F907F906F905F904F90D7
:101160003F902F900C94BE011F920F920FB60F92DA
:1011700011242F933F934F935F936F937F938F939C
:101180009F93AF93BF93EF93FF93E091F801F0919A
:10119000F9010995FF91EF91BF91AF919F918F91C7
:1011A0007F916F915F914F913F912F910F900FBE63
:1011B0000F901F9018951F920F920FB60F92112447
:1011C0002F933F934F935F936F937F938F939F934F
:1011D000AF93BF93EF93FF93E091F601F091F70186
:1011E0000995FF91EF91BF91AF919F918F917F9161
:1011F0006F915F914F913F912F910F900FBE0F9084
:101200001F901895CF92DF92EF92FF92CF93DF93CA
:101210006B017C01EA01F894109280001092810029
:10122000109285001092840020E030E040E857E4FE
:101230000E94CD219B01AC0160E074E284E79BE455
:101240000E946E200E94E720613021E07207810534
:10125000910550F08091810085608093810060E06D
:1012600074E080E090E036C061347105810591053D
:1012700050F08091810084608093810060E071E093
:1012800080E090E027C0693071058105910550F03C
:101290008091810083608093810060E470E080E051
:1012A00090E018C0623071058105910550F0809181
:1012B000810082608093810068E070E080E090E0CF
:1012C00009C08091810081608093810061E070E0BD
:1012D00080E090E00E9416219B01AC01C701B6019D
:1012E0000E94CD219B01AC0160E074E284E79BE4A5
:1012F0000E946E2020E030E040E85FE30E94FC1F87
:101300000E94E7206115710521E08207910550F4E4
:10131000611571058105910549F461E070E080E097
:1013200090E004C06FEF7FEF80E090E07093890061
:101330006093880080918100886080938100809113
:101340006F00826080936F00D093F901C093F80121
:101350007894DF91CF91FF90EF90DF90CF90089538
:10136000CF92DF92EF92FF92CF93DF936B017C01DC
:10137000EA01F8941092B0001092B1001092B200FD
:1013800020E030E040E853E40E94CD219B01AC0115
:1013900060E074E284E79BE40E946E200E94E720F4
:1013A000613021E072078105910550F08091B10014
:1013B00087608093B10060E074E080E090E054C00A
:1013C000613871058105910550F08091B10086600A
:1013D0008093B10060E071E080E090E045C061344E
:1013E00071058105910550F08091B1008560809371
:1013F000B10060E870E080E090E036C061327105D5
:101400008105910550F08091B10084608093B10016
:1014100060E470E080E090E027C0693071058105EC
:10142000910550F08091B10083608093B10060E23B
:1014300070E080E090E018C0623071058105910590
:1014400050F08091B10082608093B10068E070E05C
:1014500080E090E009C08091B10081608093B1008C
:1014600061E070E080E090E00E9416219B01AC01F9
:10147000C701B6010E94CD219B01AC0160E074E27E
:1014800084E79BE40E946E2020E030E040E85FE3C8
:101490000E94FC1F0E94E7206F3F710581059105A6
:1014A00009F050F4611571058105910549F461E079
:1014B00070E080E090E004C06FEF70E080E090E0CA
:1014C0006093B3008091B10082608093B1008091FD
:1014D0007000826080937000D093F701C093F60192
:1014E0007894DF91CF91FF90EF90DF90CF900895A7
:1014F000EAEFF1E0108211821282089561E089E042
:101500000E94A01C60E08EE00E94A01C60E08FE0C2
:101510000E94A01C60E080E10E94A01C60E081E1CC
:101520000E94A01C61E086E00E94A01CF89461E08B
:1015300089E00E94DC1C60E086E00E94DC1C78945C
:1015400008950F931F930E94C50769E471E081E23B
:1015500092E00E9410118DEF91E00E94D30700EFFE
:1015600017E020E030E040E060E08DEF91E00E9485
:101570009D0500E810E020E030E040E060E08DEF05
:1015800091E00E94F10500EA10E020E030E040E048
:1015900061E08DEF91E00E94F1050FEF17E020E090
:1015A00030E040E061E08DEF91E00E949D0501E8B0
:1015B00010E020E030E041E062E08DEF91E00E9439
:1015C000F1051F910F9108954CEE5AE060E070E034
:1015D00088E492E40C940209EF92FF920F93CF9368
:1015E000DF93CDB7DEB728970FB6F894DEBF0FBEF6
:1015F000CDBF85E089838CEC8A83EAEFF1E08081BE
:101600008B8381818C8382818D83F894CE010196B6
:101610007C0108E020E043E850E060E070E08DEFFE
:1016200091E00E940B07789428960FB6F894DEBFDD
:101630000FBECDBFDF91CF910F91FF90EF90089536
:10164000EF92FF920F93CF93DF93CDB7DEB728973A
:101650000FB6F894DEBF0FBECDBF85E089838CEC5A
:101660008A8381E090E0A0E0B0E08B839C83AD832F
:10167000BE838091FC018F83F894CE0101967C019A
:1016800008E020E04FEA50E060E070E08DEF91E08C
:101690000E940B07789428960FB6F894DEBF0FBE11
:1016A000CDBFDF91CF910F91FF90EF9008954F92B2
:1016B0005F926F927F92AF92BF92CF92DF92EF9242
:1016C000FF920F931F93CF93DF93CDB7DEB7619750
:1016D0000FB6F894DEBF0FBECDBFBE016F5F7F4F68
:1016E0008DEF91E00E94F107892B09F0EFC08A8508
:1016F000853009F0EBC08B858C3C09F0E7C089810F
:101700009A81AB81BC8180389105A105B10519F49E
:101710000E94AB0CDBC081389105A105B10519F41D
:101720000E94CB0CD3C082389105A105B10509F008
:10173000A9C023E333E34BE451E46C857D858E85BA
:101740009F850E94CD215B018C012DEC3CEC4CE48B
:1017500051EC0E94692087FD11C023E333E34BE481
:1017600051E4B501C8010E94C82118166CF443E386
:10177000A42E53E3B52E0BE411E406C06DECA62EA7
:101780007CECB72E0CE411EC21E73DE34AE05EE38C
:10179000B501C8010E94CD2123EC35EF48E150E4AA
:1017A0000E94FD1F2B013C012DEC3CEC4CE45FE35F
:1017B0000E94692087FD12C023E333E343E850E42D
:1017C000C301B2010E94C821181684F423E3422EFB
:1017D000542C23E8622E20E4722E08C03DEC432EE8
:1017E0003CEC532E3CE4632E3FE3732E21EE3AE7AC
:1017F00044E15EEBB501C8010E94CD2128E431EE41
:101800004AE150E40E94FD1F6B017C0126E636E6AA
:1018100046E65FE30E94692087FD12C026E636E6B1
:1018200046E850E4C701B6010E94C821181674F4B6
:1018300086E6C82EDC2C86E8E82E80E4F82E06C06A
:1018400096E6C92EDC2CEC2C9FE3F92E2DEC3CEC1B
:101850004CE454E4C301B2010E94CD210E94E72070
:101860002B013C012DEC3CEC4CE454E4C701B601E7
:101870000E94CD210E94E720DC01CB01B2010E9431
:101880007B0C24C08F3A9105A105B105F9F40E94A3
:10189000CB0C6DE571E081E292E00E9410114C8565
:1018A0005D856E857F852AE030E081E292E00E94CE
:1018B00061126AE771E081E292E00E9410114AE051
:1018C00050E0688981E292E00E94751261960FB63D
:1018D000F894DEBF0FBECDBFDF91CF911F910F9166
:1018E000FF90EF90DF90CF90BF90AF907F906F9080
:1018F0005F904F900895CF93DF93EB012091FA0111
:10190000222331F1823E22E0920740F0BC01613790
:101910008DE0780728F060E77DE002C062EE72E0BB
:10192000C03922E0D20738F0CF318DE0D80728F057
:10193000CEE1DDE002C0C0E9D2E0F8948EE092E0B2
:101940000E94BA01BE018EE092E00E94BE0178942E
:10195000DF91CF9108958091FA0181111BC0809190
:10196000FB01811117C02FE04EE064E170E08EE0D2
:1019700092E00E941908F89461E086E00E94DC1C65
:10198000789481E08093FA0163E871E081E292E06B
:101990000C945B1108958091FA018823D1F02FE017
:1019A0004EE064E170E08EE092E00E941908F89445
:1019B00060E086E00E94DC1C78941092FA0110929C
:1019C000200210921F0263E971E081E292E00C9420
:1019D0005B1108958F929F92AF92BF92EF92FF9208
:1019E0000F931F93CF93DF938091FA01811105C06C
:1019F0008091FC01882309F48AC0F8948EE00E944B
:101A00000C1DEC01CC0FDD1FCC0FDD1F8FE00E9401
:101A10000C1D7C01EE0CFF1CEE0CFF1C7894BE012B
:101A20006E197F0977FF03C07195619571098091E7
:101A30001F0290912002892B21F470932002609361
:101A40001F0280E090E00E9416212AE037ED43E279
:101A50005CE30E94CD214B015C0180911F029091BB
:101A60002002BC0180E090E00E94162124EA30E7C9
:101A70004DE75FE30E94CD219B01AC01C501B4019C
:101A80000E94FD1F0E94E7207093200260931F02B6
:101A90000AE112E024E630E040E050E0B701CE0178
:101AA0000E943502882361F00E94CB0C8091FC01DA
:101AB00081608093FC010E94200B64EA71E015C0F4
:101AC00080911F029091200281349640E0F00E94A4
:101AD000CB0C8091FC0182608093FC010E94200B62
:101AE00081E08093FB0166EC71E081E292E0DF919E
:101AF000CF911F910F91FF90EF90BF90AF909F906B
:101B00008F900C945B111092FC011092FB01DF91FD
:101B1000CF911F910F91FF90EF90BF90AF909F904A
:101B20008F90089561E08AE00E94DC1C61E08AE009
:101B30000E94A01C8CB580618CBD8CB580648CBD6E
:101B400061E08DE00E94A01C61E08BE00C94A01C81
:101B50008CB58F7B8CBD0895811103C08CB58062DC
:101B600002C08CB58F7D8CBD08959CB5937F892B69
:101B70008CBD08959CB5282F23709C7F922B9CBD13
:101B80002DB582FB992790F9822F8E7F892B8DBDF1
:101B90000895FC0124853585F901E05CFF4F8081C3
:101BA0009181329620813181821B930B8F7399270B
:101BB0000895DC011C96ED91FC911D97DF01A05C5E
:101BC000BF4F2D913C91119712968D919C91119739
:101BD0002817390739F08D919C91E80FF91F808102
:101BE00090E008958FEF9FEF0895FC01A485B585DF
:101BF000FD01E05CFF4F208131813296808191812F
:101C00002817390779F080819181A80FB91F8C912D
:101C1000208131812F5F3F4F2F7333273183208302
:101C200090E008958FEF9FEF0895FC0181A1882334
:101C300029F0A489B5898C9186FFFBCF11A2089564
:101C40000F931F93CF93DF93FC01A685B7858D017A
:101C5000005C1F4FE8018881998101968F73992755
:101C6000AD014E5B5F4FEA012881398182179307EE
:101C7000D1F3E80128813981A20FB31F6C93A685A7
:101C8000B785A05CBF4F11969C938E93A689B789A8
:101C90002C9181E090E0078C02C0880F991F0A9474
:101CA000E2F7822B8C9381E081A30488F589E02DF3
:101CB00080818064808381E090E0DF91CF911F91EB
:101CC0000F91089508951F920F920FB60F9211244D
:101CD0002F934F935F938F939F93EF93FF938091F5
:101CE000C00082FD1CC02091C6008091C702909167
:101CF000C80201968F7399274091C9025091CA0278
:101D00008417950771F0E091C702F091C802E95776
:101D1000FD4F20839093C8028093C70202C0809138
:101D2000C600FF91EF919F918F915F914F912F91FD
:101D30000F900FBE0F901F90189581E292E00E94C5
:101D4000C90D892B11F00C94620E08951F920F9209
:101D50000FB60F9211242F933F938F939F93EF937E
:101D6000FF932091830230918402809185029091AB
:101D700086022817390731F48091C1008F7D809346
:101D8000C10014C0E0918502F0918602ED5BFD4F29
:101D90002081809185029091860201968F73992708
:101DA00090938602809385022093C600FF91EF9165
:101DB0009F918F913F912F910F900FBE0F901F9089
:101DC00018958F929F92AF92BF92CF92DF92EF922F
:101DD000FF920F931F93CF93DF93CDB7DEB7FC0134
:101DE0001382128288EE93E0A0E0B0E084839583B2
:101DF000A683B7838CED91E0918380837587648798
:101E000057874687318B208B138B028BF58AE48AA8
:101E1000D78AC68AB18EA08E938E828E8F85848F4C
:101E20008889858F8989868F8A89878F8B8980A306
:101E3000DF91CF911F910F91FF90EF90DF90CF90A6
:101E4000BF90AF909F908F900895CF92DF92EF92C6
:101E5000FF920F931F93CF93DF93EC016A017B01F5
:101E60004115514E6105710509F1EC89FD8981E04B
:101E700090E008A002C0880F991F0A94E2F78083BF
:101E800060E079E08DE390E0A70196010E943F2297
:101E900089019A01015011092109310936952795C7
:101EA00017950795980101151041A8F0EC89FD8957
:101EB000108260E874E88EE190E0A70196010E942C
:101EC0003F22DA01C9010197A109B109B695A79589
:101ED000979587959C01E889F9893083EA89FB8980
:101EE000208319A2EE89FF89408181E090E09C0166
:101EF0000C8C02C0220F331F0A94E2F7242B20839C
:101F0000EE89FF8940819C010D8C02C0220F331F96
:101F10000A94E2F7242B2083EE89FF8940819C01FB
:101F20000E8C02C0220F331F0A94E2F7242B208369
:101F3000EE89FF8920810F8C02C0880F991F0A94B7
:101F4000E2F7809582238083DF91CF911F910F91DB
:101F5000FF90EF90DF90CF900895CF92DF92EF92B5
:101F6000FF921F93CF93DF93EC016A017B01122F45
:101F70004115514E6105710509F1EC89FD8981E03A
:101F800090E008A002C0880F991F0A94E2F78083AE
:101F900060E079E08DE390E0A70196010E943F2286
:101FA000DA01C9010197A109B109B695A7959795DD
:101FB0008795AC01411580E15807A8F0EC89FD89AF
:101FC000108260E874E88EE190E0A70196010E941B
:101FD0003F22BA01A9014150510961097109769561
:101FE000679557954795E889F9895083EA89FB8970
:101FF0004083E88DF98D1083EE89FF89408181E06F
:1020000090E09C010C8C02C0220F331F0A94E2F76F
:10201000242B2083EE89FF8940819C010D8C02C016
:10202000220F331F0A94E2F7242B2083EE89FF89C5
:1020300040819C010E8C02C0220F331F0A94E2F7EC
:10204000242B2083EE89FF8920810F8C02C0880F0A
:10205000991F0A94E2F7809582238083DF91CF91C4
:102060001F91FF90EF90DF90CF900895CF93DF9373
:10207000FC0186859785EC01C05CDF4FDC01AE5B1F
:10208000BF4F288139818D919C911197281739076D
:10209000C1F7A689B7893C9181E090E0AC01048C3E
:1020A00002C0440F551F0A94E2F7242F20952323E2
:1020B0002C93A689B7893C91AC01058C02C0440FD2
:1020C000551F0A94E2F7242F209523232C93A689E9
:1020D000B7893C91AC01068C02C0440F551F0A948D
:1020E000E2F7242F209523232C93A689B7892C91DE
:1020F000078C02C0880F991F0A94E2F7809582230B
:102100008C9384859585FC01EE5BFF4F20813181A6
:10211000329731832083DF91CF91089581E0089534
:10212000CF92DF92EF92FF920F931F93CF93DF93A3
:102130006C01EB017B01E40EF51E00E010E0CE1512
:10214000DF0561F06991D601ED91FC910190F0817C
:10215000E02DC6010995080F191FF1CFC801DF91C5
:10216000CF911F910F91FF90EF90DF90CF90089546
:10217000EF92FF920F931F93CF93DF937C01FB01AC
:1021800000E010E06491EF012196662361F0D70131
:10219000ED91FC910190F081E02DC7010995080FA8
:1021A000191FFE01EFCFC801DF91CF911F910F9151
:1021B000FF90EF900895AF92BF92CF92DF92EF928F
:1021C000FF920F931F93CF93DF936C017B01C0E0CD
:1021D000D0E000E010E0D70114968D919C91159706
:1021E000C817D90788F4D601ED91FC91A080B18081
:1021F000BE01C7010E94F418682FC601F5010995B8
:10220000080F191F2196E7CFC801DF91CF911F91C9
:102210000F91FF90EF90DF90CF90BF90AF90089517
:102220000C94621CDC01ED91FC910190F081E02D99
:102230000994DB01ED91FC9111970190F081E02D63
:10224000BC01CD0109940F931F93CF93DF93EC0151
:102250006DE00E9412118C016AE0CE010E94121101
:10226000800F911FDF91CF911F910F9108950F93D0
:102270001F93CF93DF93EC010E94B8108C01CE0125
:102280000E942311800F911FDF91CF911F910F9119
:1022900008950F931F93CF93DF93EC010E94DB10FF
:1022A0008C01CE010E942311800F911FDF91CF91ED
:1022B0001F910F9108950F931F93CF93DF93EC011C
:1022C0000E94621C8C01CE010E942311800F911F7D
:1022D000DF91CF911F910F9108950F931F93CF938B
:1022E000DF93EC010E9412118C01CE010E94231198
:1022F000800F911FDF91CF911F910F9108950F9340
:102300001F93CF93DF93EC010E9419118C01CE0132
:102310000E942311800F911FDF91CF911F910F9188
:1023200008958F929F92AF92BF92CF92DF92EF92D9
:10233000FF920F931F93CF93DF93CDB7DEB7A19793
:102340000FB6F894DEBF0FBECDBF6C01142FE52F82
:10235000CB01022F19A2223008F40AE07E0121E20B
:10236000E20EF11C802E912CA12CB12C612F7E2F1E
:10237000A50194010E943F22029F1019112481E0BF
:10238000E81AF1081A3014F4105D01C0195CF70165
:102390001083122FE32FCA01232B242B252B31F777
:1023A000B701C6010E94621CA1960FB6F894DEBF69
:1023B0000FBECDBFDF91CF911F910F91FF90EF9096
:1023C000DF90CF90BF90AF909F908F900895CF9265
:1023D000DF92EF92FF920F931F93CF93DF93EC0165
:1023E0006A017B012115310579F4E881F9810190B9
:1023F000F081E02D642FDF91CF911F910F91FF901D
:10240000EF90DF90CF9009942A303105E9F477FFFF
:102410001AC06DE20E9412118C0144275527BA019F
:102420004C195D096E097F092AE0CE010E949111C5
:10243000800F911FDF91CF911F910F91FF90EF902F
:10244000DF90CF9008952AE0B701A601CE01DF9179
:10245000CF911F910F91FF90EF90DF90CF900C9450
:1024600091119A01AB01770F660B770B0C94E71172
:102470000F931F93CF93DF93EC019A01AB01770F7A
:10248000660B770B0E94E7118C01CE010E9423118D
:10249000800F911FDF91CF911F910F9108950F939E
:1024A0001F93CF93DF93EC010E94E7118C01CE01C3
:1024B0000E942311800F911FDF91CF911F910F91E7
:1024C00008952115310541F4DC01ED91FC91019055
:1024D000F081E02D642F09940C9491119A01462FFC
:1024E00050E060E070E00C9461120F931F93CF9363
:1024F000DF93EC019A01462F50E060E070E00E940B
:1025000061128C01CE010E942311800F911FDF9177
:10251000CF911F910F9108959A01AB0160E070E097
:102520000C9461120F931F93CF93DF93EC019A01E8
:10253000AB0160E070E00E9461128C01CE010E944C
:102540002311800F911FDF91CF911F910F9108955B
:102550000F931F93CF93DF93EC010E9461128C01C4
:10256000CE010E942311800F911FDF91CF911F9107
:102570000F9108954F925F926F927F928F929F92E8
:10258000AF92BF92CF92DF92EF92FF92CF93DF9301
:10259000EC016A017B01B22E9A01AB01C701B601C1
:1025A0000E943A22882319F068EE71E027C02601C4
:1025B0003701E89477F82FEF3FEF4FE75FE7C3016C
:1025C000B2010E943A2281110DC02FEF3FEF4FE779
:1025D0005FE7C301B2010E94692018161CF46CEE7B
:1025E00071E00CC02FEF3FEF4FE75FE4C701B6018A
:1025F0000E94C82118169CF460EF71E0CE01DF91B3
:10260000CF91FF90EF90DF90CF90BF90AF909F90D1
:102610008F907F906F905F904F900C94621C2FEF83
:102620003FEF4FE75FECC701B6010E94692087FDCD
:10263000E3CF20E030E0A901C701B6010E94692084
:1026400087FF0AC06DE2CE010E9412114C01F7FA19
:10265000F094F7F8F09402C0812C912CA12C60E04A
:1026600070E080E09FE3AB1441F020E030E040E216
:1026700051E40E946E20A394F6CF9B01AC01C701E8
:10268000B6010E94FD1F2B013C010E94E7206B0157
:102690007C010E9416219B01AC01C301B2010E9482
:1026A000FC1F2B013C012AE0B701A601CE010E94CC
:1026B00091117C01E80CF91CBB2039F064EF71E04A
:1026C000CE010E94621CE80EF91EDB2CDD2039F1E0
:1026D00020E030E040E251E4C301B2010E94CD218C
:1026E0002B013C010E94E0204B01770FAA08BB0898
:1026F0002AE030E0B501A401CE010E94E711E80E06
:10270000F91EC501B4010E9418219B01AC01C3014F
:10271000B2010E94FC1F2B013C01DA94D7CFC70104
:10272000DF91CF91FF90EF90DF90CF90BF90AF906F
:102730009F908F907F906F905F904F9008950C9432
:10274000BA120F931F93CF93DF93EC010E94BA123A
:102750008C01CE010E942311800F911FDF91CF9138
:102760001F910F910895FC01DB01118210821382E9
:1027700012821582148216828D919C9111979183F9
:10278000808312968D919C911397938382831496E4
:102790008D919C9115979583848311961C921E921E
:1027A00013961C921E92129715961C921E921497C5
:1027B0000895FC01DB0111821082138212821582BE
:1027C000148216828D919C91119791838083129629
:1027D0008D919C9113979383828314968D919C91F4
:1027E00015979583848311961C921E9213961C92C2
:1027F0001E92129715961C921E9214970895FC0132
:10280000808191810C94641FCF93DF93EC018881C8
:102810009981009711F00E94641F198218821D820D
:102820001C821B821A82DF91CF9108950F931F9310
:10283000CF93DF93EC018B016F5F7F4F888199818C
:102840000E94051E009731F0998388831B830A83B9
:1028500081E001C080E0DF91CF911F910F91089539
:10286000CF93DF93EC0188819981892B29F08A81AC
:102870009B818617970760F4CE010E941614882367
:1028800041F08C819D81892B19F4E881F9811082B6
:1028900081E0DF91CF910895EF92FF920F931F9304
:1028A000CF93DF93EC017B018A01BA010E943014BF
:1028B000811104C0CE010E94041407C01D830C8343
:1028C000B701888199810E942C23CE01DF91CF919D
:1028D0001F910F91FF90EF900895FC0111821082DB
:1028E000138212821582148216826115710551F0CD
:1028F000FB0101900020E9F73197AF01461B570B10
:102900000C944C1408950F931F93CF93DF938C0175
:10291000EB01FC0180819181009799F04281538104
:102920002C813D814217530750F0688179810E94C4
:102930002C238C819D81F8019583848313C00E9490
:10294000641F88819981F801918380838A819B81AA
:10295000938382838C819D819583848319821882DD
:102960001B821A821D821C82DF91CF911F910F91D1
:102970000895CF93DF93EC01FB018617970761F071
:10298000608171816115710529F0448155810E9432
:102990004C1402C00E940414CE01DF91CF9108951F
:1029A000FC01118210821382128215821482168217
:1029B0000C94B914CF93DF93EC018617970711F0AD
:1029C0000E948314CE01DF91CF910895CF93DF93BE
:1029D000EC018617970711F00E948314CE01DF9156
:1029E000CF910895CF93DF93EC016115710559F0F4
:1029F000FB0101900020E9F73197AF01461B570B0F
:102A00000E944C1402C00E940414CE01DF91CF91A9
:102A10000895CF93DF9300D0CDB7DEB7FC011182CC
:102A200010821382128215821482168269831A829E
:102A3000BE016F5F7F4F0E94F2140F900F90DF91E5
:102A4000CF9108950F931F93CF93DF93CDB7DEB748
:102A500029970FB6F894DEBF0FBECDBF8C01862F2D
:102A6000F80111821082138212821582148216825A
:102A700050E0BE016F5F7F4F90E00E94E723BE01F0
:102A80006F5F7F4FC8010E94F21429960FB6F89429
:102A9000DEBF0FBECDBFDF91CF911F910F91089583
:102AA0000F931F93CF93DF93CDB7DEB762970FB627
:102AB000F894DEBF0FBECDBF8C01CB01F8011182AF
:102AC00010821382128215821482168250E0BE0197
:102AD0006F5F7F4F0E947523BE016F5F7F4FC801FC
:102AE0000E94F21462960FB6F894DEBF0FBECDBFFF
:102AF000DF91CF911F910F9108950F931F93CF9363
:102B0000DF93CDB7DEB761970FB6F894DEBF0FBE87
:102B1000CDBF8C01CB01F801118210821382128289
:102B200015821482168250E0BE016F5F7F4F0E94B3
:102B3000E723BE016F5F7F4FC8010E94F2146196C8
:102B40000FB6F894DEBF0FBECDBFDF91CF911F91BE
:102B50000F9108950F931F93CF93DF93CDB7DEB7F7
:102B6000A2970FB6F894DEBF0FBECDBF8C01CB018C
:102B7000BA01F80111821082138212821582148226
:102B8000168230E0AE014F5F5F4F0E948B23BE0183
:102B90006F5F7F4FC8010E94F214A2960FB6F8949F
:102BA000DEBF0FBECDBFDF91CF911F910F91089572
:102BB0000F931F93CF93DF93CDB7DEB7A1970FB6D7
:102BC000F894DEBF0FBECDBF8C01CB01BA01F80176
:102BD000118210821382128215821482168230E0D2
:102BE000AE014F5F5F4F0E94BA23BE016F5F7F4F00
:102BF000C8010E94F214A1960FB6F894DEBF0FBE72
:102C0000CDBFDF91CF911F910F910895EF92FF9269
:102C10000F931F93CF93DF93FC01248135816115BE
:102C2000710511F480E019C041155105A9F07B012F
:102C3000EC018A01020F131FB8010E94301488238F
:102C400089F3288139818C819D81B701820F931F7F
:102C50000E942C231D830C8381E0DF91CF911F9173
:102C60000F91FF90EF900895FB01448155816081A1
:102C700071810C9406166115710551F0FB010190EC
:102C80000020E9F73197AF01461B570B0C9406164D
:102C900080E00895CF93DF9300D0CDB7DEB769838E
:102CA0001A8241E050E0BE016F5F7F4F0E9406161E
:102CB0000F900F90DF91CF910895EF92FF920F93B5
:102CC0001F93CF93DF9300D000D0CDB7DEB77C0148
:102CD000862F4AE08E010F5F1F4FB80190E00E94DF
:102CE0008023F80101900020E9F73197AF01401BE4
:102CF000510BB801C7010E9406160F900F900F905C
:102D00000F90DF91CF911F910F91FF90EF90089559
:102D1000EF92FF920F931F93CF93DF93CDB7DEB760
:102D200027970FB6F894DEBF0FBECDBF7C01CB0155
:102D30004AE08E010F5F1F4FB8010E948023F80107
:102D400001900020E9F73197AF01401B510BB8010A
:102D5000C7010E94061627960FB6F894DEBF0FBE75
:102D6000CDBFDF91CF911F910F91FF90EF9008950C
:102D7000EF92FF920F931F93CF93DF9300D000D079
:102D800000D0CDB7DEB77C01CB014AE08E010F5FEA
:102D90001F4FB8010E94F223F80101900020E9F7CB
:102DA0003197AF01401B510BB801C7010E940616B5
:102DB00026960FB6F894DEBF0FBECDBFDF91CF9140
:102DC0001F910F91FF90EF900895EF92FF920F9354
:102DD0001F93CF93DF93CDB7DEB72C970FB6F89440
:102DE000DEBF0FBECDBF7C01CB01BA012AE08E0150
:102DF0000F5F1F4FA8010E949623F8010190002049
:102E0000E9F73197AF01401B510BB801C7010E9490
:102E100006162C960FB6F894DEBF0FBECDBFDF911D
:102E2000CF911F910F91FF90EF900895EF92FF9235
:102E30000F931F93CF93DF93CDB7DEB72B970FB6CA
:102E4000F894DEBF0FBECDBF7C01CB01BA012AE0F2
:102E50008E010F5F1F4FA8010E94C523F80101904A
:102E60000020E9F73197AF01401B510BB801C701B2
:102E70000E9406162B960FB6F894DEBF0FBECDBF8C
:102E8000DF91CF911F910F91FF90EF900895CF9315
:102E9000DF93EC01FB0144815581608171810E94C7
:102EA0000616811103C0CE010E940414CE01DF91E9
:102EB000CF910895CF93DF93EC016115710561F017
:102EC000FB0101900020E9F73197AF01461B570B3A
:102ED0000E940616811103C0CE010E940414CE0187
:102EE000DF91CF910895CF93DF93EC010E944A16B2
:102EF000811103C0CE010E940414CE01DF91CF9155
:102F00000895CF93DF93EC010E945D16811103C0F9
:102F1000CE010E940414CE01DF91CF910895CF938A
:102F2000DF93EC010E948816811103C0CE010E943C
:102F30000414CE01DF91CF910895CF93DF93EC017C
:102F40000E94B816811103C0CE010E940414CE0164
:102F5000DF91CF910895CF93DF93EC010E94E516A6
:102F6000811103C0CE010E940414CE01DF91CF91E4
:102F70000895CF93DF93EC010E941617811103C0CF
:102F8000CE010E940414CE01DF91CF910895CF931A
:102F9000DF93DC01ED91FC91EB01A881B9813097C1
:102FA00011F01097C9F4109759F0EB012C813D8175
:102FB000232B31F08C9190E091958195910914C06B
:102FC000309781F0DC0114968D919C911597892B97
:102FD00049F0808190E008C0BD01CF01DF91CF9121
:102FE0000C94232380E090E0DF91CF910895FC01C1
:102FF00044815581FB01248135814217530729F40F
:103000000E94C71721E0892B09F020E0822F089544
:10301000FC0124813581232B31F421E061157105F8
:10302000A1F0FB0108C0FC0180819181611571054F
:1030300031F421E0FC018081882339F005C00E9431
:10304000232321E0892B09F020E0822F08950E949C
:10305000C717892F881F8827881F08950E94C717C0
:1030600021E0181619060CF020E0822F08950E9426
:10307000C71721E0181619060CF420E0822F0895D6
:103080000E94C717892F8095881F8827881F089559
:10309000EF92FF920F931F93CF93DF9386179707BB
:1030A00029F1FC0124813581FB01448155812417DC
:1030B0003507F1F4232BD1F0DC01CD91DC910081B7
:1030C00011818991882391F0082E000C990B0E94A0
:1030D000ED227C01F80181918F01082E000C990BE3
:1030E0000E94ED22E816F90661F302C081E001C0FA
:1030F00080E0DF91CF911F910F91FF90EF900895A5
:10310000DB011496ED91FC911597DC0114962D913D
:103110003C9115972E1B3F0B24173507A0F02D91DE
:103120003C912115310579F0DB016D917C916115A0
:10313000710549F0CA01AF01820F931F0E9433232A
:1031400021E0892B09F020E0822F0895FC014481C1
:103150005581FB01248135814217530720F040E05F
:1031600050E00C94801880E00895FC0124813581A2
:10317000FB014481558124173507A0F0FC018081B3
:103180009181009779F0FB01608171816115710572
:1031900049F0241B350B820F931F0E94232321E04B
:1031A000892B09F020E0822F0895FC0124813581CC
:1031B0006217730730F480819181FC01E60FF71FDD
:1031C00040830895FC01248135816217730720F440
:1031D00080819181009729F41092CB028BEC92E0D0
:1031E0000895860F971F0895FC0124813581621789
:1031F000730748F480819181009729F0FC01E60F64
:10320000F71F8081089580E008950C94F4180F93BF
:103210001F93CF93DF934115510519F16115710586
:1032200001F1DC011496ED91FC9115972E173F07E3
:1032300018F0FB01108215C0E21BF30BEA01219785
:10324000EC17FD0708F4EF018B01FC01608171812F
:10325000620F731FAE01C8010E944123C00FD11F2E
:103260001882DF91CF911F910F910895CF93DF9333
:10327000FC01248135814217530778F4C081D18144
:10328000062E000C770BCE01840F951F0E94182389
:10329000009719F08C1B9D0B02C08FEF9FEFDF9101
:1032A000CF91089540E050E00C943619CF93DF930E
:1032B000FC01248135814217530780F4FB01DC01B6
:1032C000CD91DC9160817181CE01840F951F0E94A8
:1032D0005B23009719F08C1B9D0B02C08FEF9FEFB3
:1032E000DF91CF91089540E050E00C945619DF92A1
:1032F000EF92FF920F931F93CF93DF93DC0114960D
:103300002D913C9115974217530718F08FEF9FEFBF
:103310001DC08C01EA012196DC01ED91FC91119711
:10332000EC0FFD1FD0801082ED90FC90062E000C5B
:10333000770BC7010E945023CE0DDF1DD882009766
:1033400029F3F80120813181821B930BDF91CF910A
:103350001F910F91FF90EF90DF900895FC01448141
:103360005581415051090C947719AF92BF92CF9279
:10337000DF92EF92FF920F931F93CF93DF937B0126
:103380008A01FB01448155814115510561F1FC0120
:10339000248135812115310531F12417350718F1C4
:1033A0000217130718F0890101501109FC01A080D0
:1033B000B180C501DFEFCFEF6501C00ED11EC81689
:1033C000D906A0F0F701608171810E945B2300970C
:1033D00069F09C012A193B090217130710F0D22F3C
:1033E000C32F0196ECCF8FEF9FEF02C08D2F9C2F44
:1033F000DF91CF911F910F91FF90EF90DF90CF90D1
:10340000BF90AF900895FC0144815581FB01248158
:103410003581421B530B0C94B519BF92CF92DF92AA
:10342000EF92FF920F931F93CF93DF937C016B0179
:103430008A01E9012417350720F4812F8901C42F5F
:10344000D82F6CE571E0C7010E946D14D601149667
:103450008D919C91159780179107D0F08C179D073F
:1034600008F4EC01D601ED91FC911197EC0FFD1FD2
:10347000B08010824D915C91BA01600F711FC7013D
:103480000E94F214D601ED91FC91EC0FFD1FB08269
:10349000C701DF91CF911F910F91FF90EF90DF90C7
:1034A000CF90BF900895CF93DF93EC01FB0124816F
:1034B00035810E940D1ACE01DF91CF910895DC0174
:1034C000ED91FC91309729F40895861301C0408353
:1034D000319680818111F9CF08952F923F924F92BA
:1034E0005F926F927F928F929F92AF92BF92CF9294
:1034F000DF92EF92FF920F931F93CF93DF93FC0124
:10350000448055804114510409F4D2C0FB01648009
:1035100075806114710409F4CBC07A016B018C01D0
:10352000FA01A480B580A618B708FC01C081D1813A
:10353000A114B104C1F4F60160817181CE010E9431
:103540005B23EC01892B09F4B3C0F7016081718121
:1035500044815581CE010E94FD22F701848195812D
:10356000C80FD91FE8CFB7FE02C04E0105C0FB014E
:1035700020803180420143C0F60160817181C40125
:103580000E945B232C01892B21F1320168187908F4
:10359000A301B401CE010E94FD22C60DD71DF70183
:1035A0006081718144815581CE010E94FD22F70125
:1035B00084819581C80FD91FF60184809580840C81
:1035C000951CF801848195818A0D9B1D95838483C8
:1035D000D3CFB401CE01DF91CF911F910F91FF9016
:1035E000EF90DF90CF90BF90AF909F908F907F90A3
:1035F0006F905F904F903F902F900C942C23B101CF
:10360000CE010E945B23009731F0EC01C60DD71D5F
:103610008A0C9B1CF4CF8414950409F449C0F8016A
:10362000828193818815990530F4B401C8010E9404
:1036300016148823E9F1F80144815581415051095C
:1036400057FD36C0B601C8010E94B519EC0197FDBF
:103650002FC0F80180819181F601248135812C0FE2
:103660003D1F820F931FF80144815581421B530B6C
:10367000BC018A0D9B1D0E940623F801848195815F
:103680008A0D9B1D9583848320813181F901E80F88
:10369000F91F1082F80180819181F70160817181A9
:1036A000448155818C0F9D1F0E94FD22AE01C6CF23
:1036B000DF91CF911F910F91FF90EF90DF90CF900E
:1036C000BF90AF909F908F907F906F905F904F9042
:1036D0003F902F900895CF93DF93FC01C081D1815B
:1036E000209751F08881882339F0082E000C990B1F
:1036F0000E94ED228993F6CFDF91CF910895CF9369
:10370000DF93FC01C081D181209751F0888188230B
:1037100039F0082E000C990B0E94F5228993F6CF00
:10372000DF91CF910895AF92BF92CF92DF92EF9247
:10373000FF920F931F93CF93DF93DC01CD90DC902A
:103740001197C114D10409F442C01496CD91DC91B3
:1037500015972097E1F18C0156017501BFEFAB1A67
:10376000BB0AF7018081082E000C990B0E94E4220D
:10377000892B99F72197CC0DDD1D8881082E000C2F
:10378000990B0E94E422892B91F4AE014F5F5F4FA9
:103790004E195F09D80115965C934E931497CE1479
:1037A000DF0450F4B701C6010E94FD2205C0CE150A
:1037B000DF0558F32197E1CFD801ED91FC911197E6
:1037C00014968D919C911597E80FF91F1082DF9147
:1037D000CF911F910F91FF90EF90DF90CF90BF900E
:1037E000AF900895FC0180819181009711F00C94B5
:1037F000BD2260E070E0CB0108958EBD0DB407FEE0
:10380000FDCF8EB508950E949A000E94780A0E940A
:103810007E0A0E94A10A0E94E40A6BE371E081E241
:1038200092E00E945B110E94570B0E94EA0CFBCFB2
:103830002FEF3FEF49E050E066E070E08EE092E06D
:103840000E949C006AE08DEF91E00C947E05E1E21D
:10385000F2E01382128288EE93E0A0E0B0E084836D
:103860009583A683B7838CED91E09183808387E86D
:1038700092E09587848783E492E09787868785EC3A
:1038800090E0918B808B84EC90E0938B828B80EC2A
:1038900090E0958B848B81EC90E0978B868B82EC0B
:1038A00090E0918F808F86EC90E0938F828F84E000
:1038B000848F83E0858F87E0868F85E0878F81E026
:1038C00080A308956115710579F0FB010190002036
:1038D000E9F73197AF01461B570BDC01ED91FC91E5
:1038E0000280F381E02D099480E090E00895833018
:1038F00081F028F4813099F08230A1F0089586306B
:10390000A9F08730B9F08430D1F4809180008F7DA8
:1039100003C0809180008F7780938000089584B5E4
:103920008F7702C084B58F7D84BD08958091B000EB
:103930008F7703C08091B0008F7D8093B000089591
:10394000CF93DF9390E0FC01E056FF4F2491FC0100
:10395000EC54FF4F8491882361F190E0880F991F08
:10396000FC01EE52FF4FC591D491FC01E853FF4F8B
:10397000A591B491611109C09FB7F89488812095F1
:1039800082238883EC912E230BC0623061F49FB7B1
:10399000F8943881822F809583238883EC912E2B95
:1039A0002C939FBF06C08FB7F894E8812E2B2883F5
:1039B0008FBFDF91CF9108951F93CF93DF93282F6F
:1039C00030E0F901E457FF4F8491F901E056FF4FD1
:1039D000D491F901EC54FF4FC491CC23C9F0162FB8
:1039E00081110E94771CEC2FF0E0EE0FFF1FE853CF
:1039F000FF4FA591B4918FB7F894111105C09C9118
:103A0000ED2FE095E92302C0EC91ED2BEC938FBFF5
:103A1000DF91CF911F9108958E3008F08E508770FE
:103A20002091000190E4299F90011124822B809322
:103A30007C0080917A00806480937A0080917A0083
:103A400086FDFCCF809178002091790090E0922B48
:103A500008951F920F920FB60F9211242F933F9348
:103A60008F939F93AF93BF938091CD029091CE029D
:103A7000A091CF02B091D0023091CC0223E0230F6D
:103A80002D3720F40196A11DB11D05C026E8230F96
:103A90000296A11DB11D2093CC028093CD0290937C
:103AA000CE02A093CF02B093D0028091D102909128
:103AB000D202A091D302B091D4020196A11DB11DF2
:103AC0008093D1029093D202A093D302B093D402F8
:103AD000BF91AF919F918F913F912F910F900FBE0A
:103AE0000F901F9018952FB7F8946091CD027091A8
:103AF000CE028091CF029091D0022FBF08953FB7A0
:103B0000F8948091D1029091D202A091D302B09109
:103B1000D40226B5A89B05C02F3F19F00196A11D20
:103B2000B11D3FBFBA2FA92F982F8827820F911D53
:103B3000A11DB11DBC01CD0142E0660F771F881F9A
:103B4000991F4A95D1F70895CF92DF92EF92FF9295
:103B5000CF93DF936B017C010E947F1DEB01C114A9
:103B6000D104E104F10479F00E947F1D6C1B7D0BF0
:103B7000683E7340A0F381E0C81AD108E108F1085B
:103B8000C851DC4FECCFDF91CF91FF90EF90DF90E9
:103B9000CF900895789484B5826084BD84B58160A7
:103BA00084BD85B5826085BD85B5816085BDEEE645
:103BB000F0E0808181608083E1E8F0E01082808124
:103BC00082608083808181608083E0E8F0E0808192
:103BD00081608083E1EBF0E0808184608083E0EBB2
:103BE000F0E0808181608083EAE7F0E0808184609A
:103BF00080838081826080838081816080838081F6
:103C0000806880831092C1000895A0E0B0E0EBE0EE
:103C1000FEE10C948A22EC01009721F4CB010E9472
:103C2000CF1EB8C0FC01E60FF71F9C0122503109DE
:103C3000E217F30708F4ACC0D9010D911C9111975C
:103C400006171707B0F00530110508F49FC0C8012A
:103C500004978617970708F499C002501109061BAC
:103C6000170B019311936D937C93CF010E94641FF6
:103C70008DC05B01A01AB10A4C01800E911EA0916B
:103C8000D702B091D80240E050E0E12CF12C10971F
:103C900009F44AC0A815B905D1F56D907C9011972B
:103CA000630182E0C80ED11CCA14DB0480F1A301B9
:103CB0004A195B096A0182E0C80ED11C1296BC90B9
:103CC00012971396AC91B5E0CB16D10440F0B282B6
:103CD000A38351834083D9016D937C930AC00E5F07
:103CE0001F4FC301800F911FF90191838083EB2D3A
:103CF000FA2FE114F10431F0D7011396FC93EE93FF
:103D0000129744C0F093D802E093D7023FC08D9140
:103D10009C9111974817590708F4AC017D01129640
:103D20000D90BC91A02DB3CF8091D5029091D60279
:103D300088159905E1F446175707C8F480910101E9
:103D400090910201009741F48DB79EB74091050113
:103D500050910601841B950BE817F907C8F4F093FE
:103D6000D602E093D502F901718360830FC0CB01C5
:103D70000E94CF1E7C01009759F0A801BE010E944D
:103D8000FD22CE010E94641FC70104C0CE0102C003
:103D900080E090E0CDB7DEB7EEE00C94A622CF93A2
:103DA000DF938230910510F482E090E0E091D70239
:103DB000F091D80220E030E0C0E0D0E0309711F17F
:103DC0004081518148175907C0F04817590761F4DD
:103DD00082819381209719F09B838A832BC09093D3
:103DE000D8028093D70226C02115310519F0421759
:103DF000530718F49A01BE01DF01EF010280F3813D
:103E0000E02DDCCF2115310509F1281B390B2430B9
:103E1000310590F412968D919C911397611571055F
:103E200021F0FB019383828304C09093D802809396
:103E3000D702FD01329644C0FD01E20FF31F8193CA
:103E40009193225031092D933C933AC02091D50291
:103E50003091D602232B41F42091030130910401CB
:103E60003093D6022093D5022091010130910201B6
:103E70002115310541F42DB73EB740910501509110
:103E80000601241B350BE091D502F091D602E21712
:103E9000F307A0F42E1B3F0B2817390778F0AC016D
:103EA0004E5F5F4F2417350748F04E0F5F1F50934A
:103EB000D6024093D5028193919302C0E0E0F0E0F6
:103EC000CF01DF91CF9108950F931F93CF93DF938D
:103ED000009709F48CC0FC01329713821282009182
:103EE000D7021091D8020115110581F4208131818A
:103EF000820F931F2091D5023091D60228173907DF
:103F000079F5F093D602E093D50271C0D80140E074
:103F100050E0AE17BF0750F412962D913C911397C5
:103F2000AD012115310509F1D901F3CF9D01DA0168
:103F30003383228360817181860F971F82179307D5
:103F400069F4EC0128813981260F371F2E5F3F4F1E
:103F5000318320838A819B8193838283452B29F43B
:103F6000F093D802E093D70242C01396FC93EE93ED
:103F70001297ED01499159919E01240F351FE217C7
:103F8000F30771F480819181840F951F0296119639
:103F90009C938E938281938113969C938E93129718
:103FA000E0E0F0E0D80112968D919C911397009774
:103FB00019F0F8018C01F6CF8D919C9198012E5F3C
:103FC0003F4F820F931F2091D5023091D6022817C0
:103FD000390769F4309729F41092D8021092D70269
:103FE00002C0138212821093D6020093D502DF9191
:103FF000CF911F910F9108955058BB27AA270E9477
:1040000014200C948E210E94802138F00E94872178
:1040100020F039F49F3F19F426F40C947D210EF41E
:10402000E095E7FB0C947721E92F0E949F2158F33C
:10403000BA17620773078407950720F079F4A6F58D
:104040000C94C1210EF4E0950B2EBA2FA02D0B017C
:10405000B90190010C01CA01A0011124FF27591BCD
:1040600099F0593F50F4503E68F11A16F040A22FD3
:10407000232F342F4427585FF3CF46953795279544
:10408000A795F0405395C9F77EF41F16BA0B620B43
:10409000730B840BBAF09150A1F0FF0FBB1F661F8A
:1040A000771F881FC2F70EC0BA0F621F731F841FCD
:1040B00048F4879577956795B795F7959E3F08F0F3
:1040C000B0CF9395880F08F09927EE0F97958795B5
:1040D00008950E94532108F481E008950E948220EF
:1040E0000C948E210E94872158F00E94802140F07C
:1040F00029F45F3F29F00C94772151110C94C221CF
:104100000C947D210E949F2168F39923B1F35523DC
:1041100091F3951B550BBB27AA27621773078407DA
:1041200038F09F5F5F4F220F331F441FAA1FA9F370
:1041300035D00E2E3AF0E0E832D091505040E6955E
:10414000001CCAF72BD0FE2F29D0660F771F881FBF
:10415000BB1F261737074807AB07B0E809F0BB0BB2
:10416000802DBF01FF2793585F4F3AF09E3F5105C6
:1041700078F00C9477210C94C2215F3FE4F3983ED1
:10418000D4F3869577956795B795F7959F5FC9F7AF
:10419000880F911D9695879597F90895E1E0660F30
:1041A000771F881FBB1F621773078407BA0720F0A9
:1041B000621B730B840BBA0BEE1F88F7E095089512
:1041C0000E94E7206894B1110C94C22108950E94C6
:1041D000A72188F09F5798F0B92F9927B751B0F0D1
:1041E000E1F0660F771F881F991F1AF0BA95C9F77B
:1041F00014C0B13091F00E94C121B1E008950C9437
:10420000C121672F782F8827B85F39F0B93FCCF3E9
:10421000869577956795B395D9F73EF490958095F7
:10422000709561957F4F8F4F9F4F0895E89409C017
:1042300097FB3EF490958095709561957F4F8F4FD9
:104240009F4F9923A9F0F92F96E9BB279395F695EF
:10425000879577956795B795F111F8CFFAF4BB0F6D
:1042600011F460FF1BC06F5F7F4F8F4F9F4F16C0D1
:10427000882311F096E911C0772321F09EE8872F5B
:10428000762F05C0662371F096E8862F70E060E017
:104290002AF09A95660F771F881FDAF7880F969590
:1042A000879597F90895990F0008550FAA0BE0E834
:1042B000FEEF16161706E807F907C0F012161306E8
:1042C000E407F50798F0621B730B840B950B39F428
:1042D0000A2661F0232B242B252B21F408950A268E
:1042E00009F4A140A6958FEF811D811D089597F9CE
:1042F0009F6780E870E060E008959FEF80EC08958C
:1043000000240A94161617061806090608950024B4
:104310000A9412161306140605060895092E03942E
:10432000000C11F4882352F0BB0F40F4BF2B11F4A2
:1043300060FF04C06F5F7F4F8F4F9F4F089557FD01
:104340009058440F551F59F05F3F71F04795880F03
:1043500097FB991F61F09F3F79F08795089512169A
:1043600013061406551FF2CF4695F1DF08C0161646
:1043700017061806991FF1CF8695710561050894F7
:104380000895E894BB2766277727CB0197F908950E
:104390000E94532108F48FEF08950E94E0210C94AD
:1043A0008E210E94802138F00E94872120F09523E1
:1043B00011F00C9477210C947D2111240C94C221CE
:1043C0000E949F2170F3959FC1F3950F50E0551FF8
:1043D000629FF001729FBB27F00DB11D639FAA275A
:1043E000F00DB11DAA1F649F6627B00DA11D661FA9
:1043F000829F2227B00DA11D621F739FB00DA11DCA
:10440000621F839FA00D611D221F749F3327A00D83
:10441000611D231F849F600D211D822F762F6A2F1F
:1044200011249F5750409AF0F1F088234AF0EE0F84
:10443000FF1FBB1F661F771F881F91505040A9F7B1
:104440009E3F510580F00C9477210C94C2215F3F70
:10445000E4F3983ED4F3869577956795B795F795ED
:10446000E7959F5FC1F7FE2B880F911D9695879565
:1044700097F908950E945321880B990B0895A1E2A2
:104480001A2EAA1BBB1BFD010DC0AA1FBB1FEE1FCE
:10449000FF1FA217B307E407F50720F0A21BB30B19
:1044A000E40BF50B661F771F881F991F1A9469F795
:1044B00060957095809590959B01AC01BD01CF01F1
:1044C0000895052E97FB1EF400940E94782257FD54
:1044D00007D00E943F2207FC03D04EF40C947822B0
:1044E00050954095309521953F4F4F4F5F4F089520
:1044F00090958095709561957F4F8F4F9F4F089550
:10450000EE0FFF1F0590F491E02D09942F923F923A
:104510004F925F926F927F928F929F92AF92BF92D3
:10452000CF92DF92EF92FF920F931F93CF93DF937F
:10453000CDB7DEB7CA1BDB0B0FB6F894DEBF0FBEDC
:10454000CDBF09942A88398848885F846E847D8429
:104550008C849B84AA84B984C884DF80EE80FD802B
:104560000C811B81AA81B981CE0FD11D0FB6F894A1
:10457000DEBF0FBECDBFED0108951F93FC0199274B
:104580008827BC01E89411911032E9F3193010F03A
:104590001E30C8F31B3251F01D3249F4689406C036
:1045A0000E94A523610F711D811D911D1191105352
:1045B0001A30B0F33EF490958095709561957F4FD9
:1045C0008F4F9F4F1F91089591110C940C248032AE
:1045D00019F089508550C8F70895911108958154B4
:1045E0008A5108F4805E855A089591110895815684
:1045F0008A5108F4805285580895FB01DC0102C0FD
:1046000001900D9241505040D8F7089568177907EE
:1046100068F4FB01DC01E40FF51FA40FB51F02C015
:1046200002900E9241505040D8F708950C94FD220C
:10463000FC018191861721F08823D9F799270895E5
:104640003197CF010895FB01DC018D910190801914
:104650000110D9F3990B0895FB01DC0101900D9233
:104660000020E1F70895FB01DC014150504030F09B
:104670008D910190801919F40020B9F7881B990BCE
:104680000895FB01DC014150504048F001900D922B
:104690000020C9F701C01D9241505040E0F7089535
:1046A000FC0181E090E00190061609F4CF010020A2
:1046B000D1F701970895FB0151915523A9F0BF014E
:1046C000DC014D9145174111E1F759F4CD010190FD
:1046D000002049F04D9140154111C9F3FB014111F2
:1046E000EFCF81E090E0019708954532510520F425
:1046F000423010F00C948023FB011082CB0108950E
:10470000BB274A3031F4992322F4BDE2909581957C
:104710009F4F0C94F3232532310520F4223010F002
:104720000C949623FA011082CA010895BB272A30FF
:1047300051F4992342F4BDE290958095709561956E
:104740007F4F8F4F9F4F0C94C623592F482F372FE1
:10475000262F660F771F881F991F660F771F881FE8
:10476000991F620F731F841F951F660F771F881F85
:10477000991F08952532310520F4223010F00C9451
:10478000C523FA011082CA010895BB27FA01A62F9A
:104790006217710581059105330B30FB66F0AA277E
:1047A000660F771F881F991FAA1FA21710F0A21B60
:1047B00063953850A9F7A05DAA3308F0A95DA193CD
:1047C00036F7B111B1931082CA010C940F2445320F
:1047D000510520F4423010F00C94F223FB011082BA
:1047E000CB010895BB27FB015527AA27880F991FE6
:1047F000AA1FA41710F0A41B83955051B9F7A05D10
:10480000AA3308F0A95DA193009779F7B111B1938C
:104810001192CB010C940F24992788270895DC016D
:10482000FC01672F71917723E1F7329704C07C91E7
:104830006D9370836291AE17BF07C8F30895F89423
:02484000FFCFA8
:10484200010000D9028000696E69745F7365726944
:10485200616C3A207061737300696E69745F6361A1
:104862006E3A207265747279696E6700696E697456
:104872005F63616E3A207061737300696E697420C0
:10488200636F6D706C65746500696E697420436F47
:104892006E74726F6C2043414E202D20004661756C
:1048A2006C74207265706F727420726563656976CC
:1048B20065642066726F6D3A200020204454437371
:1048C2003A2000436F6E74726F6C20656E61626C89
:1048D200656400436F6E74726F6C20646973616209
:1048E2006C6564004261642076616C756520726556
:1048F20061642066726F6D20746F727175652073CA
:10490200656E736F72004F70657261746F72206FA3
:10491200766572726964650000000000200E9010D6
:10492200C90DF50DD90D150E6E616E00696E66002A
:064932006F7666002E0006
:00000001FF
