:100000000C946D010C949E010C949E010C949E0125
:100010000C949E010C949E010C949E010C949E01E4
:100020000C949E010C949E010C949E010C949E01D4
:100030000C949E010C949E010C949E010C949E01C4
:100040000C949E010C949E010C949E010C949E01B4
:100050000C949E010C949E010C949E010C9403152B
:100060000C949E010C9432030C9422040C949E0177
:100070000C949E010C949E010C949E010C949E0184
:100080000C949E010C949E010C949E010C949E0174
:100090000C9466030C9461040C949E010C949E01D4
:1000A0000C949E010C949E010C949E010C949E0154
:1000B0000C949E010C949E010C949E010C949E0144
:1000C0000C949E010C949E010C949E010C949A0336
:1000D0000C94A0040C949E010C94CE030C94DF04A9
:1000E0000C949E017A137D1370137413B41381134F
:1000F00085138B138F13931399139D13A113B413AB
:10010000A713AB13AF136D14721477148114FA1480
:100110008B1493149B14A514AF14B914C814D214DF
:10012000FA14DC14E614F0140C94F0140C9470130C
:100130000C94CD060C946D140C9481140C948F13B4
:100140000C9481130C9498020C947A130C94AF13B2
:100150000C9493130C9472140C9401040C94E40208
:100160000C943B120C9499130C94AB130C949B14A9
:100170000C94D2140C94FA140C94DC140C94E61421
:100180000C9493140C948B130C94C4020C94B91417
:100190000C948B140C94AF140C949D130C94771442
:1001A0000C94A8020C94A1130C94EF020C948513E8
:1001B0000C94A5140C94B4130C94C8140C94A713A9
:1001C0000C9400160C9474130C947D130C947C12F4
:1001D0000000090A02080B0C0D07060304010000C9
:1001E000000000000000000000000000000000000F
:1001F00000000000000000000000000011100F00CF
:1002000000000000000000000000000000000000EE
:10021000000000000000010210202008081020400B
:1002200010204080020102010804020101020408BA
:100230001020408080402010080402018004020148
:100240008040201008040201080402010102040891
:10025000102040800102040810204080050505059B
:10026000070508080808020202020A0A080804042E
:10027000040401010101010101010303030303035C
:100280000303040707070C0C0C0C0C0C0C0C0202EB
:10029000020206060606060606060B0B0B0B0B0BE8
:1002A0000B0B00002200250028002B002E0031003F
:1002B000340002010000050108010B0100002100CB
:1002C000240027002A002D00300033000101000027
:1002D000040107010A013B127C1211241FBECFEF5B
:1002E000D1E2DEBFCDBF00E00CBF12E0A0E0B2E083
:1002F000E2EFF7E300E00BBF02C007900D92A033DE
:10030000B107D9F725E0A0E3B2E001C01D92AD30FE
:10031000B207E1F711E0CDE6D1E000E006C0219799
:100320000109802FFE010E94561ACB36D10780E0CA
:100330000807A9F70E9455120C94F71B0C940000B3
:10034000BC01990F880B990B0E940D1927EC31E223
:1003500049E553E40E94F21729E738EC4CEF53E4E7
:100360000E946318089529E738EC4CEF53E40E948B
:10037000C21927EC31E249E553E40E94F1170E94CB
:10038000D518CB010895BC01990F880B990B0E94D9
:100390000D192AE038E240EA5BE30E94C219089591
:1003A000CF93DF93EC01822F188219821A821B826D
:1003B0001C821D821E821F82688749872A8761E00E
:1003C0000E94B51360E070E08A85DF91CF910C94B4
:1003D0004614CF92EF920F93CF93DF93EC01822FCD
:1003E000188219821A821B821C821D821E821F8221
:1003F0001E861F86188A198A1A8A1B8A6887498767
:100400002A870B87EC86CD8660E00E94F11360E0BE
:100410008B850E94F11360E08C850E94F11360E0EF
:100420008D850E94F11361E08A850E94B51361E019
:100430008B850E94B51361E08C850E94B51361E045
:100440008D85DF91CF910F91EF90CF900C94B513E4
:10045000CF93DF93E1E9F0E08081887F8260808341
:10046000E1EAF0E08081887F8260808360E080E361
:100470000E94F11361E080E30E94B51360E081E324
:100480000E94F11360E070E080914E020E944614D9
:10049000C0E3D2E060E08C850E94F11360E08D85BE
:1004A0000E94F1136AEF70E08A850E9446146AEF99
:1004B00070E08B850E94461460E27EE480E090E06C
:1004C0000E94721560E070E08A850E94461460E028
:1004D00070E08B850E94461440E052EC61E070E0D1
:1004E0008DEB92E0DF91CF910C946205CF93DF9377
:1004F00089E00E942114EC0167E072E08DEB92E04C
:100500000E944D07BE01DD0F880B990B0E940D194B
:100510002AE038E240EA5BE30E94C219AB01BC0169
:1005200022E030E08DEB92E0DF91CF910C94DE0978
:10053000FC0124853585F901E05CFF4F80819181C4
:10054000329620813181821B930B8F7399270895F6
:10055000DC011C96ED91FC911D97DF01A05CBF4F63
:100560002D913C91119712968D919C91119728177E
:10057000390739F08D919C91E80FF91F808190E047
:1005800008958FEF9FEF0895FC01A485B585FD01C7
:10059000E05CFF4F20813181329680819181281764
:1005A000390779F080819181A80FB91F8C91208142
:1005B00031812F5F3F4F2F7333273183208390E0AA
:1005C00008958FEF9FEF0895FC0181A1882329F002
:1005D000A489B5898C9186FFFBCF11A208950F9352
:1005E0001F93CF93DF93FC01A685B7858D01005C37
:1005F0001F4FE8018881998101968F739927AD017A
:100600004E5B5F4FEA012881398182179307D1F34E
:10061000E80128813981A20FB31F6C93A685B785A5
:10062000A05CBF4F11969C938E93A689B7892C919D
:1006300081E090E0078C02C0880F991F0A94E2F7CE
:10064000822B8C9381E081A30488F589E02D808141
:100650008064808381E090E0DF91CF911F910F91C2
:10066000089508951F920F920FB60F9211240BB6A2
:100670000F922F933F934F935F936F937F938F933B
:100680009F93AF93BF93EF93FF938091C00082FD40
:1006900007C08091C6006BEB74E00E94621202C03A
:1006A0008091C600FF91EF91BF91AF919F918F9183
:1006B0007F916F915F914F913F912F910F900BBE62
:1006C0000F900FBE0F901F90189508951F920F92D4
:1006D0000FB60F9211240BB60F922F933F934F93A7
:1006E0005F936F937F938F939F93AF93BF93EF939A
:1006F000FF938091C80082FD07C08091CE0063E324
:1007000074E00E94621202C08091CE00FF91EF91CE
:10071000BF91AF919F918F917F916F915F914F9119
:100720003F912F910F900BBE0F900FBE0F901F9017
:10073000189508951F920F920FB60F9211240BB6C1
:100740000F922F933F934F935F936F937F938F936A
:100750009F93AF93BF93EF93FF938091D00082FD5F
:1007600007C08091D6006BEA73E00E94621202C05B
:100770008091D600FF91EF91BF91AF919F918F91A2
:100780007F916F915F914F913F912F910F900BBE91
:100790000F900FBE0F901F90189508951F920F9203
:1007A0000FB60F9211240BB60F922F933F934F93D6
:1007B0005F936F937F938F939F93AF93BF93EF93C9
:1007C000FF938091300182FD07C08091360163E282
:1007D00073E00E94621202C080913601FF91EF9196
:1007E000BF91AF919F918F917F916F915F914F9149
:1007F0003F912F910F900BBE0F900FBE0F901F9047
:1008000018958DEB92E00E949802892B11F00E94BE
:1008100031038BE992E00E949802892B11F00E942B
:10082000650389E792E00E949802892B11F00E94EB
:10083000990387E592E00E949802892B11F00C94AD
:10084000CD0308951F920F920FB60F9211240BB68D
:100850000F922F933F938F939F93EF93FF9320914A
:10086000B7043091B8048091B9049091BA04281764
:10087000390731F48091C1008F7D8093C10014C08D
:10088000E091B904F091BA04E958FB4F20818091BE
:10089000B9049091BA0401968F7399279093BA0482
:1008A0008093B9042093C600FF91EF919F918F919F
:1008B0003F912F910F900BBE0F900FBE0F901F9086
:1008C00018951F920F920FB60F9211240BB60F922C
:1008D0002F933F938F939F93EF93FF9320912F0438
:1008E00030913004809131049091320428173907F7
:1008F00031F48091C9008F7D8093C90014C0E091CC
:100900003104F0913204E151FC4F20818091310497
:100910009091320401968F739927909332048093BB
:1009200031042093CE00FF91EF919F918F913F91E1
:100930002F910F900BBE0F900FBE0F901F90189528
:100940001F920F920FB60F9211240BB60F922F9396
:100950003F938F939F93EF93FF932091A703309141
:10096000A8038091A9039091AA032817390731F4AD
:100970008091D1008F7D8093D10014C0E091A903B4
:10098000F091AA03E959FC4F20818091A90390912D
:10099000AA0301968F7399279093AA038093A903C2
:1009A0002093D600FF91EF919F918F913F912F91CE
:1009B0000F900BBE0F900FBE0F901F9018951F92B7
:1009C0000F920FB60F9211240BB60F922F933F93F5
:1009D0008F939F93EF93FF9320911F0330912003F8
:1009E00080912103909122032817390731F48091D7
:1009F00031018F7D8093310114C0E0912103F0918A
:100A00002203E152FD4F2081809121039091220326
:100A100001968F739927909322038093210320934B
:100A20003601FF91EF919F918F913F912F910F9000
:100A30000BBE0F900FBE0F901F9018958F929F9234
:100A4000AF92BF92CF92DF92EF92FF920F931F93DC
:100A5000CF93DF93CDB7DEB7FC011382128288EE0D
:100A600093E0A0E0B0E084839583A683B78386E11A
:100A700092E0918380837587648757874687318B9F
:100A8000208B138B028BF58AE48AD78AC68AB18EB3
:100A9000A08E938E828E8889848F8989858F8A899A
:100AA000868F8B89878F8C8980A3DF91CF911F914F
:100AB0000F91FF90EF90DF90CF90BF90AF909F90FD
:100AC0008F900895CF92DF92EF92FF920F931F9332
:100AD000CF93DF93EC016A017B014115514E610513
:100AE000710509F1EC89FD8981E090E008A002C060
:100AF000880F991F0A94E2F7808360E079E08DE324
:100B000090E0A70196010E94341A89019A010150D0
:100B100011092109310936952795179507959801EF
:100B200001151041A8F0EC89FD89108260E874E895
:100B30008EE190E0A70196010E94341ADA01C90102
:100B40000197A109B109B695A795979587959C013D
:100B5000E889F9893083EA89FB89208319A2EE8923
:100B6000FF89408181E090E09C010C8C02C0220F43
:100B7000331F0A94E2F7242B2083EE89FF894081FA
:100B80009C010D8C02C0220F331F0A94E2F7242B24
:100B90002083EE89FF8940819C010E8C02C0220FC8
:100BA000331F0A94E2F7242B2083EE89FF892081EA
:100BB0000F8C02C0880F991F0A94E2F78095822358
:100BC0008083DF91CF911F910F91FF90EF90DF9085
:100BD000CF900895CF92DF92EF92FF921F93CF9321
:100BE000DF93EC016A017B01122F4115514E610523
:100BF000710509F1EC89FD8981E090E008A002C04F
:100C0000880F991F0A94E2F7808360E079E08DE312
:100C100090E0A70196010E94341ADA01C9010197F8
:100C2000A109B109B695A79597958795AC0141158E
:100C300080E15807A8F0EC89FD89108260E874E82B
:100C40008EE190E0A70196010E94341ABA01A90131
:100C500041505109610971097695679557954795F6
:100C6000E889F9895083EA89FB894083E88DF98D09
:100C70001083EE89FF89408181E090E09C010C8C1B
:100C800002C0220F331F0A94E2F7242B2083EE893F
:100C9000FF8940819C010D8C02C0220F331F0A94F2
:100CA000E2F7242B2083EE89FF8940819C010E8C82
:100CB00002C0220F331F0A94E2F7242B2083EE890F
:100CC000FF8920810F8C02C0880F991F0A94E2F7D8
:100CD000809582238083DF91CF911F91FF90EF90C9
:100CE000DF90CF900895CF93DF93FC0186859785A1
:100CF000EC01C05CDF4FDC01AE5BBF4F2881398166
:100D00008D919C91119728173907C1F7A689B7894A
:100D10003C9181E090E0AC01048C02C0440F551F6F
:100D20000A94E2F7242F209523232C93A689B789D0
:100D30003C91AC01058C02C0440F551F0A94E2F7A8
:100D4000242F209523232C93A689B7893C91AC01AD
:100D5000068C02C0440F551F0A94E2F7242F2095F9
:100D600023232C93A689B7892C91078C02C0880F66
:100D7000991F0A94E2F7809582238C938485958548
:100D8000FC01EE5BFF4F208131813297318320835C
:100D9000DF91CF91089581E00895CF92DF92EF9295
:100DA000FF920F931F93CF93DF936C01EB017B01B5
:100DB000E40EF51E00E010E0CE15DF0561F069914C
:100DC000D601ED91FC910190F081E02DC6011995BD
:100DD000080F191FF1CFC801DF91CF911F910F911B
:100DE000FF90EF90DF90CF900895EF92FF920F93D6
:100DF0001F93CF93DF937C01FB0100E010E064912F
:100E0000EF012196662361F0D701ED91FC910190ED
:100E1000F081E02DC7011995080F191FFE01EFCFD2
:100E2000C801DF91CF911F910F91FF90EF9008952E
:100E3000AF92BF92CF92DF92EF92FF920F931F93E8
:100E4000CF93DF936C017B01C0E0D0E000E010E0C5
:100E5000D70114968D919C911597C817D90788F4DE
:100E6000D601ED91FC91A080B180BE01C7010E9426
:100E7000320F682FC601F5011995080F191F219629
:100E8000E7CFC801DF91CF911F910F91FF90EF90B5
:100E9000DF90CF90BF90AF9008950C944E13DC017B
:100EA000ED91FC910190F081E02D1994DB01ED9121
:100EB000FC9111970190F081E02DBC01CD011994B6
:100EC0000F931F93CF93DF93EC016DE00E944F07C8
:100ED0008C016AE0CE010E944F07800F911FDF91C5
:100EE000CF911F910F9108950F931F93CF93DF938D
:100EF000EC010E94F5068C01CE010E946007800F74
:100F0000911FDF91CF911F910F9108950F931F9320
:100F1000CF93DF93EC010E9418078C01CE010E9451
:100F20006007800F911FDF91CF911F910F9108955E
:100F30000F931F93CF93DF93EC010E944E138C010C
:100F4000CE010E946007800F911FDF91CF911F910A
:100F50000F9108950F931F93CF93DF93EC010E949D
:100F60004F078C01CE010E946007800F911FDF9117
:100F7000CF911F910F9108950F931F93CF93DF93FC
:100F8000EC010E9456078C01CE010E946007800F81
:100F9000911FDF91CF911F910F9108958F929F9292
:100FA000AF92BF92CF92DF92EF92FF920F931F9377
:100FB000CF93DF93CDB7DEB7A1970FB6F894DEBF1E
:100FC0000FBECDBF6C01142FE52FCB01022F19A24C
:100FD000223008F40AE07E0121E2E20EF11C802EAC
:100FE000912CA12CB12C612F7E2FA50194010E9480
:100FF000341A029F1019112481E0E81AF1081A30FE
:1010000014F4105D01C0195CF7011083122FE32F57
:10101000CA01232B242B252B31F7B701C6010E94CF
:101020004E13A1960FB6F894DEBF0FBECDBFDF9171
:10103000CF911F910F91FF90EF90DF90CF90BF90D5
:10104000AF909F908F900895CF92DF92EF92FF9292
:101050000F931F93CF93DF93EC016A017B0121155E
:10106000310579F4E881F9810190F081E02D642F58
:10107000DF91CF911F910F91FF90EF90DF90CF9074
:1010800019942A303105E9F477FF1AC06DE20E9405
:101090004F078C0144275527BA014C195D096E0989
:1010A0007F092AE0CE010E94CE07800F911FDF91B9
:1010B000CF911F910F91FF90EF90DF90CF90089507
:1010C0002AE0B701A601CE01DF91CF911F910F91C8
:1010D000FF90EF90DF90CF900C94CE079A01AB0178
:1010E000770F660B770B0C9424080F931F93CF9305
:1010F000DF93EC019A01AB01770F660B770B0E942F
:1011000024088C01CE010E946007800F911FDF919F
:10111000CF911F910F9108950F931F93CF93DF935A
:10112000EC010E9424088C01CE010E946007800F10
:10113000911FDF91CF911F910F91089521153105D6
:1011400041F4DC01ED91FC910190F081E02D642FE0
:1011500019940C94CE079A01462F50E060E070E09D
:101160000C949E080F931F93CF93DF93EC019A0189
:10117000462F50E060E070E00E949E088C01CE0196
:101180000E946007800F911FDF91CF911F910F91F7
:1011900008959A01AB0160E070E00C949E080F93F3
:1011A0001F93CF93DF93EC019A01AB0160E070E0F5
:1011B0000E949E088C01CE010E946007800F911F43
:1011C000DF91CF911F910F9108950F931F93CF93AC
:1011D000DF93EC010E949E088C01CE010E94600703
:1011E000800F911FDF91CF911F910F9108954F9222
:1011F0005F926F927F928F929F92AF92BF92CF92A7
:10120000DF92EF92FF92CF93DF93EC016A017B01B3
:10121000B22E9A01AB01C701B6010E942F1A882392
:1012200019F062E272E027C026013701E89477F8EE
:101230002FEF3FEF4FE75FE7C301B2010E942F1A84
:1012400081110DC02FEF3FEF4FE75FE7C301B20100
:101250000E945E1818161CF466E272E00CC02FEFB4
:101260003FEF4FE75FE4C701B6010E94BD191816B2
:101270009CF46AE272E0CE01DF91CF91FF90EF9093
:10128000DF90CF90BF90AF909F908F907F906F90A6
:101290005F904F900C944E132FEF3FEF4FE75FECB2
:1012A000C701B6010E945E1887FDE3CF20E030E061
:1012B000A901C701B6010E945E1887FF0AC06DE24E
:1012C000CE010E944F074C01F7FAF094F7F8F09422
:1012D00002C0812C912CA12C60E070E080E09FE3A3
:1012E000AB1441F020E030E040E251E40E9463188A
:1012F000A394F6CF9B01AC01C701B6010E94F2177F
:101300002B013C010E94DC186B017C010E940B192F
:101310009B01AC01C301B2010E94F1172B013C01FA
:101320002AE0B701A601CE010E94CE077C01E80C9D
:10133000F91CBB2039F06EE272E0CE010E944E1320
:10134000E80EF91EDB2CDD2039F120E030E040E230
:1013500051E4C301B2010E94C2192B013C010E9459
:10136000D5184B01770FAA08BB082AE030E0B50179
:10137000A401CE010E942408E80EF91EC501B401A3
:101380000E940D199B01AC01C301B2010E94F1172B
:101390002B013C01DA94D7CFC701DF91CF91FF90A9
:1013A000EF90DF90CF90BF90AF909F908F907F9005
:1013B0006F905F904F9008950C94F7080F931F93D0
:1013C000CF93DF93EC010E94F7088C01CE010E94BD
:1013D0006007800F911FDF91CF911F910F910895AA
:1013E000FC01DB01118210821382128215821482A9
:1013F00016828D919C9111979183808312968D9185
:101400009C9113979383828314968D919C91159749
:101410009583848311961C921E9213961C921E92A1
:10142000129715961C921E9214970895FC01DB01E9
:1014300011821082138212821582148216828D917B
:101440009C9111979183808312968D919C91139713
:101450009383828314968D919C91159795838483B1
:1014600011961C921E9213961C921E92129715961C
:101470001C921E9214970895FC01808191810C9416
:101480005917CF93DF93EC0188819981009711F070
:101490000E945917198218821D821C821B821A828F
:1014A000DF91CF9108950F931F93CF93DF93EC01BA
:1014B0008B016F5F7F4F888199810E94FA15009799
:1014C00031F0998388831B830A8381E001C080E027
:1014D000DF91CF911F910F910895CF93DF93EC018E
:1014E00088819981892B29F08A819B8186179707AA
:1014F00060F4CE010E94530A882341F08C819D81C3
:10150000892B19F4E881F981108281E0DF91CF9174
:101510000895EF92FF920F931F93CF93DF93EC0107
:101520007B018A01BA010E946D0A811104C0CE01BB
:101530000E94410A07C01D830C83B70188819981ED
:101540000E94041BCE01DF91CF911F910F91FF905C
:10155000EF900895FC01118210821382128215828D
:10156000148216826115710551F0FB010190002073
:10157000E9F73197AF01461B570B0C94890A089580
:101580000F931F93CF93DF938C01EB01FC018081BC
:101590009181009799F0428153812C813D814217BE
:1015A000530750F0688179810E94041B8C819D81D2
:1015B000F8019583848313C00E945917888199810B
:1015C000F801918380838A819B81938382838C81BC
:1015D0009D8195838483198218821B821A821D82C1
:1015E0001C82DF91CF911F910F910895CF93DF93CC
:1015F000EC01FB018617970761F06081718161152D
:10160000710529F0448155810E94890A02C00E9417
:10161000410ACE01DF91CF910895FC011182108221
:10162000138212821582148216820C94F60ACF93CA
:10163000DF93EC018617970711F00E94C00ACE01D4
:10164000DF91CF910895CF93DF93EC018617970731
:1016500011F00E94C00ACE01DF91CF910895CF937F
:10166000DF93EC016115710559F0FB010190002039
:10167000E9F73197AF01461B570B0E94890A02C058
:101680000E94410ACE01DF91CF910895CF93DF935D
:101690001F921F92CDB7DEB7FC0111821082138218
:1016A000128215821482168269831A82BE016F5FCC
:1016B0007F4F0E942F0B0F900F90DF91CF910895D5
:1016C0000F931F93CF93DF93CDB7DEB729970FB654
:1016D000F894DEBF0FBECDBF8C01862FF8011182BA
:1016E00010821382128215821482168250E0BE018B
:1016F0006F5F7F4F90E00E94BF1BBE016F5F7F4F07
:10170000C8010E942F0B29960FB6F894DEBF0FBEBA
:10171000CDBFDF91CF911F910F9108950F931F932C
:10172000CF93DF93CDB7DEB762970FB6F894DEBFE5
:101730000FBECDBF8C01CB01F80111821082138244
:10174000128215821482168250E0BE016F5F7F4FB5
:101750000E944D1BBE016F5F7F4FC8010E942F0B7F
:1017600062960FB6F894DEBF0FBECDBFDF91CF916A
:101770001F910F9108950F931F93CF93DF93CDB7D0
:10178000DEB761970FB6F894DEBF0FBECDBF8C01F8
:10179000CB01F80111821082138212821582148209
:1017A000168250E0BE016F5F7F4F0E94BF1BBE01DB
:1017B0006F5F7F4FC8010E942F0B61960FB6F894A0
:1017C000DEBF0FBECDBFDF91CF911F910F91089566
:1017D0000F931F93CF93DF93CDB7DEB7A2970FB6CA
:1017E000F894DEBF0FBECDBF8C01CB01BA01F8016A
:1017F000118210821382128215821482168230E0C6
:10180000AE014F5F5F4F0E94631BBE016F5F7F4F52
:10181000C8010E942F0BA2960FB6F894DEBF0FBE30
:10182000CDBFDF91CF911F910F9108950F931F931B
:10183000CF93DF93CDB7DEB7A1970FB6F894DEBF95
:101840000FBECDBF8C01CB01BA01F801118210820D
:101850001382128215821482168230E0AE014F5F2D
:101860005F4F0E94921BBE016F5F7F4FC8010E94B5
:101870002F0BA1960FB6F894DEBF0FBECDBFDF9140
:10188000CF911F910F910895EF92FF920F931F93A5
:10189000CF93DF93FC01248135816115710511F42B
:1018A00080E019C041155105A9F07B01EC018A01C6
:1018B000020F131FB8010E946D0A882389F3288143
:1018C00039818C819D81B701820F931F0E94041B77
:1018D0001D830C8381E0DF91CF911F910F91FF90C9
:1018E000EF900895FB0144815581608171810C94D2
:1018F000440C6115710551F0FB0101900020E9F7DE
:101900003197AF01461B570B0C94440C80E00895AF
:10191000CF93DF931F921F92CDB7DEB769831A82F0
:1019200041E050E0BE016F5F7F4F0E94440C0F907A
:101930000F90DF91CF910895EF92FF920F931F9335
:10194000CF93DF9300D01F92CDB7DEB77C01862FF7
:101950004AE08E010F5F1F4FB80190E00E94581BB4
:10196000F80101900020E9F73197AF01401B510BBE
:10197000B801C7010E94440C0F900F900F900F9078
:10198000DF91CF911F910F91FF90EF900895EF920B
:10199000FF920F931F93CF93DF93CDB7DEB72797B7
:1019A0000FB6F894DEBF0FBECDBF7C01CB014AE07D
:1019B0008E010F5F1F4FB8010E94581BF801019064
:1019C0000020E9F73197AF01401B510BB801C70167
:1019D0000E94440C27960FB6F894DEBF0FBECDBF11
:1019E000DF91CF911F910F91FF90EF900895EF92AB
:1019F000FF920F931F93CF93DF9300D000D0CDB70A
:101A0000DEB77C01CB014AE08E010F5F1F4FB801AA
:101A10000E94CA1BF80101900020E9F73197AF013D
:101A2000401B510BB801C7010E94440C26960FB60B
:101A3000F894DEBF0FBECDBFDF91CF911F910F9104
:101A4000FF90EF900895EF92FF920F931F93CF9323
:101A5000DF93CDB7DEB72C970FB6F894DEBF0FBE7D
:101A6000CDBF7C01CB01BA012AE08E010F5F1F4F71
:101A7000A8010E946E1BF80101900020E9F7319740
:101A8000AF01401B510BB801C7010E94440C2C96BA
:101A90000FB6F894DEBF0FBECDBFDF91CF911F917F
:101AA0000F91FF90EF900895EF92FF920F931F9385
:101AB000CF93DF93CDB7DEB72B970FB6F894DEBF89
:101AC0000FBECDBF7C01CB01BA012AE08E010F5FB2
:101AD0001F4FA8010E949D1BF80101900020E9F70B
:101AE0003197AF01401B510BB801C7010E94440C54
:101AF0002B960FB6F894DEBF0FBECDBFDF91CF910E
:101B00001F910F91FF90EF900895CF93DF93EC0119
:101B1000FB0144815581608171810E94440C8111D7
:101B200003C0CE010E94410ACE01DF91CF910895FA
:101B3000CF93DF93EC016115710561F0FB0101901A
:101B40000020E9F73197AF01461B570B0E94440C68
:101B5000811103C0CE010E94410ACE01DF91CF91D5
:101B60000895CF93DF93EC010E94880C811103C08C
:101B7000CE010E94410ACE01DF91CF910895CF930B
:101B8000DF93EC010E949C0C811103C0CE010E94E6
:101B9000410ACE01DF91CF910895CF93DF93EC01FD
:101BA0000E94C70C811103C0CE010E94410ACE01E0
:101BB000DF91CF910895CF93DF93EC010E94F70C52
:101BC000811103C0CE010E94410ACE01DF91CF9165
:101BD0000895CF93DF93EC010E94230D811103C080
:101BE000CE010E94410ACE01DF91CF910895CF939B
:101BF000DF93EC010E94540D811103C0CE010E94BD
:101C0000410ACE01DF91CF910895CF93DF93DC019C
:101C1000ED91FC91EB01A881B981309711F01097FB
:101C2000C9F4109759F0EB012C813D81232B31F041
:101C30008C9190E091958195910914C0309781F035
:101C4000DC0114968D919C911597892B49F0808128
:101C500090E008C0BD01CF01DF91CF910C94FB1A39
:101C600080E090E0DF91CF910895FC01448155819F
:101C7000FB01248135814217530729F40E94050E88
:101C800021E0892B09F020E0822F0895FC012481B6
:101C90003581232B31F421E061157105A1F0FB01A1
:101CA00008C0FC01808191816115710531F421E04A
:101CB000FC018081882339F005C00E94FB1A21E0D5
:101CC000892B09F020E0822F08950E94050E892FAC
:101CD000881F8827881F08950E94050E21E0181686
:101CE00019060CF020E0822F08950E94050E21E0D5
:101CF000181619060CF420E0822F08950E94050E94
:101D0000892F8095881F8827881F0895EF92FF925A
:101D10000F931F93CF93DF938617970729F1FC0149
:101D200024813581FB014481558124173507F1F465
:101D3000232BD1F0DC01CD91DC91008111818991BF
:101D4000882391F0082E000C990B0E94C51A7C0183
:101D5000F80181918F01082E000C990B0E94C51A81
:101D6000E816F90661F302C081E001C080E0DF916E
:101D7000CF911F910F91FF90EF900895DB01149682
:101D8000ED91FC911597DC0114962D913C911597DE
:101D90002E1B3F0B24173507A0F02D913C912115E8
:101DA000310579F0DB016D917C916115710549F088
:101DB000CA01AF01820F931F0E940B1B21E0892BE8
:101DC00009F020E0822F0895FC0144815581FB0138
:101DD000248135814217530720F040E050E00C94F5
:101DE000BE0E80E00895FC0124813581FB01448111
:101DF000558124173507A0F0FC018081918100975F
:101E000079F0FB01608171816115710549F0241B36
:101E1000350B820F931F0E94FB1A21E0892B09F0DA
:101E200020E0822F0895FC01248135816217730719
:101E300030F480819181FC01E60FF71F4083089503
:101E4000FC01248135816217730720F48081918120
:101E5000009729F41092FF048FEF94E00895860F05
:101E6000971F0895FC01248135816217730748F498
:101E700080819181009729F0FC01E60FF71F808196
:101E8000089580E008950C94320F0F931F93CF9321
:101E9000DF934115510519F16115710501F1DC015F
:101EA0001496ED91FC9115972E173F0718F0FB0142
:101EB000108215C0E21BF30BEA012197EC17FD0716
:101EC00008F4EF018B01FC0160817181620F731FC7
:101ED000AE01C8010E94191BC00FD11F1882DF91EB
:101EE000CF911F910F910895CF93DF93FC0124812F
:101EF00035814217530778F4C081D181062E000C3A
:101F0000770BCE01840F951F0E94F01A009719F0ED
:101F10008C1B9D0B02C08FEF9FEFDF91CF91089537
:101F200040E050E00C94740FCF93DF93FC012481C8
:101F300035814217530780F4FB01DC01CD91DC9120
:101F400060817181CE01840F951F0E94331B009721
:101F500019F08C1B9D0B02C08FEF9FEFDF91CF918B
:101F6000089540E050E00C94940FDF92EF92FF92BE
:101F70000F931F93CF93DF93DC0114962D913C9127
:101F800015974217530718F08FEF9FEF1DC08C0174
:101F9000EA012196DC01ED91FC911197EC0FFD1FF8
:101FA000D0801082ED90FC90062E000C770BC701BC
:101FB0000E94281BCE0DDF1DD882009729F3F8015F
:101FC00020813181821B930BDF91CF911F910F9163
:101FD000FF90EF90DF900895FC01448155814150BE
:101FE00051090C94B50FAF92BF92CF92DF92EF924E
:101FF000FF920F931F93CF93DF937B018A01FB0125
:10200000448155814115510561F1FC0124813581DF
:102010002115310531F12417350718F1021713077F
:1020200018F0890101501109FC01A080B180C5019F
:10203000DFEFCFEF6501C00ED11EC816D906A0F0A4
:10204000F701608171810E94331B009769F09C0148
:102050002A193B090217130710F0D22FC32F01963C
:10206000ECCF8FEF9FEF02C08D2F9C2FDF91CF9190
:102070001F910F91FF90EF90DF90CF90BF90AF90A6
:102080000895FC0144815581FB0124813581421B67
:10209000530B0C94F30FBF92CF92DF92EF92FF920B
:1020A0000F931F93CF93DF937C016B018A01E901AA
:1020B0002417350720F4812F8901C42FD82F61E11F
:1020C00072E0C7010E94AA0AD60114968D919C91D4
:1020D000159780179107D0F08C179D0708F4EC0135
:1020E000D601ED91FC911197EC0FFD1FB08010828D
:1020F0004D915C91BA01600F711FC7010E942F0BB7
:10210000D601ED91FC91EC0FFD1FB082C701DF916C
:10211000CF911F910F91FF90EF90DF90CF90BF90E4
:102120000895CF93DF93EC01FB01248135810E9458
:102130004B10CE01DF91CF910895DC01ED91FC9120
:10214000309729F40895861301C040833196808129
:102150008111F9CF08952F923F924F925F926F9223
:102160007F928F929F92AF92BF92CF92DF92EF9227
:10217000FF920F931F93CF93DF93FC014480558010
:102180004114510409F4D2C0FB01648075806114CC
:10219000710409F4CBC07A016B018C01FA01A480AF
:1021A000B580A618B708FC01C081D181A114B10483
:1021B000C1F4F60160817181CE010E94331BEC01F4
:1021C000892B09F4B3C0F701608171814481558185
:1021D000CE010E94D51AF70184819581C80FD91FBD
:1021E000E8CFB7FE02C04E0105C0FB012080318060
:1021F000420143C0F60160817181C4010E94331B1A
:102200002C01892B21F1320168187908A301B4014E
:10221000CE010E94D51AC60DD71DF70160817181CC
:1022200044815581CE010E94D51AF70184819581A0
:10223000C80FD91FF60184809580840C951CF80185
:10224000848195818A0D9B1D95838483D3CFB401AE
:10225000CE01DF91CF911F910F91FF90EF90DF9012
:10226000CF90BF90AF909F908F907F906F905F9036
:102270004F903F902F900C94041BB101CE010E940F
:10228000331B009731F0EC01C60DD71D8A0C9B1C47
:10229000F4CF8414950409F449C0F8018281938134
:1022A0008815990530F4B401C8010E94530A8823A7
:1022B000E9F1F801448155814150510957FD36C07B
:1022C000B601C8010E94F30FEC0197FD2FC0F80181
:1022D00080819181F601248135812C0F3D1F820F71
:1022E000931FF80144815581421B530BBC018A0D99
:1022F0009B1D0E94DE1AF801848195818A0D9B1D29
:102300009583848320813181F901E80FF91F1082C0
:10231000F80180819181F70160817181448155814B
:102320008C0F9D1F0E94D51AAE01C6CFDF91CF91B1
:102330001F910F91FF90EF90DF90CF90BF90AF90E3
:102340009F908F907F906F905F904F903F902F90D5
:102350000895CF93DF93FC01C081D181209751F084
:102360008881882339F0082E000C990B0E94C51A29
:102370008993F6CFDF91CF910895CF93DF93FC013E
:10238000C081D181209751F08881882339F0082EAF
:10239000000C990B0E94CD1A8993F6CFDF91CF9153
:1023A0000895AF92BF92CF92DF92EF92FF920F9378
:1023B0001F93CF93DF93DC01CD90DC901197C11474
:1023C000D10409F442C01496CD91DC911597209761
:1023D000E1F18C0156017501BFEFAB1ABB0AF701A1
:1023E0008081082E000C990B0E94BC1A892B99F74A
:1023F0002197CC0DDD1D8881082E000C990B0E94C1
:10240000BC1A892B91F4AE014F5F5F4F4E195F09E3
:10241000D80115965C934E931497CE14DF0450F4B4
:10242000B701C6010E94D51A05C0CE15DF0558F3C5
:102430002197E1CFD801ED91FC91119714968D91E0
:102440009C911597E80FF91F1082DF91CF911F9192
:102450000F91FF90EF90DF90CF90BF90AF900895D5
:10246000FC0180819181009711F00C94951A60E035
:1024700070E0CB010895CF92EF920F9322E04BE0F2
:102480006AE084E492E00E94D00188E0C82E96E0E1
:10249000E92E07E025E04DE06EE080E392E00E9447
:1024A000E9010F91EF90CF9008950E9498150E9436
:1024B0002802C1E0D4E00E9476022097E1F30E9456
:1024C0000104F9CFFB01E05CFF4F208131812F5FD8
:1024D0003F4F2F733327DB01AE5BBF4F4D915C91B4
:1024E0002417350741F040815181DB01A40FB51F4E
:1024F0008C93318320830895CF92DF92EF92FF92E5
:10250000EDEBF2E01382128288EEC82E83E0D82E23
:10251000E12CF12CC482D582E682F78266E172E07A
:10252000718360838BEB94E09587848787E794E0E1
:102530009787868785EC90E0918B808B84EC90E088
:10254000938B828B80EC90E0958B848B81EC90E078
:10255000978B868B82EC90E0918F808F86EC90E059
:10256000938F828F44E0448F33E0358F27E0268FAE
:1025700095E0978F81E080A3EBE9F2E0138212826D
:10258000C482D582E682F78271836083A3E3B4E0DC
:10259000B587A487AFEEB3E0B787A687ADECB0E010
:1025A000B18BA08BACECB0E0B38BA28BA8ECB0E00D
:1025B000B58BA48BA9ECB0E0B78BA68BAAECB0E0EE
:1025C000B18FA08FAEECB0E0B38FA28F448F358F68
:1025D000268F978F80A3E9E7F2E013821282C482EC
:1025E000D582E682F78271836083ABEAB3E0B58778
:1025F000A487A7E6B3E0B787A687A5EDB0E0B18BC7
:10260000A08BA4EDB0E0B38BA28BA0EDB0E0B58BB6
:10261000A48BA1EDB0E0B78BA68BA2EDB0E0B18F9B
:10262000A08FA6EDB0E0B38FA28F448F358F268F99
:10263000978F80A3E7E5F2E013821282C482D582ED
:10264000E682F7827183608363E273E07587648753
:102650006FED72E07787668765E371E0718B608B61
:1026600064E371E0738B628B60E371E0758B648B64
:1026700061E371E0778B668B62E371E0718F608F4D
:1026800066E371E0738F628F448F358F268F978F4B
:1026900080A3FF90EF90DF90CF90089561157105B2
:1026A00079F0FB0101900020E9F73197AF01461B5B
:1026B000570BDC01ED91FC910280F381E02D199420
:1026C00080E090E0089590E0FC013197E131F10560
:1026D00008F04AC08827EE58FF4F8F4F0C94561AC7
:1026E000809180008F7703C0809180008F7D8093E0
:1026F0008000089584B58F7702C084B58F7D84BD36
:1027000008958091B0008F7703C08091B0008F7DD5
:102710008093B0000895809190008F7707C08091DA
:1027200090008F7D03C080919000877F8093900000
:1027300008958091A0008F7707C08091A0008F7DC1
:1027400003C08091A000877F8093A00008958091AE
:1027500020018F7707C0809120018F7D03C0809179
:102760002001877F809320010895CF93DF9390E02D
:10277000FC01EA5EFD4F2491FC01E45AFD4F849177
:10278000882361F190E0880F991FFC01E454FD4F0C
:10279000C591D491FC01EE55FD4FA591B491611105
:1027A00009C09FB7F8948881209582238883EC9193
:1027B0002E230BC0623061F49FB7F8943881822FCA
:1027C000809583238883EC912E2B2C939FBF06C08A
:1027D0008FB7F894E8812E2B28838FBFDF91CF919C
:1027E00008951F93CF93DF93282F30E0F901E05332
:1027F000FE4F8491F901EA5EFD4FD491F901E45A4C
:10280000FD4FC491CC23C9F0162F81110E94631390
:10281000EC2FF0E0EE0FFF1FEE55FD4FA591B491A8
:102820008FB7F894111105C09C91ED2FE095E92325
:1028300002C0EC91ED2BEC938FBFDF91CF911F91F4
:102840000895863308F0865390917B00282F2870D6
:10285000977F922B90937B0087702091000290E4E9
:10286000299F90011124822B80937C0080917A0013
:10287000806480937A0080917A0086FDFCCF8091FD
:1028800078002091790090E0922B08951F93CF93C8
:10289000DF93182FEB0161E00E94B513209711F42C
:1028A00060E004C0CF3FD10529F461E0812F0E9490
:1028B000F113A5C0E12FF0E0E053FE4FE4914E2F5D
:1028C00050E0FA013197E131F10508F093C0882713
:1028D000ED57FF4F8F4F0C94561A84B5806884BD16
:1028E000C7BD8DC084B5806284BDC8BD88C08091DD
:1028F0008000806880938000D0938900C093880016
:102900007EC080918000806280938000D0938B0095
:10291000C0938A0074C08091B00080688093B0003A
:10292000C093B3006CC08091B00080628093B0000F
:10293000C093B40064C08091900080688093900040
:10294000D0939900C09398005AC080919000806203
:1029500080939000D0939B00C0939A0050C08091C8
:102960009000886080939000D0939D00C0939C005D
:1029700046C08091A00080688093A0008091A00054
:102980008F7B8093A000D093A900C093A80037C08C
:102990008091A00080628093A000D093AB00C09390
:1029A000AA002DC08091A00088608093A000D093E1
:1029B000AD00C093AC0023C080912001806880935B
:1029C0002001D0932901C093280119C080912001D2
:1029D000806280932001D0932B01C0932A010FC005
:1029E00080912001886080932001D0932D01C093B5
:1029F0002C0105C0C038D1050CF057CF51CFDF9165
:102A0000CF911F9108951F920F920FB60F9211242C
:102A10002F933F938F939F93AF93BF938091010523
:102A200090910205A0910305B09104053091000535
:102A300023E0230F2D3720F40196A11DB11D05C001
:102A400026E8230F0296A11DB11D20930005809357
:102A5000010590930205A0930305B09304058091AE
:102A6000050590910605A0910705B091080501960E
:102A7000A11DB11D8093050590930605A093070540
:102A8000B0930805BF91AF919F918F913F912F9186
:102A90000F900FBE0F901F9018953FB7F89480913C
:102AA000050590910605A0910705B091080526B58A
:102AB000A89B05C02F3F19F00196A11DB11D3FBF76
:102AC000BA2FA92F982F8827820F911DA11DB11D04
:102AD000BC01CD0142E0660F771F881F991F4A9500
:102AE000D1F70895CF92DF92EF92FF92CF93DF93C9
:102AF0006B017C010E944D15EB01C114D104E1046E
:102B0000F10479F00E944D156C1B7D0B683E7340FB
:102B1000A0F381E0C81AD108E108F108C851DC4FE0
:102B2000ECCFDF91CF91FF90EF90DF90CF900895A1
:102B3000789484B5826084BD84B5816084BD85B598
:102B4000826085BD85B5816085BDEEE6F0E080815F
:102B500081608083E1E8F0E0108280818260808380
:102B6000808181608083E0E8F0E080818160808303
:102B7000E1EBF0E0808184608083E0EBF0E0808135
:102B800081608083E1E9F0E08081826080838081E0
:102B900081608083E0E9F0E0808181608083E1EA08
:102BA000F0E0808182608083808181608083E0EAC0
:102BB000F0E0808181608083E1E2F1E080818260E9
:102BC0008083808181608083E0E2F1E080818160A8
:102BD0008083EAE7F0E08081846080838081826086
:102BE000808380818160808380818068808310926F
:102BF000C1000895A0E0B0E0E0E0F6E10C94621AB4
:102C0000EC01009721F4CB010E94C416B8C0FC016E
:102C1000E60FF71F9C0122503109E217F30708F471
:102C2000ACC0D9010D911C91119706171707B0F090
:102C30000530110508F49FC0C8010497861797074F
:102C400008F499C002501109061B170B0193119348
:102C50006D937C93CF010E9459178DC05B01A01A20
:102C6000B10A4C01800E911EA0910B05B0910C058C
:102C700040E050E0E12CF12C109709F44AC0A8156F
:102C8000B905D1F56D907C901197630182E0C80E73
:102C9000D11CCA14DB0480F1A3014A195B096A0143
:102CA00082E0C80ED11C1296BC9012971396AC917C
:102CB000B5E0CB16D10440F0B282A38351834083A8
:102CC000D9016D937C930AC00E5F1F4FC301800F23
:102CD000911FF90191838083EB2DFA2FE114F10408
:102CE00031F0D7011396FC93EE93129744C0F09302
:102CF0000C05E0930B053FC08D919C9111974817EF
:102D0000590708F4AC017D0112960D90BC91A02DDD
:102D1000B3CF8091090590910A0588159905E1F4D2
:102D200046175707C8F4809101029091020200975C
:102D300041F48DB79EB74091050250910602841B65
:102D4000950BE817F907C8F4F0930A05E093090515
:102D5000F901718360830FC0CB010E94C4167C010E
:102D6000009759F0A801BE010E94D51ACE010E9419
:102D70005917C70104C0CE0102C080E090E0CDB772
:102D8000DEB7EEE00C947E1ACF93DF93823091058C
:102D900010F482E090E0E0910B05F0910C0520E04A
:102DA00030E0C0E0D0E0309711F140815181481708
:102DB0005907C0F04817590761F482819381209721
:102DC00019F09B838A832BC090930C0580930B058D
:102DD00026C02115310519F04217530718F49A013E
:102DE000BE01DF01EF010280F381E02DDCCF211570
:102DF000310509F1281B390B2430310590F4129666
:102E00008D919C9113976115710521F0FB019383BE
:102E1000828304C090930C0580930B05FD013296CC
:102E200044C0FD01E20FF31F8193919322503109B9
:102E30002D933C933AC02091090530910A05232B2C
:102E400041F4209103023091040230930A0520934B
:102E5000090520910102309102022115310541F44A
:102E60002DB73EB74091050250910602241B350B49
:102E7000E0910905F0910A05E217F307A0F42E1B73
:102E80003F0B2817390778F0AC014E5F5F4F2417CE
:102E9000350748F04E0F5F1F50930A054093090510
:102EA0008193919302C0E0E0F0E0CF01DF91CF91F8
:102EB00008950F931F93CF93DF93009709F48CC06D
:102EC000FC0132971382128200910B0510910C05C0
:102ED0000115110581F420813181820F931F20910A
:102EE000090530910A052817390779F5F0930A0585
:102EF000E093090571C0D80140E050E0AE17BF076C
:102F000050F412962D913C911397AD012115310586
:102F100009F1D901F3CF9D01DA0133832283608166
:102F20007181860F971F8217930769F4EC0128813E
:102F30003981260F371F2E5F3F4F318320838A81CF
:102F40009B8193838283452B29F4F0930C05E093B6
:102F50000B0542C01396FC93EE931297ED01499135
:102F600059919E01240F351FE217F30771F48081F8
:102F70009181840F951F029611969C938E93828166
:102F8000938113969C938E931297E0E0F0E0D80122
:102F900012968D919C911397009719F0F8018C016E
:102FA000F6CF8D919C9198012E5F3F4F820F931F1A
:102FB0002091090530910A052817390769F43097DF
:102FC00029F410920C0510920B0502C01382128294
:102FD00010930A0500930905DF91CF911F910F917E
:102FE00008955058BB27AA270E9409180C948319EA
:102FF0000E94751938F00E947C1920F039F49F3F27
:1030000019F426F40C9472190EF4E095E7FB0C9475
:103010006C19E92F0E94941958F3BA1762077307C5
:103020008407950720F079F4A6F50C94B6190EF4F0
:10303000E0950B2EBA2FA02D0B01B90190010C01C8
:10304000CA01A0011124FF27591B99F0593F50F4E0
:10305000503E68F11A16F040A22F232F342F442738
:10306000585FF3CF469537952795A795F040539530
:10307000C9F77EF41F16BA0B620B730B840BBAF000
:103080009150A1F0FF0FBB1F661F771F881FC2F76B
:103090000EC0BA0F621F731F841F48F4879577957F
:1030A0006795B795F7959E3F08F0B0CF9395880F39
:1030B00008F09927EE0F9795879508950E94481973
:1030C00008F481E008950E9477180C9483190E94F7
:1030D0007C1958F00E94751940F029F45F3F29F0DF
:1030E0000C946C1951110C94B7190C9472190E941C
:1030F000941968F39923B1F3552391F3951B550B5C
:10310000BB27AA2762177307840738F09F5F5F4FBA
:10311000220F331F441FAA1FA9F335D00E2E3AF0F9
:10312000E0E832D091505040E695001CCAF72BD011
:10313000FE2F29D0660F771F881FBB1F2617370762
:103140004807AB07B0E809F0BB0B802DBF01FF2794
:1031500093585F4F3AF09E3F510578F00C946C19EC
:103160000C94B7195F3FE4F3983ED4F386957795B6
:103170006795B795F7959F5FC9F7880F911D96954D
:10318000879597F90895E1E0660F771F881FBB1FA9
:10319000621773078407BA0720F0621B730B840B56
:1031A000BA0BEE1F88F7E09508950E94DC1868942A
:1031B000B1110C94B71908950E949C1988F09F577B
:1031C00098F0B92F9927B751B0F0E1F0660F771F4B
:1031D000881F991F1AF0BA95C9F714C0B13091F041
:1031E0000E94B619B1E008950C94B619672F782F94
:1031F0008827B85F39F0B93FCCF386957795679506
:10320000B395D9F73EF490958095709561957F4F71
:103210008F4F9F4F0895E89409C097FB3EF4909517
:103220008095709561957F4F8F4F9F4F9923A9F09F
:10323000F92F96E9BB279395F6958795779567952E
:10324000B795F111F8CFFAF4BB0F11F460FF1BC072
:103250006F5F7F4F8F4F9F4F16C0882311F096E905
:1032600011C0772321F09EE8872F762F05C06623B3
:1032700071F096E8862F70E060E02AF09A95660F6C
:10328000771F881FDAF7880F9695879597F9089525
:10329000990F0008550FAA0BE0E8FEEF1616170667
:1032A000E807F907C0F012161306E407F50798F0CF
:1032B000621B730B840B950B39F40A2661F0232BE8
:1032C000242B252B21F408950A2609F4A140A69564
:1032D0008FEF811D811D089597F99F6780E870E049
:1032E00060E008959FEF80EC089500240A9416167C
:1032F000170618060906089500240A9412161306E4
:10330000140605060895092E0394000C11F4882371
:1033100052F0BB0F40F4BF2B11F460FF04C06F5F8D
:103320007F4F8F4F9F4F089557FD9058440F551F63
:1033300059F05F3F71F04795880F97FB991F61F037
:103340009F3F79F087950895121613061406551FAE
:10335000F2CF4695F1DF08C0161617061806991F1A
:10336000F1CF86957105610508940895E894BB270F
:1033700066277727CB0197F908950E94481908F42A
:103380008FEF08950E94D5190C9483190E94751926
:1033900038F00E947C1920F0952311F00C946C19E0
:1033A0000C94721911240C94B7190E94941970F39B
:1033B000959FC1F3950F50E0551F629FF001729FDA
:1033C000BB27F00DB11D639FAA27F00DB11DAA1FE9
:1033D000649F6627B00DA11D661F829F2227B00D36
:1033E000A11D621F739FB00DA11D621F839FA00DC1
:1033F000611D221F749F3327A00D611D231F849F11
:10340000600D211D822F762F6A2F11249F57504067
:103410009AF0F1F088234AF0EE0FFF1FBB1F661FE2
:10342000771F881F91505040A9F79E3F510580F0AB
:103430000C946C190C94B7195F3FE4F3983ED4F3E5
:10344000869577956795B795F795E7959F5FC1F74F
:10345000FE2B880F911D9695879597F908950E94E8
:103460004819880B990B0895A1E21A2EAA1BBB1BC1
:10347000FD010DC0AA1FBB1FEE1FFF1FA217B30740
:10348000E407F50720F0A21BB30BE40BF50B661F56
:10349000771F881F991F1A9469F76095709580951A
:1034A00090959B01AC01BD01CF010895EE0FFF1F68
:1034B000881F8BBF0790F691E02D19942F923F92B1
:1034C0004F925F926F927F928F929F92AF92BF9234
:1034D000CF92DF92EF92FF920F931F93CF93DF93E0
:1034E000CDB7DEB7CA1BDB0B0FB6F894DEBF0FBE3D
:1034F000CDBF19942A88398848885F846E847D847A
:103500008C849B84AA84B984C884DF80EE80FD808B
:103510000C811B81AA81B981CE0FD11D0FB6F89401
:10352000DEBF0FBECDBFED0108951F93FC019927AB
:103530008827BC01E89411911032E9F3193010F09A
:103540001E30C8F31B3251F01D3249F4689406C096
:103550000E947D1B610F711D811D911D11911053E2
:103560001A30B0F33EF490958095709561957F4F39
:103570008F4F9F4F1F91089591110C94E41B80323F
:1035800019F089508550C8F7089591110895815414
:103590008A5108F4805E855A0895911108958156E4
:1035A0008A5108F4805285580895FB01DC0102C05D
:1035B00001900D9241505040D8F70895681779074F
:1035C00068F4FB01DC01E40FF51FA40FB51F02C076
:1035D00002900E9241505040D8F708950C94D51A9D
:1035E000FC018191861721F08823D9F79927089546
:1035F0003197CF010895FB01DC018D910190801975
:103600000110D9F3990B0895FB01DC0101900D9293
:103610000020E1F70895FB01DC014150504030F0FB
:103620008D910190801919F40020B9F7881B990B2E
:103630000895FB01DC014150504048F001900D928B
:103640000020C9F701C01D9241505040E0F7089595
:10365000FC0181E090E00190061609F4CF01002002
:10366000D1F701970895FB0151915523A9F0BF01AE
:10367000DC014D9145174111E1F759F4CD0101905D
:10368000002049F04D9140154111C9F3FB01411152
:10369000EFCF81E090E0019708954532510520F485
:1036A000423010F00C94581BFB011082CB0108959E
:1036B000BB274A3031F4992322F4BDE290958195DD
:1036C0009F4F0C94CB1B2532310520F4223010F093
:1036D0000C946E1BFA011082CA010895BB272A3090
:1036E00051F4992342F4BDE29095809570956195CF
:1036F0007F4F8F4F9F4F0C949E1B592F482F372F72
:10370000262F660F771F881F991F660F771F881F48
:10371000991F620F731F841F951F660F771F881FE5
:10372000991F08952532310520F4223010F00C94B1
:103730009D1BFA011082CA010895BB27FA01A62F2A
:103740006217710581059105330B30FB66F0AA27DE
:10375000660F771F881F991FAA1FA21710F0A21BC0
:1037600063953850A9F7A05DAA3308F0A95DA1932D
:1037700036F7B111B1931082CA010C94E71B4532A0
:10378000510520F4423010F00C94CA1BFB0110824A
:10379000CB010895BB27FB015527AA27880F991F46
:1037A000AA1FA41710F0A41B83955051B9F7A05D70
:1037B000AA3308F0A95DA193009779F7B111B193ED
:1037C0001192CB010C94E71B992788270895DC01FF
:1037D000FC01672F71917723E1F7329704C07C9148
:1037E0006D9370836291AE17BF07C8F30895F89484
:0237F000FFCF09
:1037F2000100000D05800070726573737572653A81
:10380200200000000000EF02CD069802C402A802C8
:10381200E4026E616E00696E66006F7666002E00CD
:00000001FF
